{
  "_format": "hh-sol-artifact-1",
  "contractName": "GuessingGame",
  "sourceName": "contracts/GuessingGame.sol",
  "abi": [
    {
      "inputs": [
        {
          "internalType": "address",
          "name": "",
          "type": "address"
        }
      ],
      "name": "addressToCommit",
      "outputs": [
        {
          "internalType": "bytes32",
          "name": "",
          "type": "bytes32"
        }
      ],
      "stateMutability": "view",
      "type": "function"
    },
    {
      "inputs": [],
      "name": "claimPrize",
      "outputs": [],
      "stateMutability": "nonpayable",
      "type": "function"
    },
    {
      "inputs": [
        {
          "internalType": "bytes32",
          "name": "commitment",
          "type": "bytes32"
        }
      ],
      "name": "commit",
      "outputs": [],
      "stateMutability": "payable",
      "type": "function"
    },
    {
      "inputs": [],
      "name": "commitDeadline",
      "outputs": [
        {
          "internalType": "uint256",
          "name": "",
          "type": "uint256"
        }
      ],
      "stateMutability": "view",
      "type": "function"
    },
    {
      "inputs": [
        {
          "internalType": "bytes32",
          "name": "",
          "type": "bytes32"
        }
      ],
      "name": "commitToAddress",
      "outputs": [
        {
          "internalType": "address",
          "name": "",
          "type": "address"
        }
      ],
      "stateMutability": "view",
      "type": "function"
    },
    {
      "inputs": [
        {
          "internalType": "uint256",
          "name": "",
          "type": "uint256"
        }
      ],
      "name": "commits",
      "outputs": [
        {
          "internalType": "bytes32",
          "name": "",
          "type": "bytes32"
        }
      ],
      "stateMutability": "view",
      "type": "function"
    },
    {
      "inputs": [],
      "name": "endGame",
      "outputs": [],
      "stateMutability": "nonpayable",
      "type": "function"
    },
    {
      "inputs": [],
      "name": "entryFee",
      "outputs": [
        {
          "internalType": "uint256",
          "name": "",
          "type": "uint256"
        }
      ],
      "stateMutability": "view",
      "type": "function"
    },
    {
      "inputs": [],
      "name": "gameEnded",
      "outputs": [
        {
          "internalType": "bool",
          "name": "",
          "type": "bool"
        }
      ],
      "stateMutability": "view",
      "type": "function"
    },
    {
      "inputs": [],
      "name": "gameEndedFactor",
      "outputs": [
        {
          "internalType": "uint256",
          "name": "",
          "type": "uint256"
        }
      ],
      "stateMutability": "view",
      "type": "function"
    },
    {
      "inputs": [
        {
          "internalType": "uint256",
          "name": "number",
          "type": "uint256"
        }
      ],
      "name": "getAddressByGuess",
      "outputs": [
        {
          "internalType": "address[]",
          "name": "",
          "type": "address[]"
        }
      ],
      "stateMutability": "view",
      "type": "function"
    },
    {
      "inputs": [],
      "name": "getCommits",
      "outputs": [
        {
          "internalType": "uint256",
          "name": "",
          "type": "uint256"
        }
      ],
      "stateMutability": "view",
      "type": "function"
    },
    {
      "inputs": [],
      "name": "getGuesses",
      "outputs": [
        {
          "internalType": "uint256",
          "name": "",
          "type": "uint256"
        }
      ],
      "stateMutability": "view",
      "type": "function"
    },
    {
      "inputs": [
        {
          "internalType": "uint256",
          "name": "",
          "type": "uint256"
        },
        {
          "internalType": "uint256",
          "name": "",
          "type": "uint256"
        }
      ],
      "name": "guessToAddress",
      "outputs": [
        {
          "internalType": "address",
          "name": "",
          "type": "address"
        }
      ],
      "stateMutability": "view",
      "type": "function"
    },
    {
      "inputs": [
        {
          "internalType": "uint256",
          "name": "",
          "type": "uint256"
        }
      ],
      "name": "guesses",
      "outputs": [
        {
          "internalType": "uint256",
          "name": "",
          "type": "uint256"
        }
      ],
      "stateMutability": "view",
      "type": "function"
    },
    {
      "inputs": [
        {
          "internalType": "address",
          "name": "",
          "type": "address"
        }
      ],
      "name": "hasCommited",
      "outputs": [
        {
          "internalType": "bool",
          "name": "",
          "type": "bool"
        }
      ],
      "stateMutability": "view",
      "type": "function"
    },
    {
      "inputs": [],
      "name": "hasInitialized",
      "outputs": [
        {
          "internalType": "bool",
          "name": "",
          "type": "bool"
        }
      ],
      "stateMutability": "view",
      "type": "function"
    },
    {
      "inputs": [
        {
          "internalType": "address",
          "name": "",
          "type": "address"
        }
      ],
      "name": "hasRevealed",
      "outputs": [
        {
          "internalType": "bool",
          "name": "",
          "type": "bool"
        }
      ],
      "stateMutability": "view",
      "type": "function"
    },
    {
      "inputs": [],
      "name": "hasTransferred",
      "outputs": [
        {
          "internalType": "bool",
          "name": "",
          "type": "bool"
        }
      ],
      "stateMutability": "view",
      "type": "function"
    },
    {
      "inputs": [],
      "name": "hasWithdrawn",
      "outputs": [
        {
          "internalType": "bool",
          "name": "",
          "type": "bool"
        }
      ],
      "stateMutability": "view",
      "type": "function"
    },
    {
      "inputs": [
        {
          "internalType": "address",
          "name": "",
          "type": "address"
        }
      ],
      "name": "hasretrieved",
      "outputs": [
        {
          "internalType": "bool",
          "name": "",
          "type": "bool"
        }
      ],
      "stateMutability": "view",
      "type": "function"
    },
    {
      "inputs": [],
      "name": "host",
      "outputs": [
        {
          "internalType": "address payable",
          "name": "",
          "type": "address"
        }
      ],
      "stateMutability": "view",
      "type": "function"
    },
    {
      "inputs": [
        {
          "internalType": "address",
          "name": "_owner",
          "type": "address"
        },
        {
          "internalType": "uint256",
          "name": "_feeAmount",
          "type": "uint256"
        }
      ],
      "name": "initialize",
      "outputs": [],
      "stateMutability": "nonpayable",
      "type": "function"
    },
    {
      "inputs": [],
      "name": "isRevealPhase",
      "outputs": [
        {
          "internalType": "bool",
          "name": "",
          "type": "bool"
        }
      ],
      "stateMutability": "view",
      "type": "function"
    },
    {
      "inputs": [],
      "name": "prizePool",
      "outputs": [
        {
          "internalType": "uint256",
          "name": "",
          "type": "uint256"
        }
      ],
      "stateMutability": "view",
      "type": "function"
    },
    {
      "inputs": [],
      "name": "retrieveDeposit",
      "outputs": [],
      "stateMutability": "nonpayable",
      "type": "function"
    },
    {
      "inputs": [
        {
          "internalType": "uint256",
          "name": "guess",
          "type": "uint256"
        },
        {
          "internalType": "uint256",
          "name": "salt",
          "type": "uint256"
        }
      ],
      "name": "reveal",
      "outputs": [],
      "stateMutability": "nonpayable",
      "type": "function"
    },
    {
      "inputs": [],
      "name": "revealDeadline",
      "outputs": [
        {
          "internalType": "uint256",
          "name": "",
          "type": "uint256"
        }
      ],
      "stateMutability": "view",
      "type": "function"
    },
    {
      "inputs": [],
      "name": "startRevealPhase",
      "outputs": [],
      "stateMutability": "nonpayable",
      "type": "function"
    },
    {
      "inputs": [],
      "name": "winner",
      "outputs": [
        {
          "internalType": "address payable",
          "name": "",
          "type": "address"
        }
      ],
      "stateMutability": "view",
      "type": "function"
    },
    {
      "inputs": [],
      "name": "withdrawServiceFee",
      "outputs": [],
      "stateMutability": "nonpayable",
      "type": "function"
    }
  ],
  "bytecode": "0x608060405234801561001057600080fd5b506141c2806100206000396000f3fe6080604052600436106101d85760003560e01c80639348cef711610102578063c6fd5d4e11610095578063dfbf53ae11610064578063dfbf53ae146106b4578063e6139021146106df578063f14fcbc8146106f6578063f437bc5914610712576101d8565b8063c6fd5d4e146105fa578063c7c4a61514610611578063cd6dc6871461064e578063dad3652114610677576101d8565b8063b14b28a3116100d1578063b14b28a31461052a578063b359f7b014610555578063b9a5301314610592578063c358ced0146105cf576101d8565b80639348cef71461046e578063984911be14610497578063a2ff0209146104c2578063a3a841b8146104ed576101d8565b80636cb4e6111161017a57806370740ac91161014957806370740ac9146103ea578063719ce73e14610401578063797642db1461042c578063849bb2db14610457576101d8565b80636cb4e611146103405780636cbc2ded1461036b5780636de1fea1146103825780636f2f6b39146103bf576101d8565b806320f6a775116101b657806320f6a775146102705780632dae1d21146102ad5780632f1f7520146102ea5780632f6fe39614610315576101d8565b8063072ea61c146101dd5780630803fac0146102085780631f49138914610233575b600080fd5b3480156101e957600080fd5b506101f261073d565b6040516101ff9190612d9a565b60405180910390f35b34801561021457600080fd5b5061021d610743565b60405161022a9190612dd0565b60405180910390f35b34801561023f57600080fd5b5061025a60048036038101906102559190612e1c565b610756565b6040516102679190612d9a565b60405180910390f35b34801561027c57600080fd5b5061029760048036038101906102929190612ea7565b61077a565b6040516102a49190612eed565b60405180910390f35b3480156102b957600080fd5b506102d460048036038101906102cf9190612f34565b610792565b6040516102e19190612f70565b60405180910390f35b3480156102f657600080fd5b506102ff6107c5565b60405161030c9190612d9a565b60405180910390f35b34801561032157600080fd5b5061032a610885565b6040516103379190612dd0565b60405180910390f35b34801561034c57600080fd5b50610355610898565b6040516103629190612dd0565b60405180910390f35b34801561037757600080fd5b506103806108ab565b005b34801561038e57600080fd5b506103a960048036038101906103a49190612ea7565b610f58565b6040516103b69190612dd0565b60405180910390f35b3480156103cb57600080fd5b506103d4610f78565b6040516103e19190612dd0565b60405180910390f35b3480156103f657600080fd5b506103ff610f8b565b005b34801561040d57600080fd5b506104166111cd565b6040516104239190612d9a565b60405180910390f35b34801561043857600080fd5b506104416111d3565b60405161044e9190612d9a565b60405180910390f35b34801561046357600080fd5b5061046c61128c565b005b34801561047a57600080fd5b5061049560048036038101906104909190612f8b565b6114cb565b005b3480156104a357600080fd5b506104ac6118c4565b6040516104b99190612d9a565b60405180910390f35b3480156104ce57600080fd5b506104d76118ca565b6040516104e49190612d9a565b60405180910390f35b3480156104f957600080fd5b50610514600480360381019061050f9190612f8b565b6118d0565b6040516105219190612f70565b60405180910390f35b34801561053657600080fd5b5061053f61191e565b60405161054c9190612d9a565b60405180910390f35b34801561056157600080fd5b5061057c60048036038101906105779190612e1c565b611924565b6040516105899190613089565b60405180910390f35b34801561059e57600080fd5b506105b960048036038101906105b49190612ea7565b6119c5565b6040516105c69190612dd0565b60405180910390f35b3480156105db57600080fd5b506105e46119e5565b6040516105f19190612dd0565b60405180910390f35b34801561060657600080fd5b5061060f6119f8565b005b34801561061d57600080fd5b5061063860048036038101906106339190612e1c565b611bcd565b6040516106459190612eed565b60405180910390f35b34801561065a57600080fd5b50610675600480360381019061067091906130ab565b611bf1565b005b34801561068357600080fd5b5061069e60048036038101906106999190612ea7565b611ece565b6040516106ab9190612dd0565b60405180910390f35b3480156106c057600080fd5b506106c9611eee565b6040516106d6919061310c565b60405180910390f35b3480156106eb57600080fd5b506106f4611f14565b005b610710600480360381019061070b9190612f34565b61219f565b005b34801561071e57600080fd5b50610727612558565b604051610734919061310c565b60405180910390f35b60035481565b601060019054906101000a900460ff1681565b600d818154811061076657600080fd5b906000526020600020016000915090505481565b60066020528060005260406000206000915090505481565b60076020528060005260406000206000915054906101000a900473ffffffffffffffffffffffffffffffffffffffff1681565b600080600b8054905067ffffffffffffffff8111156107e7576107e6613127565b5b6040519080825280602002602001820160405280156108155781602001602082028036833780820191505090505b50905060005b600b8054905081101561087c57600b818154811061083c5761083b613156565b5b906000526020600020015460001c82828151811061085d5761085c613156565b5b6020026020010181815250508080610874906131b4565b91505061081b565b50805191505090565b600560009054906101000a900460ff1681565b601060029054906101000a900460ff1681565b600b80549050600d8054905014806108c55750600f544210155b610904576040517f08c379a00000000000000000000000000000000000000000000000000000000081526004016108fb9061327f565b60405180910390fd5b60001515600560009054906101000a900460ff1615151461095a576040517f08c379a0000000000000000000000000000000000000000000000000000000008152600401610951906132eb565b60405180910390fd5b600f544210801561097057506003600d80549050105b156109b0576040517f08c379a00000000000000000000000000000000000000000000000000000000081526004016109a79061337d565b60405180910390fd5b6001600560006101000a81548160ff0219169083151502179055506003600d8054905010156109e6576002601281905550610f56565b600080600090505b600d80549050811015610a3a57600d8181548110610a0f57610a0e613156565b5b906000526020600020015482610a25919061339d565b91508080610a32906131b4565b9150506109ee565b50600d8054905081610a4c9190613400565b90506064604282610a5d9190613431565b610a679190613400565b9050610aa86040518060400160405280601381526020017f61766572616765206e756d6265722069733a20000000000000000000000000008152508261257c565b600d8054905067ffffffffffffffff811115610ac757610ac6613127565b5b604051908082528060200260200182016040528015610af55781602001602082028036833780820191505090505b50600c9080519060200190610b0b929190612d17565b5060005b600d80549050811015610bdc576000610b46600d8381548110610b3557610b34613156565b5b906000526020600020015484612618565b905080600c8381548110610b5d57610b5c613156565b5b9060005260206000200181905550610bc86040518060400160405280600781526020017f64696666733a2000000000000000000000000000000000000000000000000000815250600c8481548110610bb857610bb7613156565b5b906000526020600020015461257c565b508080610bd4906131b4565b915050610b0f565b50610c746040518060400160405280600e81526020017f736d616c6c657374206469663a20000000000000000000000000000000000000815250610c6f600c805480602002602001604051908101604052809291908181526020018280548015610c6557602002820191906000526020600020905b815481526020019060010190808311610c51575b5050505050612647565b61257c565b610cce600c805480602002602001604051908101604052809291908181526020018280548015610cc357602002820191906000526020600020905b815481526020019060010190808311610caf575b5050505050826126b8565b60016002805490501115610e7257610d5a6040518060400160405280601881526020017f656e6467616d655f206775657373544f416464726573733a00000000000000008152506002600081548110610d2a57610d29613156565b5b9060005260206000200160009054906101000a900473ffffffffffffffffffffffffffffffffffffffff16612998565b610dd86040518060400160405280601881526020017f656e6467616d655f206775657373544f416464726573733a00000000000000008152506002600181548110610da857610da7613156565b5b9060005260206000200160009054906101000a900473ffffffffffffffffffffffffffffffffffffffff16612998565b600060028054905042610deb9190613473565b905060028181548110610e0157610e00613156565b5b9060005260206000200160009054906101000a900473ffffffffffffffffffffffffffffffffffffffff16600160006101000a81548173ffffffffffffffffffffffffffffffffffffffff021916908373ffffffffffffffffffffffffffffffffffffffff16021790555050610ef3565b6002600081548110610e8757610e86613156565b5b9060005260206000200160009054906101000a900473ffffffffffffffffffffffffffffffffffffffff16600160006101000a81548173ffffffffffffffffffffffffffffffffffffffff021916908373ffffffffffffffffffffffffffffffffffffffff1602179055505b610f546040518060400160405280600b81526020017f77696e6e65722069733a20000000000000000000000000000000000000000000815250600160009054906101000a900473ffffffffffffffffffffffffffffffffffffffff16612998565b505b565b60116020528060005260406000206000915054906101000a900460ff1681565b601060039054906101000a900460ff1681565b600160009054906101000a900473ffffffffffffffffffffffffffffffffffffffff1673ffffffffffffffffffffffffffffffffffffffff163373ffffffffffffffffffffffffffffffffffffffff161461101b576040517f08c379a000000000000000000000000000000000000000000000000000000000815260040161101290613516565b60405180910390fd5b60011515600560009054906101000a900460ff16151514611071576040517f08c379a000000000000000000000000000000000000000000000000000000000815260040161106890613582565b60405180910390fd5b60001515601060039054906101000a900460ff161515146110c7576040517f08c379a00000000000000000000000000000000000000000000000000000000081526004016110be906135ee565b60405180910390fd5b6001601060036101000a81548160ff0219169083151502179055506000600160009054906101000a900473ffffffffffffffffffffffffffffffffffffffff1673ffffffffffffffffffffffffffffffffffffffff166064605a60045461112e9190613431565b6111389190613400565b6040516111449061363f565b60006040518083038185875af1925050503d8060008114611181576040519150601f19603f3d011682016040523d82523d6000602084013e611186565b606091505b50509050806111ca576040517f08c379a00000000000000000000000000000000000000000000000000000000081526004016111c1906136a0565b60405180910390fd5b50565b60045481565b600080600d8054905067ffffffffffffffff8111156111f5576111f4613127565b5b6040519080825280602002602001820160405280156112235781602001602082028036833780820191505090505b50905060005b600b805490508110156112835781818151811061124957611248613156565b5b602002602001015182828151811061126457611263613156565b5b602002602001018181525050808061127b906131b4565b915050611229565b50805191505090565b60008054906101000a900473ffffffffffffffffffffffffffffffffffffffff1673ffffffffffffffffffffffffffffffffffffffff163373ffffffffffffffffffffffffffffffffffffffff161461131a576040517f08c379a000000000000000000000000000000000000000000000000000000000815260040161131190613732565b60405180910390fd5b60011515600560009054906101000a900460ff16151514611370576040517f08c379a000000000000000000000000000000000000000000000000000000000815260040161136790613582565b60405180910390fd5b60001515601060029054906101000a900460ff161515146113c6576040517f08c379a00000000000000000000000000000000000000000000000000000000081526004016113bd906137c4565b60405180910390fd5b6001601060026101000a81548160ff02191690831515021790555060008060009054906101000a900473ffffffffffffffffffffffffffffffffffffffff1673ffffffffffffffffffffffffffffffffffffffff166064600a60045461142c9190613431565b6114369190613400565b6040516114429061363f565b60006040518083038185875af1925050503d806000811461147f576040519150601f19603f3d011682016040523d82523d6000602084013e611484565b606091505b50509050806114c8576040517f08c379a00000000000000000000000000000000000000000000000000000000081526004016114bf906136a0565b60405180910390fd5b50565b60001515600560009054906101000a900460ff16151514611521576040517f08c379a0000000000000000000000000000000000000000000000000000000008152600401611518906132eb565b60405180910390fd5b60011515600960003373ffffffffffffffffffffffffffffffffffffffff1673ffffffffffffffffffffffffffffffffffffffff16815260200190815260200160002060009054906101000a900460ff161515146115b4576040517f08c379a00000000000000000000000000000000000000000000000000000000081526004016115ab90613856565b60405180910390fd5b60001515600a60003373ffffffffffffffffffffffffffffffffffffffff1673ffffffffffffffffffffffffffffffffffffffff16815260200190815260200160002060009054906101000a900460ff16151514611647576040517f08c379a000000000000000000000000000000000000000000000000000000000815260040161163e906138c2565b60405180910390fd5b60011515601060009054906101000a900460ff1615151461169d576040517f08c379a00000000000000000000000000000000000000000000000000000000081526004016116949061392e565b60405180910390fd5b600660003373ffffffffffffffffffffffffffffffffffffffff1673ffffffffffffffffffffffffffffffffffffffff168152602001908152602001600020546116e683612a34565b6116ef83612a34565b6040516020016117009291906139bf565b6040516020818303038152906040528051906020012003611885576000821015801561172e57506103e88211155b1561182d5760086000838152602001908152602001600020339080600181540180825580915050600190039060005260206000200160009091909190916101000a81548173ffffffffffffffffffffffffffffffffffffffff021916908373ffffffffffffffffffffffffffffffffffffffff1602179055506001600a60003373ffffffffffffffffffffffffffffffffffffffff1673ffffffffffffffffffffffffffffffffffffffff16815260200190815260200160002060006101000a81548160ff021916908315150217905550600d829080600181540180825580915050600190039060005260206000200160009091909190915055611880565b6000821015801561184057506103e88211155b61187f576040517f08c379a000000000000000000000000000000000000000000000000000000000815260040161187690613a2f565b60405180910390fd5b5b6118c0565b6040517f08c379a00000000000000000000000000000000000000000000000000000000081526004016118b790613a9b565b60405180910390fd5b5050565b60125481565b600e5481565b600860205281600052604060002081815481106118ec57600080fd5b906000526020600020016000915091509054906101000a900473ffffffffffffffffffffffffffffffffffffffff1681565b600f5481565b6060600860008381526020019081526020016000208054806020026020016040519081016040528092919081815260200182805480156119b957602002820191906000526020600020905b8160009054906101000a900473ffffffffffffffffffffffffffffffffffffffff1673ffffffffffffffffffffffffffffffffffffffff168152602001906001019080831161196f575b50505050509050919050565b600a6020528060005260406000206000915054906101000a900460ff1681565b601060009054906101000a900460ff1681565b60008054906101000a900473ffffffffffffffffffffffffffffffffffffffff1673ffffffffffffffffffffffffffffffffffffffff163373ffffffffffffffffffffffffffffffffffffffff161480611a545750600e544210155b611a93576040517f08c379a0000000000000000000000000000000000000000000000000000000008152600401611a8a9061327f565b60405180910390fd5b60001515600560009054906101000a900460ff16151514611ae9576040517f08c379a0000000000000000000000000000000000000000000000000000000008152600401611ae0906132eb565b60405180910390fd5b6003600b805490501015611b32576040517f08c379a0000000000000000000000000000000000000000000000000000000008152600401611b2990613b2d565b60405180910390fd5b60001515601060009054906101000a900460ff16151514611b88576040517f08c379a0000000000000000000000000000000000000000000000000000000008152600401611b7f90613b99565b60405180910390fd5b600247611b959190613400565b6004819055506001601060006101000a81548160ff0219169083151502179055506201518042611bc5919061339d565b600f81905550565b600b8181548110611bdd57600080fd5b906000526020600020016000915090505481565b600073ffffffffffffffffffffffffffffffffffffffff168273ffffffffffffffffffffffffffffffffffffffff1603611c60576040517f08c379a0000000000000000000000000000000000000000000000000000000008152600401611c5790613c05565b60405180910390fd5b60008111611ca3576040517f08c379a0000000000000000000000000000000000000000000000000000000008152600401611c9a90613c71565b60405180910390fd5b60001515601060019054906101000a900460ff16151514611cf9576040517f08c379a0000000000000000000000000000000000000000000000000000000008152600401611cf090613d03565b60405180910390fd5b6001601060016101000a81548160ff021916908315150217905550816000806101000a81548173ffffffffffffffffffffffffffffffffffffffff021916908373ffffffffffffffffffffffffffffffffffffffff16021790555080600381905550611d9c6040518060400160405280600381526020017f6f6c61000000000000000000000000000000000000000000000000000000000081525060035461257c565b6000601060006101000a81548160ff0219169083151502179055506000600560006101000a81548160ff0219169083151502179055506000601060026101000a81548160ff0219169083151502179055506000601060036101000a81548160ff02191690831515021790555060016012819055506201518042611e1f919061339d565b600e81905550611e496040518060600160405280602781526020016141446027913960035461257c565b611e8b60405180606001604052806022815260200161416b6022913960008054906101000a900473ffffffffffffffffffffffffffffffffffffffff16612998565b611eca6040518060400160405280601681526020017f4465706c6f79696e67206f6e20616464726573733a200000000000000000000081525030612998565b5050565b60096020528060005260406000206000915054906101000a900460ff1681565b600160009054906101000a900473ffffffffffffffffffffffffffffffffffffffff1681565b600a60003373ffffffffffffffffffffffffffffffffffffffff1673ffffffffffffffffffffffffffffffffffffffff16815260200190815260200160002060009054906101000a900460ff16611fa0576040517f08c379a0000000000000000000000000000000000000000000000000000000008152600401611f9790613d95565b60405180910390fd5b60011515600560009054906101000a900460ff16151514611ff6576040517f08c379a0000000000000000000000000000000000000000000000000000000008152600401611fed90613582565b60405180910390fd5b60001515601160003373ffffffffffffffffffffffffffffffffffffffff1673ffffffffffffffffffffffffffffffffffffffff16815260200190815260200160002060009054906101000a900460ff16151514612089576040517f08c379a000000000000000000000000000000000000000000000000000000000815260040161208090613e27565b60405180910390fd5b6001601160003373ffffffffffffffffffffffffffffffffffffffff1673ffffffffffffffffffffffffffffffffffffffff16815260200190815260200160002060006101000a81548160ff02191690831515021790555060003373ffffffffffffffffffffffffffffffffffffffff1660125460035461210a9190613431565b6040516121169061363f565b60006040518083038185875af1925050503d8060008114612153576040519150601f19603f3d011682016040523d82523d6000602084013e612158565b606091505b505090508061219c576040517f08c379a0000000000000000000000000000000000000000000000000000000008152600401612193906136a0565b60405180910390fd5b50565b60026003546121ae9190613431565b34146121ef576040517f08c379a00000000000000000000000000000000000000000000000000000000081526004016121e690613eb9565b60405180910390fd5b60008054906101000a900473ffffffffffffffffffffffffffffffffffffffff1673ffffffffffffffffffffffffffffffffffffffff163373ffffffffffffffffffffffffffffffffffffffff160361227d576040517f08c379a000000000000000000000000000000000000000000000000000000000815260040161227490613f25565b60405180910390fd5b60001515600960003373ffffffffffffffffffffffffffffffffffffffff1673ffffffffffffffffffffffffffffffffffffffff16815260200190815260200160002060009054906101000a900460ff16151514612310576040517f08c379a000000000000000000000000000000000000000000000000000000000815260040161230790613fb7565b60405180910390fd5b60001515600560009054906101000a900460ff16151514612366576040517f08c379a000000000000000000000000000000000000000000000000000000000815260040161235d906132eb565b60405180910390fd5b600e5442106123aa576040517f08c379a00000000000000000000000000000000000000000000000000000000081526004016123a190614023565b60405180910390fd5b60001515601060009054906101000a900460ff16151514612400576040517f08c379a00000000000000000000000000000000000000000000000000000000081526004016123f790613b99565b60405180910390fd5b61243e6040518060400160405280600381526020017f4f6c610000000000000000000000000000000000000000000000000000000000815250612b02565b80600660003373ffffffffffffffffffffffffffffffffffffffff1673ffffffffffffffffffffffffffffffffffffffff16815260200190815260200160002081905550336007600083815260200190815260200160002060006101000a81548173ffffffffffffffffffffffffffffffffffffffff021916908373ffffffffffffffffffffffffffffffffffffffff1602179055506001600960003373ffffffffffffffffffffffffffffffffffffffff1673ffffffffffffffffffffffffffffffffffffffff16815260200190815260200160002060006101000a81548160ff021916908315150217905550600b81908060018154018082558091505060019003906000526020600020016000909190919091505550565b60008054906101000a900473ffffffffffffffffffffffffffffffffffffffff1681565b612614828260405160240161259292919061408d565b6040516020818303038152906040527fb60e72cc000000000000000000000000000000000000000000000000000000007bffffffffffffffffffffffffffffffffffffffffffffffffffffffff19166020820180517bffffffffffffffffffffffffffffffffffffffffffffffffffffffff8381831617835250505050612b9b565b5050565b600081831161263257828261262d91906140bd565b61263f565b818361263e91906140bd565b5b905092915050565b6000806103e8905060005b83518110156126ae5783818151811061266e5761266d613156565b5b602002602001015182111561269b578381815181106126905761268f613156565b5b602002602001015191505b80806126a6906131b4565b915050612652565b8192505050919050565b60005b600d8054905081101561299357600d81815481106126dc576126db613156565b5b90600052602060002001546126f084612647565b836126fb919061339d565b036128245760005b60086000600d848154811061271b5761271a613156565b5b906000526020600020015481526020019081526020016000208054905081101561282257600260086000600d858154811061275957612758613156565b5b90600052602060002001548152602001908152602001600020828154811061278457612783613156565b5b9060005260206000200160009054906101000a900473ffffffffffffffffffffffffffffffffffffffff169080600181540180825580915050600190039060005260206000200160009091909190916101000a81548173ffffffffffffffffffffffffffffffffffffffff021916908373ffffffffffffffffffffffffffffffffffffffff160217905550808061281a906131b4565b915050612703565b505b600d818154811061283857612837613156565b5b906000526020600020015461284c84612647565b8361285791906140bd565b036129805760005b60086000600d848154811061287757612876613156565b5b906000526020600020015481526020019081526020016000208054905081101561297e57600260086000600d85815481106128b5576128b4613156565b5b9060005260206000200154815260200190815260200160002082815481106128e0576128df613156565b5b9060005260206000200160009054906101000a900473ffffffffffffffffffffffffffffffffffffffff169080600181540180825580915050600190039060005260206000200160009091909190916101000a81548173ffffffffffffffffffffffffffffffffffffffff021916908373ffffffffffffffffffffffffffffffffffffffff1602179055508080612976906131b4565b91505061285f565b505b808061298b906131b4565b9150506126bb565b505050565b612a3082826040516024016129ae9291906140f1565b6040516020818303038152906040527f319af333000000000000000000000000000000000000000000000000000000007bffffffffffffffffffffffffffffffffffffffffffffffffffffffff19166020820180517bffffffffffffffffffffffffffffffffffffffffffffffffffffffff8381831617835250505050612b9b565b5050565b606060006001612a4384612bc4565b01905060008167ffffffffffffffff811115612a6257612a61613127565b5b6040519080825280601f01601f191660200182016040528015612a945781602001600182028036833780820191505090505b509050600082602001820190505b600115612af7578080600190039150507f3031323334353637383961626364656600000000000000000000000000000000600a86061a8153600a8581612aeb57612aea6133d1565b5b04945060008503612aa2575b819350505050919050565b612b9881604051602401612b169190614121565b6040516020818303038152906040527f41304fac000000000000000000000000000000000000000000000000000000007bffffffffffffffffffffffffffffffffffffffffffffffffffffffff19166020820180517bffffffffffffffffffffffffffffffffffffffffffffffffffffffff8381831617835250505050612b9b565b50565b60008151905060006a636f6e736f6c652e6c6f679050602083016000808483855afa5050505050565b600080600090507a184f03e93ff9f4daa797ed6e38ed64bf6a1f0100000000000000008310612c22577a184f03e93ff9f4daa797ed6e38ed64bf6a1f0100000000000000008381612c1857612c176133d1565b5b0492506040810190505b6d04ee2d6d415b85acef81000000008310612c5f576d04ee2d6d415b85acef81000000008381612c5557612c546133d1565b5b0492506020810190505b662386f26fc100008310612c8e57662386f26fc100008381612c8457612c836133d1565b5b0492506010810190505b6305f5e1008310612cb7576305f5e1008381612cad57612cac6133d1565b5b0492506008810190505b6127108310612cdc576127108381612cd257612cd16133d1565b5b0492506004810190505b60648310612cff5760648381612cf557612cf46133d1565b5b0492506002810190505b600a8310612d0e576001810190505b80915050919050565b828054828255906000526020600020908101928215612d53579160200282015b82811115612d52578251825591602001919060010190612d37565b5b509050612d609190612d64565b5090565b5b80821115612d7d576000816000905550600101612d65565b5090565b6000819050919050565b612d9481612d81565b82525050565b6000602082019050612daf6000830184612d8b565b92915050565b60008115159050919050565b612dca81612db5565b82525050565b6000602082019050612de56000830184612dc1565b92915050565b600080fd5b612df981612d81565b8114612e0457600080fd5b50565b600081359050612e1681612df0565b92915050565b600060208284031215612e3257612e31612deb565b5b6000612e4084828501612e07565b91505092915050565b600073ffffffffffffffffffffffffffffffffffffffff82169050919050565b6000612e7482612e49565b9050919050565b612e8481612e69565b8114612e8f57600080fd5b50565b600081359050612ea181612e7b565b92915050565b600060208284031215612ebd57612ebc612deb565b5b6000612ecb84828501612e92565b91505092915050565b6000819050919050565b612ee781612ed4565b82525050565b6000602082019050612f026000830184612ede565b92915050565b612f1181612ed4565b8114612f1c57600080fd5b50565b600081359050612f2e81612f08565b92915050565b600060208284031215612f4a57612f49612deb565b5b6000612f5884828501612f1f565b91505092915050565b612f6a81612e69565b82525050565b6000602082019050612f856000830184612f61565b92915050565b60008060408385031215612fa257612fa1612deb565b5b6000612fb085828601612e07565b9250506020612fc185828601612e07565b9150509250929050565b600081519050919050565b600082825260208201905092915050565b6000819050602082019050919050565b61300081612e69565b82525050565b60006130128383612ff7565b60208301905092915050565b6000602082019050919050565b600061303682612fcb565b6130408185612fd6565b935061304b83612fe7565b8060005b8381101561307c5781516130638882613006565b975061306e8361301e565b92505060018101905061304f565b5085935050505092915050565b600060208201905081810360008301526130a3818461302b565b905092915050565b600080604083850312156130c2576130c1612deb565b5b60006130d085828601612e92565b92505060206130e185828601612e07565b9150509250929050565b60006130f682612e49565b9050919050565b613106816130eb565b82525050565b600060208201905061312160008301846130fd565b92915050565b7f4e487b7100000000000000000000000000000000000000000000000000000000600052604160045260246000fd5b7f4e487b7100000000000000000000000000000000000000000000000000000000600052603260045260246000fd5b7f4e487b7100000000000000000000000000000000000000000000000000000000600052601160045260246000fd5b60006131bf82612d81565b91507fffffffffffffffffffffffffffffffffffffffffffffffffffffffffffffffff82036131f1576131f0613185565b5b600182019050919050565b600082825260208201905092915050565b7f323420686f7572732068617665206e6f742070617373656420796574206f722060008201527f796f7520617265206e6f742074686520686f7374000000000000000000000000602082015250565b60006132696034836131fc565b91506132748261320d565b604082019050919050565b600060208201905081810360008301526132988161325c565b9050919050565b7f47616d652068617320616c726561647920656e64656400000000000000000000600082015250565b60006132d56016836131fc565b91506132e08261329f565b602082019050919050565b60006020820190508181036000830152613304816132c8565b9050919050565b7f5761697420756e74696c206174206c6561737420332070656f706c652068617660008201527f6520656e74657265642067756573736573000000000000000000000000000000602082015250565b60006133676031836131fc565b91506133728261330b565b604082019050919050565b600060208201905081810360008301526133968161335a565b9050919050565b60006133a882612d81565b91506133b383612d81565b92508282019050808211156133cb576133ca613185565b5b92915050565b7f4e487b7100000000000000000000000000000000000000000000000000000000600052601260045260246000fd5b600061340b82612d81565b915061341683612d81565b925082613426576134256133d1565b5b828204905092915050565b600061343c82612d81565b915061344783612d81565b925082820261345581612d81565b9150828204841483151761346c5761346b613185565b5b5092915050565b600061347e82612d81565b915061348983612d81565b925082613499576134986133d1565b5b828206905092915050565b7f4f6e6c79207468652077696e6e65722063616e20636c61696d2074686520707260008201527f697a650000000000000000000000000000000000000000000000000000000000602082015250565b60006135006023836131fc565b915061350b826134a4565b604082019050919050565b6000602082019050818103600083015261352f816134f3565b9050919050565b7f47616d6520686173206e6f7420656e6465642079657400000000000000000000600082015250565b600061356c6016836131fc565b915061357782613536565b602082019050919050565b6000602082019050818103600083015261359b8161355f565b9050919050565b7f5072697a652068617320616c7265616479206265656e20636c61696d65640000600082015250565b60006135d8601e836131fc565b91506135e3826135a2565b602082019050919050565b60006020820190508181036000830152613607816135cb565b9050919050565b600081905092915050565b50565b600061362960008361360e565b915061363482613619565b600082019050919050565b600061364a8261361c565b9150819050919050565b7f4661696c656420746f2073656e64204574686572000000000000000000000000600082015250565b600061368a6014836131fc565b915061369582613654565b602082019050919050565b600060208201905081810360008301526136b98161367d565b9050919050565b7f4f6e6c792074686520686f73742063616e20776974686472617720457468657260008201527f2066726f6d205365727669636520466565000000000000000000000000000000602082015250565b600061371c6031836131fc565b9150613727826136c0565b604082019050919050565b6000602082019050818103600083015261374b8161370f565b9050919050565b7f53657276696365206665652068617320616c7265616479206265656e2077697460008201527f68647261776e0000000000000000000000000000000000000000000000000000602082015250565b60006137ae6026836131fc565b91506137b982613752565b604082019050919050565b600060208201905081810360008301526137dd816137a1565b9050919050565b7f506c6179657220686173206e6f7420636f6d6d6974656420736f6d657468696e60008201527f6700000000000000000000000000000000000000000000000000000000000000602082015250565b60006138406021836131fc565b915061384b826137e4565b604082019050919050565b6000602082019050818103600083015261386f81613833565b9050919050565b7f506c617965722068617320616c72656164792072657665616c65640000000000600082015250565b60006138ac601b836131fc565b91506138b782613876565b602082019050919050565b600060208201905081810360008301526138db8161389f565b9050919050565b7f52657665616c20706861736520686173206e6f74207374617274656420796574600082015250565b60006139186020836131fc565b9150613923826138e2565b602082019050919050565b600060208201905081810360008301526139478161390b565b9050919050565b600081519050919050565b600081905092915050565b60005b83811015613982578082015181840152602081019050613967565b60008484015250505050565b60006139998261394e565b6139a38185613959565b93506139b3818560208601613964565b80840191505092915050565b60006139cb828561398e565b91506139d7828461398e565b91508190509392505050565b7f4775657373206d757374206265206265747765656e203020616e642031303030600082015250565b6000613a196020836131fc565b9150613a24826139e3565b602082019050919050565b60006020820190508181036000830152613a4881613a0c565b9050919050565b7f477565737320646f6573206e6f74206d6174636820636f6d6d69740000000000600082015250565b6000613a85601b836131fc565b9150613a9082613a4f565b602082019050919050565b60006020820190508181036000830152613ab481613a78565b9050919050565b7f5761697420756e74696c206174206c6561737420332070656f706c652068617660008201527f6520656e746572656420636f6d6d697473000000000000000000000000000000602082015250565b6000613b176031836131fc565b9150613b2282613abb565b604082019050919050565b60006020820190508181036000830152613b4681613b0a565b9050919050565b7f52657665616c2070686173652068617320616c72656164792073746172746564600082015250565b6000613b836020836131fc565b9150613b8e82613b4d565b602082019050919050565b60006020820190508181036000830152613bb281613b76565b9050919050565b7f496e76616c6964206f776e657220616464726573730000000000000000000000600082015250565b6000613bef6015836131fc565b9150613bfa82613bb9565b602082019050919050565b60006020820190508181036000830152613c1e81613be2565b9050919050565b7f496e76616c69642066656520616d6f756e740000000000000000000000000000600082015250565b6000613c5b6012836131fc565b9150613c6682613c25565b602082019050919050565b60006020820190508181036000830152613c8a81613c4e565b9050919050565b7f47616d652068617320616c7265616479206265656e20696e697469616c697a6560008201527f6400000000000000000000000000000000000000000000000000000000000000602082015250565b6000613ced6021836131fc565b9150613cf882613c91565b604082019050919050565b60006020820190508181036000830152613d1c81613ce0565b9050919050565b7f4f6e6c7920706c61796572732077686f20686176652072657665616c6564206360008201527f616e207265747269657665207468656972206465706f73697400000000000000602082015250565b6000613d7f6039836131fc565b9150613d8a82613d23565b604082019050919050565b60006020820190508181036000830152613dae81613d72565b9050919050565b7f4465706f7369742068617320616c7265616479206265656e207265747269657660008201527f6564000000000000000000000000000000000000000000000000000000000000602082015250565b6000613e116022836131fc565b9150613e1c82613db5565b604082019050919050565b60006020820190508181036000830152613e4081613e04565b9050919050565b7f496e636f72726563742066656520616d6f756e742c206e65656420746f20736560008201527f6e642032782074686520656e7472792066656500000000000000000000000000602082015250565b6000613ea36033836131fc565b9150613eae82613e47565b604082019050919050565b60006020820190508181036000830152613ed281613e96565b9050919050565b7f486f73742063616e6e6f7420656e746572206120677565737300000000000000600082015250565b6000613f0f6019836131fc565b9150613f1a82613ed9565b602082019050919050565b60006020820190508181036000830152613f3e81613f02565b9050919050565b7f506c617965722068617320616c726561647920656e746572656420612067756560008201527f7373000000000000000000000000000000000000000000000000000000000000602082015250565b6000613fa16022836131fc565b9150613fac82613f45565b604082019050919050565b60006020820190508181036000830152613fd081613f94565b9050919050565b7f47616d6520646561646c696e6520686173207061737365640000000000000000600082015250565b600061400d6018836131fc565b915061401882613fd7565b602082019050919050565b6000602082019050818103600083015261403c81614000565b9050919050565b6000601f19601f8301169050919050565b600061405f8261394e565b61406981856131fc565b9350614079818560208601613964565b61408281614043565b840191505092915050565b600060408201905081810360008301526140a78185614054565b90506140b66020830184612d8b565b9392505050565b60006140c882612d81565b91506140d383612d81565b92508282039050818111156140eb576140ea613185565b5b92915050565b6000604082019050818103600083015261410b8185614054565b905061411a6020830184612f61565b9392505050565b6000602082019050818103600083015261413b8184614054565b90509291505056fe4465706c6f79696e67204775657373696e6747616d65207769746820656e747279206665653a204465706c6f79696e67204775657373696e6747616d65207769746820686f73743a20a264697066735822122034734b657659e91e53fb48072d3f5011156a9d0e98e7434a94b073e3a4282bfa64736f6c63430008120033",
  "linkReferences": {},
  "deployedLinkReferences": {}
}