{
  "_format": "hh-sol-artifact-1",
  "contractName": "GuessingGame",
  "sourceName": "contracts/GuessingGame.sol",
  "abi": [
    {
      "inputs": [],
      "name": "endGame",
      "outputs": [],
      "stateMutability": "nonpayable",
      "type": "function"
    },
    {
      "inputs": [],
      "name": "entryFee",
      "outputs": [
        {
          "internalType": "uint256",
          "name": "",
          "type": "uint256"
        }
      ],
      "stateMutability": "view",
      "type": "function"
    },
    {
      "inputs": [],
      "name": "gameCreationTime",
      "outputs": [
        {
          "internalType": "uint256",
          "name": "",
          "type": "uint256"
        }
      ],
      "stateMutability": "view",
      "type": "function"
    },
    {
      "inputs": [],
      "name": "gameDeadline",
      "outputs": [
        {
          "internalType": "uint256",
          "name": "",
          "type": "uint256"
        }
      ],
      "stateMutability": "view",
      "type": "function"
    },
    {
      "inputs": [],
      "name": "gameEnded",
      "outputs": [
        {
          "internalType": "bool",
          "name": "",
          "type": "bool"
        }
      ],
      "stateMutability": "view",
      "type": "function"
    },
    {
      "inputs": [
        {
          "internalType": "uint256",
          "name": "number",
          "type": "uint256"
        }
      ],
      "name": "getAddressByGuess",
      "outputs": [
        {
          "internalType": "address[]",
          "name": "",
          "type": "address[]"
        }
      ],
      "stateMutability": "view",
      "type": "function"
    },
    {
      "inputs": [
        {
          "internalType": "uint256",
          "name": "_guess",
          "type": "uint256"
        }
      ],
      "name": "guess",
      "outputs": [],
      "stateMutability": "payable",
      "type": "function"
    },
    {
      "inputs": [
        {
          "internalType": "uint256",
          "name": "",
          "type": "uint256"
        },
        {
          "internalType": "uint256",
          "name": "",
          "type": "uint256"
        }
      ],
      "name": "guessToAddress",
      "outputs": [
        {
          "internalType": "address",
          "name": "",
          "type": "address"
        }
      ],
      "stateMutability": "view",
      "type": "function"
    },
    {
      "inputs": [
        {
          "internalType": "uint256",
          "name": "",
          "type": "uint256"
        }
      ],
      "name": "guesses",
      "outputs": [
        {
          "internalType": "uint256",
          "name": "",
          "type": "uint256"
        }
      ],
      "stateMutability": "view",
      "type": "function"
    },
    {
      "inputs": [
        {
          "internalType": "address",
          "name": "",
          "type": "address"
        }
      ],
      "name": "hasEntered",
      "outputs": [
        {
          "internalType": "bool",
          "name": "",
          "type": "bool"
        }
      ],
      "stateMutability": "view",
      "type": "function"
    },
    {
      "inputs": [],
      "name": "hasInitialized",
      "outputs": [
        {
          "internalType": "bool",
          "name": "",
          "type": "bool"
        }
      ],
      "stateMutability": "view",
      "type": "function"
    },
    {
      "inputs": [],
      "name": "host",
      "outputs": [
        {
          "internalType": "address payable",
          "name": "",
          "type": "address"
        }
      ],
      "stateMutability": "view",
      "type": "function"
    },
    {
      "inputs": [
        {
          "internalType": "address",
          "name": "_owner",
          "type": "address"
        },
        {
          "internalType": "uint256",
          "name": "_feeAmount",
          "type": "uint256"
        }
      ],
      "name": "initialize",
      "outputs": [],
      "stateMutability": "nonpayable",
      "type": "function"
    },
    {
      "inputs": [
        {
          "internalType": "address",
          "name": "_winner",
          "type": "address"
        }
      ],
      "name": "transfer",
      "outputs": [],
      "stateMutability": "nonpayable",
      "type": "function"
    },
    {
      "inputs": [],
      "name": "winner",
      "outputs": [
        {
          "internalType": "address payable",
          "name": "",
          "type": "address"
        }
      ],
      "stateMutability": "view",
      "type": "function"
    },
    {
      "inputs": [],
      "name": "withdraw",
      "outputs": [],
      "stateMutability": "nonpayable",
      "type": "function"
    }
  ],
  "bytecode": "0x608060405234801561001057600080fd5b50612903806100206000396000f3fe6080604052600436106100f35760003560e01c80638924ff3c1161008a578063b480c8d811610059578063b480c8d81461030b578063cd6dc68714610336578063dfbf53ae1461035f578063f437bc591461038a576100f3565b80638924ff3c1461024a5780639189fec114610275578063a3a841b814610291578063b359f7b0146102ce576100f3565b806324d70dea116100c657806324d70dea146101b45780632f6fe396146101f15780633ccfd60b1461021c5780636cbc2ded14610233576100f3565b8063072ea61c146100f85780630803fac0146101235780631a6952301461014e5780631f49138914610177575b600080fd5b34801561010457600080fd5b5061010d6103b5565b60405161011a9190611bc2565b60405180910390f35b34801561012f57600080fd5b506101386103bb565b6040516101459190611bf8565b60405180910390f35b34801561015a57600080fd5b5061017560048036038101906101709190611c76565b6103ce565b005b34801561018357600080fd5b5061019e60048036038101906101999190611ccf565b610610565b6040516101ab9190611bc2565b60405180910390f35b3480156101c057600080fd5b506101db60048036038101906101d69190611c76565b610634565b6040516101e89190611bf8565b60405180910390f35b3480156101fd57600080fd5b50610206610654565b6040516102139190611bf8565b60405180910390f35b34801561022857600080fd5b50610231610667565b005b34801561023f57600080fd5b50610248610833565b005b34801561025657600080fd5b5061025f6110bf565b60405161026c9190611bc2565b60405180910390f35b61028f600480360381019061028a9190611ccf565b6110c5565b005b34801561029d57600080fd5b506102b860048036038101906102b39190611cfc565b6114c9565b6040516102c59190611d4b565b60405180910390f35b3480156102da57600080fd5b506102f560048036038101906102f09190611ccf565b611517565b6040516103029190611e24565b60405180910390f35b34801561031757600080fd5b506103206115b8565b60405161032d9190611bc2565b60405180910390f35b34801561034257600080fd5b5061035d60048036038101906103589190611e46565b6115be565b005b34801561036b57600080fd5b506103746117c2565b6040516103819190611ea7565b60405180910390f35b34801561039657600080fd5b5061039f6117e8565b6040516103ac9190611ea7565b60405180910390f35b60025481565b600360019054906101000a900460ff1681565b60008054906101000a900473ffffffffffffffffffffffffffffffffffffffff1673ffffffffffffffffffffffffffffffffffffffff163373ffffffffffffffffffffffffffffffffffffffff1614806104755750600160009054906101000a900473ffffffffffffffffffffffffffffffffffffffff1673ffffffffffffffffffffffffffffffffffffffff163373ffffffffffffffffffffffffffffffffffffffff16145b6104b4576040517f08c379a00000000000000000000000000000000000000000000000000000000081526004016104ab90611f45565b60405180910390fd5b60011515600360009054906101000a900460ff1615151461050a576040517f08c379a000000000000000000000000000000000000000000000000000000000815260040161050190611fb1565b60405180910390fd5b6105486040518060400160405280600481526020017f746573740000000000000000000000000000000000000000000000000000000081525061180c565b60008173ffffffffffffffffffffffffffffffffffffffff166064605a476105709190612000565b61057a9190612071565b604051610586906120d3565b60006040518083038185875af1925050503d80600081146105c3576040519150601f19603f3d011682016040523d82523d6000602084013e6105c8565b606091505b505090508061060c576040517f08c379a000000000000000000000000000000000000000000000000000000000815260040161060390612134565b60405180910390fd5b5050565b6006818154811061062057600080fd5b906000526020600020016000915090505481565b60056020528060005260406000206000915054906101000a900460ff1681565b600360009054906101000a900460ff1681565b60008054906101000a900473ffffffffffffffffffffffffffffffffffffffff1673ffffffffffffffffffffffffffffffffffffffff163373ffffffffffffffffffffffffffffffffffffffff16146106f5576040517f08c379a00000000000000000000000000000000000000000000000000000000081526004016106ec906121a0565b60405180910390fd5b60011515600360009054906101000a900460ff1615151461074b576040517f08c379a000000000000000000000000000000000000000000000000000000000815260040161074290611fb1565b60405180910390fd5b60008060009054906101000a900473ffffffffffffffffffffffffffffffffffffffff1673ffffffffffffffffffffffffffffffffffffffff166064600a476107949190612000565b61079e9190612071565b6040516107aa906120d3565b60006040518083038185875af1925050503d80600081146107e7576040519150601f19603f3d011682016040523d82523d6000602084013e6107ec565b606091505b5050905080610830576040517f08c379a000000000000000000000000000000000000000000000000000000000815260040161082790612134565b60405180910390fd5b50565b6003600680549050101561087c576040517f08c379a00000000000000000000000000000000000000000000000000000000081526004016108739061220c565b60405180910390fd5b60011515600560003373ffffffffffffffffffffffffffffffffffffffff1673ffffffffffffffffffffffffffffffffffffffff16815260200190815260200160002060009054906101000a900460ff1615151461090f576040517f08c379a000000000000000000000000000000000000000000000000000000000815260040161090690612278565b60405180910390fd5b60001515600360009054906101000a900460ff16151514610965576040517f08c379a000000000000000000000000000000000000000000000000000000000815260040161095c906122e4565b60405180910390fd5b6001600360006101000a81548160ff021916908315150217905550600080600090505b6006805490508110156109d457600681815481106109a9576109a8612304565b5b9060005260206000200154826109bf9190612333565b915080806109cc90612367565b915050610988565b50600680549050816109e69190612071565b905060646042826109f79190612000565b610a019190612071565b9050610a426040518060400160405280601381526020017f61766572616765206e756d6265722069733a2000000000000000000000000000815250826118a5565b60068054905067ffffffffffffffff811115610a6157610a606123af565b5b604051908082528060200260200182016040528015610a8f5781602001602082028036833780820191505090505b5060079080519060200190610aa5929190611b3f565b5060005b600680549050811015610b19576000610ae060068381548110610acf57610ace612304565b5b906000526020600020015484611941565b90508060078381548110610af757610af6612304565b5b9060005260206000200181905550508080610b1190612367565b915050610aa9565b50610b7b610b766007805480602002602001604051908101604052809291908181526020018280548015610b6c57602002820191906000526020600020905b815481526020019060010190808311610b58575b5050505050611970565b6119e1565b600081610bd76007805480602002602001604051908101604052809291908181526020018280548015610bcd57602002820191906000526020600020905b815481526020019060010190808311610bb9575b5050505050611970565b610be19190612333565b9050610c226040518060400160405280601381526020017f77696e6e696e67206e756d6265722069733a2000000000000000000000000000815250826118a5565b600060046000838152602001908152602001600020805480602002602001604051908101604052809291908181526020018280548015610cb757602002820191906000526020600020905b8160009054906101000a900473ffffffffffffffffffffffffffffffffffffffff1673ffffffffffffffffffffffffffffffffffffffff1681526020019060010190808311610c6d575b50505050509050600160046000848152602001908152602001600020805490501115610e5d57610d3f6040518060400160405280601881526020017f656e6467616d655f206775657373544f416464726573733a0000000000000000815250610d1f84611517565b600081518110610d3257610d31612304565b5b6020026020010151611a7a565b610da16040518060400160405280601881526020017f656e6467616d655f206775657373544f416464726573733a0000000000000000815250610d8184611517565b600181518110610d9457610d93612304565b5b6020026020010151611a7a565b6000600460008481526020019081526020016000208054905042610dc591906123de565b9050600460008481526020019081526020016000208181548110610dec57610deb612304565b5b9060005260206000200160009054906101000a900473ffffffffffffffffffffffffffffffffffffffff16600160006101000a81548173ffffffffffffffffffffffffffffffffffffffff021916908373ffffffffffffffffffffffffffffffffffffffff16021790555050610eba565b80600081518110610e7157610e70612304565b5b6020026020010151600160006101000a81548173ffffffffffffffffffffffffffffffffffffffff021916908373ffffffffffffffffffffffffffffffffffffffff1602179055505b610f1b6040518060400160405280600b81526020017f77696e6e65722069733a20000000000000000000000000000000000000000000815250600160009054906101000a900473ffffffffffffffffffffffffffffffffffffffff16611a7a565b610f5a6040518060400160405280601381526020017f436f6e7472616374732062616c616e63653a2000000000000000000000000000815250476118a5565b610f85600160009054906101000a900473ffffffffffffffffffffffffffffffffffffffff166103ce565b610f8d610667565b610fcc6040518060400160405280601381526020017f436f6e7472616374732062616c616e63653a2000000000000000000000000000815250476118a5565b6110446040518060400160405280601181526020017f57696e6e6572732062616c616e63653a20000000000000000000000000000000815250600160009054906101000a900473ffffffffffffffffffffffffffffffffffffffff1673ffffffffffffffffffffffffffffffffffffffff16316118a5565b6110ba6040518060400160405280600f81526020017f486f7374732062616c616e63653a20000000000000000000000000000000000081525060008054906101000a900473ffffffffffffffffffffffffffffffffffffffff1673ffffffffffffffffffffffffffffffffffffffff16316118a5565b505050565b60085481565b6002543414611109576040517f08c379a00000000000000000000000000000000000000000000000000000000081526004016111009061245b565b60405180910390fd5b60001515600560003373ffffffffffffffffffffffffffffffffffffffff1673ffffffffffffffffffffffffffffffffffffffff16815260200190815260200160002060009054906101000a900460ff1615151461119c576040517f08c379a0000000000000000000000000000000000000000000000000000000008152600401611193906124ed565b60405180910390fd5b6103e881111580156111af575060008110155b6111ee576040517f08c379a00000000000000000000000000000000000000000000000000000000081526004016111e590612559565b60405180910390fd5b60001515600360009054906101000a900460ff16151514611244576040517f08c379a000000000000000000000000000000000000000000000000000000000815260040161123b906122e4565b60405180910390fd5b6008544210611288576040517f08c379a000000000000000000000000000000000000000000000000000000000815260040161127f906125c5565b60405180910390fd5b60046000828152602001908152602001600020339080600181540180825580915050600190039060005260206000200160009091909190916101000a81548173ffffffffffffffffffffffffffffffffffffffff021916908373ffffffffffffffffffffffffffffffffffffffff1602179055506001600560003373ffffffffffffffffffffffffffffffffffffffff1673ffffffffffffffffffffffffffffffffffffffff16815260200190815260200160002060006101000a81548160ff02191690831515021790555060068190806001815401808255809150506001900390600052602060002001600090919091909150556113bc6040518060400160405280600681526020017f67756573733a0000000000000000000000000000000000000000000000000000815250826118a5565b6001600460008381526020019081526020016000208054905011156114635761145e6040518060400160405280600f81526020017f6775657373544f416464726573733a000000000000000000000000000000000081525061141d83611517565b6001600460008681526020019081526020016000208054905061144091906125e5565b8151811061145157611450612304565b5b6020026020010151611a7a565b6114c6565b6114c56040518060400160405280600f81526020017f6775657373544f416464726573733a00000000000000000000000000000000008152506114a583611517565b6000815181106114b8576114b7612304565b5b6020026020010151611a7a565b5b50565b600460205281600052604060002081815481106114e557600080fd5b906000526020600020016000915091509054906101000a900473ffffffffffffffffffffffffffffffffffffffff1681565b6060600460008381526020019081526020016000208054806020026020016040519081016040528092919081815260200182805480156115ac57602002820191906000526020600020905b8160009054906101000a900473ffffffffffffffffffffffffffffffffffffffff1673ffffffffffffffffffffffffffffffffffffffff1681526020019060010190808311611562575b50505050509050919050565b60095481565b600073ffffffffffffffffffffffffffffffffffffffff168273ffffffffffffffffffffffffffffffffffffffff160361162d576040517f08c379a000000000000000000000000000000000000000000000000000000000815260040161162490612665565b60405180910390fd5b60008111611670576040517f08c379a0000000000000000000000000000000000000000000000000000000008152600401611667906126d1565b60405180910390fd5b60001515600360019054906101000a900460ff161515146116c6576040517f08c379a00000000000000000000000000000000000000000000000000000000081526004016116bd90612763565b60405180910390fd5b6001600360016101000a81548160ff021916908315150217905550816000806101000a81548173ffffffffffffffffffffffffffffffffffffffff021916908373ffffffffffffffffffffffffffffffffffffffff160217905550806002819055506000600360006101000a81548160ff02191690831515021790555062015180426117529190612333565b60088190555061177c604051806060016040528060278152602001612885602791396002546118a5565b6117be6040518060600160405280602281526020016128ac6022913960008054906101000a900473ffffffffffffffffffffffffffffffffffffffff16611a7a565b5050565b600160009054906101000a900473ffffffffffffffffffffffffffffffffffffffff1681565b60008054906101000a900473ffffffffffffffffffffffffffffffffffffffff1681565b6118a2816040516024016118209190612802565b6040516020818303038152906040527f41304fac000000000000000000000000000000000000000000000000000000007bffffffffffffffffffffffffffffffffffffffffffffffffffffffff19166020820180517bffffffffffffffffffffffffffffffffffffffffffffffffffffffff8381831617835250505050611b16565b50565b61193d82826040516024016118bb929190612824565b6040516020818303038152906040527fb60e72cc000000000000000000000000000000000000000000000000000000007bffffffffffffffffffffffffffffffffffffffffffffffffffffffff19166020820180517bffffffffffffffffffffffffffffffffffffffffffffffffffffffff8381831617835250505050611b16565b5050565b600081831161195b57828261195691906125e5565b611968565b818361196791906125e5565b5b905092915050565b6000806103e8905060005b60038110156119d75783818151811061199757611996612304565b5b60200260200101518211156119c4578381815181106119b9576119b8612304565b5b602002602001015191505b80806119cf90612367565b91505061197b565b8192505050919050565b611a77816040516024016119f59190611bc2565b6040516020818303038152906040527ff82c50f1000000000000000000000000000000000000000000000000000000007bffffffffffffffffffffffffffffffffffffffffffffffffffffffff19166020820180517bffffffffffffffffffffffffffffffffffffffffffffffffffffffff8381831617835250505050611b16565b50565b611b128282604051602401611a90929190612854565b6040516020818303038152906040527f319af333000000000000000000000000000000000000000000000000000000007bffffffffffffffffffffffffffffffffffffffffffffffffffffffff19166020820180517bffffffffffffffffffffffffffffffffffffffffffffffffffffffff8381831617835250505050611b16565b5050565b60008151905060006a636f6e736f6c652e6c6f679050602083016000808483855afa5050505050565b828054828255906000526020600020908101928215611b7b579160200282015b82811115611b7a578251825591602001919060010190611b5f565b5b509050611b889190611b8c565b5090565b5b80821115611ba5576000816000905550600101611b8d565b5090565b6000819050919050565b611bbc81611ba9565b82525050565b6000602082019050611bd76000830184611bb3565b92915050565b60008115159050919050565b611bf281611bdd565b82525050565b6000602082019050611c0d6000830184611be9565b92915050565b600080fd5b600073ffffffffffffffffffffffffffffffffffffffff82169050919050565b6000611c4382611c18565b9050919050565b611c5381611c38565b8114611c5e57600080fd5b50565b600081359050611c7081611c4a565b92915050565b600060208284031215611c8c57611c8b611c13565b5b6000611c9a84828501611c61565b91505092915050565b611cac81611ba9565b8114611cb757600080fd5b50565b600081359050611cc981611ca3565b92915050565b600060208284031215611ce557611ce4611c13565b5b6000611cf384828501611cba565b91505092915050565b60008060408385031215611d1357611d12611c13565b5b6000611d2185828601611cba565b9250506020611d3285828601611cba565b9150509250929050565b611d4581611c38565b82525050565b6000602082019050611d606000830184611d3c565b92915050565b600081519050919050565b600082825260208201905092915050565b6000819050602082019050919050565b611d9b81611c38565b82525050565b6000611dad8383611d92565b60208301905092915050565b6000602082019050919050565b6000611dd182611d66565b611ddb8185611d71565b9350611de683611d82565b8060005b83811015611e17578151611dfe8882611da1565b9750611e0983611db9565b925050600181019050611dea565b5085935050505092915050565b60006020820190508181036000830152611e3e8184611dc6565b905092915050565b60008060408385031215611e5d57611e5c611c13565b5b6000611e6b85828601611c61565b9250506020611e7c85828601611cba565b9150509250929050565b6000611e9182611c18565b9050919050565b611ea181611e86565b82525050565b6000602082019050611ebc6000830184611e98565b92915050565b600082825260208201905092915050565b7f4f6e6c792074686520686f7374206f722077696e6e65722063616e207472616e60008201527f7366657220457468657200000000000000000000000000000000000000000000602082015250565b6000611f2f602a83611ec2565b9150611f3a82611ed3565b604082019050919050565b60006020820190508181036000830152611f5e81611f22565b9050919050565b7f47616d6520686173206e6f7420656e6465642079657400000000000000000000600082015250565b6000611f9b601683611ec2565b9150611fa682611f65565b602082019050919050565b60006020820190508181036000830152611fca81611f8e565b9050919050565b7f4e487b7100000000000000000000000000000000000000000000000000000000600052601160045260246000fd5b600061200b82611ba9565b915061201683611ba9565b925082820261202481611ba9565b9150828204841483151761203b5761203a611fd1565b5b5092915050565b7f4e487b7100000000000000000000000000000000000000000000000000000000600052601260045260246000fd5b600061207c82611ba9565b915061208783611ba9565b92508261209757612096612042565b5b828204905092915050565b600081905092915050565b50565b60006120bd6000836120a2565b91506120c8826120ad565b600082019050919050565b60006120de826120b0565b9150819050919050565b7f4661696c656420746f2073656e64204574686572000000000000000000000000600082015250565b600061211e601483611ec2565b9150612129826120e8565b602082019050919050565b6000602082019050818103600083015261214d81612111565b9050919050565b7f4f6e6c792074686520686f73742063616e207769746864726177204574686572600082015250565b600061218a602083611ec2565b915061219582612154565b602082019050919050565b600060208201905081810360008301526121b98161217d565b9050919050565b7f4e656564206174206c6561737420332067756573736573000000000000000000600082015250565b60006121f6601783611ec2565b9150612201826121c0565b602082019050919050565b60006020820190508181036000830152612225816121e9565b9050919050565b7f4f6e6c7920706c6179657273206d617920656e64207468652067616d65000000600082015250565b6000612262601d83611ec2565b915061226d8261222c565b602082019050919050565b6000602082019050818103600083015261229181612255565b9050919050565b7f47616d652068617320616c726561647920656e64656400000000000000000000600082015250565b60006122ce601683611ec2565b91506122d982612298565b602082019050919050565b600060208201905081810360008301526122fd816122c1565b9050919050565b7f4e487b7100000000000000000000000000000000000000000000000000000000600052603260045260246000fd5b600061233e82611ba9565b915061234983611ba9565b925082820190508082111561236157612360611fd1565b5b92915050565b600061237282611ba9565b91507fffffffffffffffffffffffffffffffffffffffffffffffffffffffffffffffff82036123a4576123a3611fd1565b5b600182019050919050565b7f4e487b7100000000000000000000000000000000000000000000000000000000600052604160045260246000fd5b60006123e982611ba9565b91506123f483611ba9565b92508261240457612403612042565b5b828206905092915050565b7f496e636f72726563742066656520616d6f756e74000000000000000000000000600082015250565b6000612445601483611ec2565b91506124508261240f565b602082019050919050565b6000602082019050818103600083015261247481612438565b9050919050565b7f506c617965722068617320616c726561647920656e746572656420612067756560008201527f7373000000000000000000000000000000000000000000000000000000000000602082015250565b60006124d7602283611ec2565b91506124e28261247b565b604082019050919050565b60006020820190508181036000830152612506816124ca565b9050919050565b7f4775657373206d757374206265206265747765656e203020616e642031303030600082015250565b6000612543602083611ec2565b915061254e8261250d565b602082019050919050565b6000602082019050818103600083015261257281612536565b9050919050565b7f47616d6520646561646c696e6520686173207061737365640000000000000000600082015250565b60006125af601883611ec2565b91506125ba82612579565b602082019050919050565b600060208201905081810360008301526125de816125a2565b9050919050565b60006125f082611ba9565b91506125fb83611ba9565b925082820390508181111561261357612612611fd1565b5b92915050565b7f496e76616c6964206f776e657220616464726573730000000000000000000000600082015250565b600061264f601583611ec2565b915061265a82612619565b602082019050919050565b6000602082019050818103600083015261267e81612642565b9050919050565b7f496e76616c69642066656520616d6f756e740000000000000000000000000000600082015250565b60006126bb601283611ec2565b91506126c682612685565b602082019050919050565b600060208201905081810360008301526126ea816126ae565b9050919050565b7f47616d652068617320616c7265616479206265656e20696e697469616c697a6560008201527f6400000000000000000000000000000000000000000000000000000000000000602082015250565b600061274d602183611ec2565b9150612758826126f1565b604082019050919050565b6000602082019050818103600083015261277c81612740565b9050919050565b600081519050919050565b60005b838110156127ac578082015181840152602081019050612791565b60008484015250505050565b6000601f19601f8301169050919050565b60006127d482612783565b6127de8185611ec2565b93506127ee81856020860161278e565b6127f7816127b8565b840191505092915050565b6000602082019050818103600083015261281c81846127c9565b905092915050565b6000604082019050818103600083015261283e81856127c9565b905061284d6020830184611bb3565b9392505050565b6000604082019050818103600083015261286e81856127c9565b905061287d6020830184611d3c565b939250505056fe4465706c6f79696e67204775657373696e6747616d65207769746820656e747279206665653a204465706c6f79696e67204775657373696e6747616d65207769746820686f73743a20a2646970667358221220779f867a4ddd9a77774913e25a9a3b7bd951d84277abdeea06375de27d1c783c64736f6c63430008120033",
  "linkReferences": {},
  "deployedLinkReferences": {}
}