{
  "_format": "hh-sol-artifact-1",
  "contractName": "GuessingGame",
  "sourceName": "contracts/GuessingGame.sol",
  "abi": [
    {
      "inputs": [],
      "name": "endGame",
      "outputs": [],
      "stateMutability": "nonpayable",
      "type": "function"
    },
    {
      "inputs": [],
      "name": "entryFee",
      "outputs": [
        {
          "internalType": "uint256",
          "name": "",
          "type": "uint256"
        }
      ],
      "stateMutability": "view",
      "type": "function"
    },
    {
      "inputs": [],
      "name": "gameCreationTime",
      "outputs": [
        {
          "internalType": "uint256",
          "name": "",
          "type": "uint256"
        }
      ],
      "stateMutability": "view",
      "type": "function"
    },
    {
      "inputs": [],
      "name": "gameDeadline",
      "outputs": [
        {
          "internalType": "uint256",
          "name": "",
          "type": "uint256"
        }
      ],
      "stateMutability": "view",
      "type": "function"
    },
    {
      "inputs": [],
      "name": "gameEnded",
      "outputs": [
        {
          "internalType": "bool",
          "name": "",
          "type": "bool"
        }
      ],
      "stateMutability": "view",
      "type": "function"
    },
    {
      "inputs": [
        {
          "internalType": "uint256",
          "name": "number",
          "type": "uint256"
        }
      ],
      "name": "getAddressByGuess",
      "outputs": [
        {
          "internalType": "address[]",
          "name": "",
          "type": "address[]"
        }
      ],
      "stateMutability": "view",
      "type": "function"
    },
    {
      "inputs": [
        {
          "internalType": "uint256",
          "name": "_guess",
          "type": "uint256"
        }
      ],
      "name": "guess",
      "outputs": [],
      "stateMutability": "payable",
      "type": "function"
    },
    {
      "inputs": [
        {
          "internalType": "uint256",
          "name": "",
          "type": "uint256"
        },
        {
          "internalType": "uint256",
          "name": "",
          "type": "uint256"
        }
      ],
      "name": "guessToAddress",
      "outputs": [
        {
          "internalType": "address",
          "name": "",
          "type": "address"
        }
      ],
      "stateMutability": "view",
      "type": "function"
    },
    {
      "inputs": [
        {
          "internalType": "address",
          "name": "",
          "type": "address"
        }
      ],
      "name": "hasEntered",
      "outputs": [
        {
          "internalType": "bool",
          "name": "",
          "type": "bool"
        }
      ],
      "stateMutability": "view",
      "type": "function"
    },
    {
      "inputs": [],
      "name": "hasInitialized",
      "outputs": [
        {
          "internalType": "bool",
          "name": "",
          "type": "bool"
        }
      ],
      "stateMutability": "view",
      "type": "function"
    },
    {
      "inputs": [],
      "name": "host",
      "outputs": [
        {
          "internalType": "address payable",
          "name": "",
          "type": "address"
        }
      ],
      "stateMutability": "view",
      "type": "function"
    },
    {
      "inputs": [
        {
          "internalType": "address",
          "name": "_owner",
          "type": "address"
        },
        {
          "internalType": "uint256",
          "name": "_feeAmount",
          "type": "uint256"
        }
      ],
      "name": "initialize",
      "outputs": [],
      "stateMutability": "nonpayable",
      "type": "function"
    },
    {
      "inputs": [],
      "name": "winner",
      "outputs": [
        {
          "internalType": "address payable",
          "name": "",
          "type": "address"
        }
      ],
      "stateMutability": "view",
      "type": "function"
    }
  ],
  "bytecode": "0x608060405234801561001057600080fd5b50612926806100206000396000f3fe6080604052600436106100c25760003560e01c80639189fec11161007f578063b480c8d811610059578063b480c8d81461025d578063cd6dc68714610288578063dfbf53ae146102b1578063f437bc59146102dc576100c2565b80639189fec1146101c7578063a3a841b8146101e3578063b359f7b014610220576100c2565b8063072ea61c146100c75780630803fac0146100f257806324d70dea1461011d5780632f6fe3961461015a5780636cbc2ded146101855780638924ff3c1461019c575b600080fd5b3480156100d357600080fd5b506100dc610307565b6040516100e99190611b79565b60405180910390f35b3480156100fe57600080fd5b5061010761030d565b6040516101149190611baf565b60405180910390f35b34801561012957600080fd5b50610144600480360381019061013f9190611c2d565b610320565b6040516101519190611baf565b60405180910390f35b34801561016657600080fd5b5061016f610340565b60405161017c9190611baf565b60405180910390f35b34801561019157600080fd5b5061019a610353565b005b3480156101a857600080fd5b506101b1610bda565b6040516101be9190611b79565b60405180910390f35b6101e160048036038101906101dc9190611c86565b610be0565b005b3480156101ef57600080fd5b5061020a60048036038101906102059190611cb3565b611072565b6040516102179190611d02565b60405180910390f35b34801561022c57600080fd5b5061024760048036038101906102429190611c86565b6110c0565b6040516102549190611ddb565b60405180910390f35b34801561026957600080fd5b50610272611161565b60405161027f9190611b79565b60405180910390f35b34801561029457600080fd5b506102af60048036038101906102aa9190611dfd565b611167565b005b3480156102bd57600080fd5b506102c661136b565b6040516102d39190611e5e565b60405180910390f35b3480156102e857600080fd5b506102f1611391565b6040516102fe9190611e5e565b60405180910390f35b60025481565b600360019054906101000a900460ff1681565b60056020528060005260406000206000915054906101000a900460ff1681565b600360009054906101000a900460ff1681565b6003600680549050101561039c576040517f08c379a000000000000000000000000000000000000000000000000000000000815260040161039390611ed6565b60405180910390fd5b60008054906101000a900473ffffffffffffffffffffffffffffffffffffffff1673ffffffffffffffffffffffffffffffffffffffff163373ffffffffffffffffffffffffffffffffffffffff161461042a576040517f08c379a000000000000000000000000000000000000000000000000000000000815260040161042190611f42565b60405180910390fd5b60001515600360009054906101000a900460ff16151514610480576040517f08c379a000000000000000000000000000000000000000000000000000000000815260040161047790611fae565b60405180910390fd5b6001600360006101000a81548160ff021916908315150217905550600080600090505b6006805490508110156104ef57600681815481106104c4576104c3611fce565b5b9060005260206000200154826104da919061202c565b915080806104e790612060565b9150506104a3565b506006805490508161050191906120d7565b905060646042826105129190612108565b61051c91906120d7565b905061055d6040518060400160405280601381526020017f61766572616765206e756d6265722069733a2000000000000000000000000000815250826113b5565b60068054905067ffffffffffffffff81111561057c5761057b61214a565b5b6040519080825280602002602001820160405280156105aa5781602001602082028036833780820191505090505b50600790805190602001906105c0929190611af6565b5060005b6006805490508110156106345760006105fb600683815481106105ea576105e9611fce565b5b906000526020600020015484611451565b9050806007838154811061061257610611611fce565b5b906000526020600020018190555050808061062c90612060565b9150506105c4565b50610696610691600780548060200260200160405190810160405280929190818152602001828054801561068757602002820191906000526020600020905b815481526020019060010190808311610673575b5050505050611480565b6114f1565b6000816106f260078054806020026020016040519081016040528092919081815260200182805480156106e857602002820191906000526020600020905b8154815260200190600101908083116106d4575b5050505050611480565b6106fc919061202c565b905061073d6040518060400160405280601381526020017f77696e6e696e67206e756d6265722069733a2000000000000000000000000000815250826113b5565b6000600460008381526020019081526020016000208054806020026020016040519081016040528092919081815260200182805480156107d257602002820191906000526020600020905b8160009054906101000a900473ffffffffffffffffffffffffffffffffffffffff1673ffffffffffffffffffffffffffffffffffffffff1681526020019060010190808311610788575b505050505090506001600460008481526020019081526020016000208054905011156109785761085a6040518060400160405280601881526020017f656e6467616d655f206775657373544f416464726573733a000000000000000081525061083a846110c0565b60008151811061084d5761084c611fce565b5b602002602001015161158a565b6108bc6040518060400160405280601881526020017f656e6467616d655f206775657373544f416464726573733a000000000000000081525061089c846110c0565b6001815181106108af576108ae611fce565b5b602002602001015161158a565b60006004600084815260200190815260200160002080549050426108e09190612179565b905060046000848152602001908152602001600020818154811061090757610906611fce565b5b9060005260206000200160009054906101000a900473ffffffffffffffffffffffffffffffffffffffff16600160006101000a81548173ffffffffffffffffffffffffffffffffffffffff021916908373ffffffffffffffffffffffffffffffffffffffff160217905550506109d5565b8060008151811061098c5761098b611fce565b5b6020026020010151600160006101000a81548173ffffffffffffffffffffffffffffffffffffffff021916908373ffffffffffffffffffffffffffffffffffffffff1602179055505b610a366040518060400160405280600b81526020017f77696e6e65722069733a20000000000000000000000000000000000000000000815250600160009054906101000a900473ffffffffffffffffffffffffffffffffffffffff1661158a565b610a756040518060400160405280601381526020017f436f6e7472616374732062616c616e63653a2000000000000000000000000000815250476113b5565b610aa0600160009054906101000a900473ffffffffffffffffffffffffffffffffffffffff16611626565b610aa8611868565b610ae76040518060400160405280601381526020017f436f6e7472616374732062616c616e63653a2000000000000000000000000000815250476113b5565b610b5f6040518060400160405280601181526020017f57696e6e6572732062616c616e63653a20000000000000000000000000000000815250600160009054906101000a900473ffffffffffffffffffffffffffffffffffffffff1673ffffffffffffffffffffffffffffffffffffffff16316113b5565b610bd56040518060400160405280600f81526020017f486f7374732062616c616e63653a20000000000000000000000000000000000081525060008054906101000a900473ffffffffffffffffffffffffffffffffffffffff1673ffffffffffffffffffffffffffffffffffffffff16316113b5565b505050565b60085481565b6002543414610c24576040517f08c379a0000000000000000000000000000000000000000000000000000000008152600401610c1b906121f6565b60405180910390fd5b60008054906101000a900473ffffffffffffffffffffffffffffffffffffffff1673ffffffffffffffffffffffffffffffffffffffff163373ffffffffffffffffffffffffffffffffffffffff1603610cb2576040517f08c379a0000000000000000000000000000000000000000000000000000000008152600401610ca990612262565b60405180910390fd5b60001515600560003373ffffffffffffffffffffffffffffffffffffffff1673ffffffffffffffffffffffffffffffffffffffff16815260200190815260200160002060009054906101000a900460ff16151514610d45576040517f08c379a0000000000000000000000000000000000000000000000000000000008152600401610d3c906122f4565b60405180910390fd5b6103e88111158015610d58575060008110155b610d97576040517f08c379a0000000000000000000000000000000000000000000000000000000008152600401610d8e90612360565b60405180910390fd5b60001515600360009054906101000a900460ff16151514610ded576040517f08c379a0000000000000000000000000000000000000000000000000000000008152600401610de490611fae565b60405180910390fd5b6008544210610e31576040517f08c379a0000000000000000000000000000000000000000000000000000000008152600401610e28906123cc565b60405180910390fd5b60046000828152602001908152602001600020339080600181540180825580915050600190039060005260206000200160009091909190916101000a81548173ffffffffffffffffffffffffffffffffffffffff021916908373ffffffffffffffffffffffffffffffffffffffff1602179055506001600560003373ffffffffffffffffffffffffffffffffffffffff1673ffffffffffffffffffffffffffffffffffffffff16815260200190815260200160002060006101000a81548160ff0219169083151502179055506006819080600181540180825580915050600190039060005260206000200160009091909190915055610f656040518060400160405280600681526020017f67756573733a0000000000000000000000000000000000000000000000000000815250826113b5565b60016004600083815260200190815260200160002080549050111561100c576110076040518060400160405280600f81526020017f6775657373544f416464726573733a0000000000000000000000000000000000815250610fc6836110c0565b60016004600086815260200190815260200160002080549050610fe991906123ec565b81518110610ffa57610ff9611fce565b5b602002602001015161158a565b61106f565b61106e6040518060400160405280600f81526020017f6775657373544f416464726573733a000000000000000000000000000000000081525061104e836110c0565b60008151811061106157611060611fce565b5b602002602001015161158a565b5b50565b6004602052816000526040600020818154811061108e57600080fd5b906000526020600020016000915091509054906101000a900473ffffffffffffffffffffffffffffffffffffffff1681565b60606004600083815260200190815260200160002080548060200260200160405190810160405280929190818152602001828054801561115557602002820191906000526020600020905b8160009054906101000a900473ffffffffffffffffffffffffffffffffffffffff1673ffffffffffffffffffffffffffffffffffffffff168152602001906001019080831161110b575b50505050509050919050565b60095481565b600073ffffffffffffffffffffffffffffffffffffffff168273ffffffffffffffffffffffffffffffffffffffff16036111d6576040517f08c379a00000000000000000000000000000000000000000000000000000000081526004016111cd9061246c565b60405180910390fd5b60008111611219576040517f08c379a0000000000000000000000000000000000000000000000000000000008152600401611210906124d8565b60405180910390fd5b60001515600360019054906101000a900460ff1615151461126f576040517f08c379a00000000000000000000000000000000000000000000000000000000081526004016112669061256a565b60405180910390fd5b6001600360016101000a81548160ff021916908315150217905550816000806101000a81548173ffffffffffffffffffffffffffffffffffffffff021916908373ffffffffffffffffffffffffffffffffffffffff160217905550806002819055506000600360006101000a81548160ff02191690831515021790555062015180426112fb919061202c565b6008819055506113256040518060600160405280602781526020016128a8602791396002546113b5565b6113676040518060600160405280602281526020016128cf6022913960008054906101000a900473ffffffffffffffffffffffffffffffffffffffff1661158a565b5050565b600160009054906101000a900473ffffffffffffffffffffffffffffffffffffffff1681565b60008054906101000a900473ffffffffffffffffffffffffffffffffffffffff1681565b61144d82826040516024016113cb929190612609565b6040516020818303038152906040527fb60e72cc000000000000000000000000000000000000000000000000000000007bffffffffffffffffffffffffffffffffffffffffffffffffffffffff19166020820180517bffffffffffffffffffffffffffffffffffffffffffffffffffffffff8381831617835250505050611a34565b5050565b600081831161146b57828261146691906123ec565b611478565b818361147791906123ec565b5b905092915050565b6000806103e8905060005b60038110156114e7578381815181106114a7576114a6611fce565b5b60200260200101518211156114d4578381815181106114c9576114c8611fce565b5b602002602001015191505b80806114df90612060565b91505061148b565b8192505050919050565b611587816040516024016115059190611b79565b6040516020818303038152906040527ff82c50f1000000000000000000000000000000000000000000000000000000007bffffffffffffffffffffffffffffffffffffffffffffffffffffffff19166020820180517bffffffffffffffffffffffffffffffffffffffffffffffffffffffff8381831617835250505050611a34565b50565b61162282826040516024016115a0929190612639565b6040516020818303038152906040527f319af333000000000000000000000000000000000000000000000000000000007bffffffffffffffffffffffffffffffffffffffffffffffffffffffff19166020820180517bffffffffffffffffffffffffffffffffffffffffffffffffffffffff8381831617835250505050611a34565b5050565b60008054906101000a900473ffffffffffffffffffffffffffffffffffffffff1673ffffffffffffffffffffffffffffffffffffffff163373ffffffffffffffffffffffffffffffffffffffff1614806116cd5750600160009054906101000a900473ffffffffffffffffffffffffffffffffffffffff1673ffffffffffffffffffffffffffffffffffffffff163373ffffffffffffffffffffffffffffffffffffffff16145b61170c576040517f08c379a0000000000000000000000000000000000000000000000000000000008152600401611703906126db565b60405180910390fd5b60011515600360009054906101000a900460ff16151514611762576040517f08c379a000000000000000000000000000000000000000000000000000000000815260040161175990612747565b60405180910390fd5b6117a06040518060400160405280600481526020017f7465737400000000000000000000000000000000000000000000000000000000815250611a5d565b60008173ffffffffffffffffffffffffffffffffffffffff166064605a476117c89190612108565b6117d291906120d7565b6040516117de90612798565b60006040518083038185875af1925050503d806000811461181b576040519150601f19603f3d011682016040523d82523d6000602084013e611820565b606091505b5050905080611864576040517f08c379a000000000000000000000000000000000000000000000000000000000815260040161185b906127f9565b60405180910390fd5b5050565b60008054906101000a900473ffffffffffffffffffffffffffffffffffffffff1673ffffffffffffffffffffffffffffffffffffffff163373ffffffffffffffffffffffffffffffffffffffff16146118f6576040517f08c379a00000000000000000000000000000000000000000000000000000000081526004016118ed90612865565b60405180910390fd5b60011515600360009054906101000a900460ff1615151461194c576040517f08c379a000000000000000000000000000000000000000000000000000000000815260040161194390612747565b60405180910390fd5b60008060009054906101000a900473ffffffffffffffffffffffffffffffffffffffff1673ffffffffffffffffffffffffffffffffffffffff166064600a476119959190612108565b61199f91906120d7565b6040516119ab90612798565b60006040518083038185875af1925050503d80600081146119e8576040519150601f19603f3d011682016040523d82523d6000602084013e6119ed565b606091505b5050905080611a31576040517f08c379a0000000000000000000000000000000000000000000000000000000008152600401611a28906127f9565b60405180910390fd5b50565b60008151905060006a636f6e736f6c652e6c6f679050602083016000808483855afa5050505050565b611af381604051602401611a719190612885565b6040516020818303038152906040527f41304fac000000000000000000000000000000000000000000000000000000007bffffffffffffffffffffffffffffffffffffffffffffffffffffffff19166020820180517bffffffffffffffffffffffffffffffffffffffffffffffffffffffff8381831617835250505050611a34565b50565b828054828255906000526020600020908101928215611b32579160200282015b82811115611b31578251825591602001919060010190611b16565b5b509050611b3f9190611b43565b5090565b5b80821115611b5c576000816000905550600101611b44565b5090565b6000819050919050565b611b7381611b60565b82525050565b6000602082019050611b8e6000830184611b6a565b92915050565b60008115159050919050565b611ba981611b94565b82525050565b6000602082019050611bc46000830184611ba0565b92915050565b600080fd5b600073ffffffffffffffffffffffffffffffffffffffff82169050919050565b6000611bfa82611bcf565b9050919050565b611c0a81611bef565b8114611c1557600080fd5b50565b600081359050611c2781611c01565b92915050565b600060208284031215611c4357611c42611bca565b5b6000611c5184828501611c18565b91505092915050565b611c6381611b60565b8114611c6e57600080fd5b50565b600081359050611c8081611c5a565b92915050565b600060208284031215611c9c57611c9b611bca565b5b6000611caa84828501611c71565b91505092915050565b60008060408385031215611cca57611cc9611bca565b5b6000611cd885828601611c71565b9250506020611ce985828601611c71565b9150509250929050565b611cfc81611bef565b82525050565b6000602082019050611d176000830184611cf3565b92915050565b600081519050919050565b600082825260208201905092915050565b6000819050602082019050919050565b611d5281611bef565b82525050565b6000611d648383611d49565b60208301905092915050565b6000602082019050919050565b6000611d8882611d1d565b611d928185611d28565b9350611d9d83611d39565b8060005b83811015611dce578151611db58882611d58565b9750611dc083611d70565b925050600181019050611da1565b5085935050505092915050565b60006020820190508181036000830152611df58184611d7d565b905092915050565b60008060408385031215611e1457611e13611bca565b5b6000611e2285828601611c18565b9250506020611e3385828601611c71565b9150509250929050565b6000611e4882611bcf565b9050919050565b611e5881611e3d565b82525050565b6000602082019050611e736000830184611e4f565b92915050565b600082825260208201905092915050565b7f4e656564206174206c6561737420332067756573736573000000000000000000600082015250565b6000611ec0601783611e79565b9150611ecb82611e8a565b602082019050919050565b60006020820190508181036000830152611eef81611eb3565b9050919050565b7f4f6e6c7920686f7374206d617920656e64207468652067616d65000000000000600082015250565b6000611f2c601a83611e79565b9150611f3782611ef6565b602082019050919050565b60006020820190508181036000830152611f5b81611f1f565b9050919050565b7f47616d652068617320616c726561647920656e64656400000000000000000000600082015250565b6000611f98601683611e79565b9150611fa382611f62565b602082019050919050565b60006020820190508181036000830152611fc781611f8b565b9050919050565b7f4e487b7100000000000000000000000000000000000000000000000000000000600052603260045260246000fd5b7f4e487b7100000000000000000000000000000000000000000000000000000000600052601160045260246000fd5b600061203782611b60565b915061204283611b60565b925082820190508082111561205a57612059611ffd565b5b92915050565b600061206b82611b60565b91507fffffffffffffffffffffffffffffffffffffffffffffffffffffffffffffffff820361209d5761209c611ffd565b5b600182019050919050565b7f4e487b7100000000000000000000000000000000000000000000000000000000600052601260045260246000fd5b60006120e282611b60565b91506120ed83611b60565b9250826120fd576120fc6120a8565b5b828204905092915050565b600061211382611b60565b915061211e83611b60565b925082820261212c81611b60565b9150828204841483151761214357612142611ffd565b5b5092915050565b7f4e487b7100000000000000000000000000000000000000000000000000000000600052604160045260246000fd5b600061218482611b60565b915061218f83611b60565b92508261219f5761219e6120a8565b5b828206905092915050565b7f496e636f72726563742066656520616d6f756e74000000000000000000000000600082015250565b60006121e0601483611e79565b91506121eb826121aa565b602082019050919050565b6000602082019050818103600083015261220f816121d3565b9050919050565b7f486f73742063616e6e6f7420656e746572206120677565737300000000000000600082015250565b600061224c601983611e79565b915061225782612216565b602082019050919050565b6000602082019050818103600083015261227b8161223f565b9050919050565b7f506c617965722068617320616c726561647920656e746572656420612067756560008201527f7373000000000000000000000000000000000000000000000000000000000000602082015250565b60006122de602283611e79565b91506122e982612282565b604082019050919050565b6000602082019050818103600083015261230d816122d1565b9050919050565b7f4775657373206d757374206265206265747765656e203020616e642031303030600082015250565b600061234a602083611e79565b915061235582612314565b602082019050919050565b600060208201905081810360008301526123798161233d565b9050919050565b7f47616d6520646561646c696e6520686173207061737365640000000000000000600082015250565b60006123b6601883611e79565b91506123c182612380565b602082019050919050565b600060208201905081810360008301526123e5816123a9565b9050919050565b60006123f782611b60565b915061240283611b60565b925082820390508181111561241a57612419611ffd565b5b92915050565b7f496e76616c6964206f776e657220616464726573730000000000000000000000600082015250565b6000612456601583611e79565b915061246182612420565b602082019050919050565b6000602082019050818103600083015261248581612449565b9050919050565b7f496e76616c69642066656520616d6f756e740000000000000000000000000000600082015250565b60006124c2601283611e79565b91506124cd8261248c565b602082019050919050565b600060208201905081810360008301526124f1816124b5565b9050919050565b7f47616d652068617320616c7265616479206265656e20696e697469616c697a6560008201527f6400000000000000000000000000000000000000000000000000000000000000602082015250565b6000612554602183611e79565b915061255f826124f8565b604082019050919050565b6000602082019050818103600083015261258381612547565b9050919050565b600081519050919050565b60005b838110156125b3578082015181840152602081019050612598565b60008484015250505050565b6000601f19601f8301169050919050565b60006125db8261258a565b6125e58185611e79565b93506125f5818560208601612595565b6125fe816125bf565b840191505092915050565b6000604082019050818103600083015261262381856125d0565b90506126326020830184611b6a565b9392505050565b6000604082019050818103600083015261265381856125d0565b90506126626020830184611cf3565b9392505050565b7f4f6e6c792074686520686f7374206f722077696e6e65722063616e207472616e60008201527f7366657220457468657200000000000000000000000000000000000000000000602082015250565b60006126c5602a83611e79565b91506126d082612669565b604082019050919050565b600060208201905081810360008301526126f4816126b8565b9050919050565b7f47616d6520686173206e6f7420656e6465642079657400000000000000000000600082015250565b6000612731601683611e79565b915061273c826126fb565b602082019050919050565b6000602082019050818103600083015261276081612724565b9050919050565b600081905092915050565b50565b6000612782600083612767565b915061278d82612772565b600082019050919050565b60006127a382612775565b9150819050919050565b7f4661696c656420746f2073656e64204574686572000000000000000000000000600082015250565b60006127e3601483611e79565b91506127ee826127ad565b602082019050919050565b60006020820190508181036000830152612812816127d6565b9050919050565b7f4f6e6c792074686520686f73742063616e207769746864726177204574686572600082015250565b600061284f602083611e79565b915061285a82612819565b602082019050919050565b6000602082019050818103600083015261287e81612842565b9050919050565b6000602082019050818103600083015261289f81846125d0565b90509291505056fe4465706c6f79696e67204775657373696e6747616d65207769746820656e747279206665653a204465706c6f79696e67204775657373696e6747616d65207769746820686f73743a20a264697066735822122013350fac2d1a53528699e18d5a3b5b866267a23be9576bb9add3d38a0dc45d2164736f6c63430008120033",
  "linkReferences": {},
  "deployedLinkReferences": {}
}