{
  "_format": "hh-sol-artifact-1",
  "contractName": "GuessingGame",
  "sourceName": "contracts/GuessingGame.sol",
  "abi": [
    {
      "inputs": [],
      "name": "endGame",
      "outputs": [],
      "stateMutability": "nonpayable",
      "type": "function"
    },
    {
      "inputs": [],
      "name": "entryFee",
      "outputs": [
        {
          "internalType": "uint256",
          "name": "",
          "type": "uint256"
        }
      ],
      "stateMutability": "view",
      "type": "function"
    },
    {
      "inputs": [],
      "name": "gameCreationTime",
      "outputs": [
        {
          "internalType": "uint256",
          "name": "",
          "type": "uint256"
        }
      ],
      "stateMutability": "view",
      "type": "function"
    },
    {
      "inputs": [],
      "name": "gameDeadline",
      "outputs": [
        {
          "internalType": "uint256",
          "name": "",
          "type": "uint256"
        }
      ],
      "stateMutability": "view",
      "type": "function"
    },
    {
      "inputs": [],
      "name": "gameEnded",
      "outputs": [
        {
          "internalType": "bool",
          "name": "",
          "type": "bool"
        }
      ],
      "stateMutability": "view",
      "type": "function"
    },
    {
      "inputs": [
        {
          "internalType": "uint256",
          "name": "number",
          "type": "uint256"
        }
      ],
      "name": "getAddressByGuess",
      "outputs": [
        {
          "internalType": "address[]",
          "name": "",
          "type": "address[]"
        }
      ],
      "stateMutability": "view",
      "type": "function"
    },
    {
      "inputs": [
        {
          "internalType": "uint256",
          "name": "_guess",
          "type": "uint256"
        }
      ],
      "name": "guess",
      "outputs": [],
      "stateMutability": "payable",
      "type": "function"
    },
    {
      "inputs": [
        {
          "internalType": "uint256",
          "name": "",
          "type": "uint256"
        },
        {
          "internalType": "uint256",
          "name": "",
          "type": "uint256"
        }
      ],
      "name": "guessToAddress",
      "outputs": [
        {
          "internalType": "address",
          "name": "",
          "type": "address"
        }
      ],
      "stateMutability": "view",
      "type": "function"
    },
    {
      "inputs": [
        {
          "internalType": "address",
          "name": "",
          "type": "address"
        }
      ],
      "name": "hasEntered",
      "outputs": [
        {
          "internalType": "bool",
          "name": "",
          "type": "bool"
        }
      ],
      "stateMutability": "view",
      "type": "function"
    },
    {
      "inputs": [],
      "name": "hasInitialized",
      "outputs": [
        {
          "internalType": "bool",
          "name": "",
          "type": "bool"
        }
      ],
      "stateMutability": "view",
      "type": "function"
    },
    {
      "inputs": [],
      "name": "host",
      "outputs": [
        {
          "internalType": "address payable",
          "name": "",
          "type": "address"
        }
      ],
      "stateMutability": "view",
      "type": "function"
    },
    {
      "inputs": [
        {
          "internalType": "address",
          "name": "_owner",
          "type": "address"
        },
        {
          "internalType": "uint256",
          "name": "_feeAmount",
          "type": "uint256"
        }
      ],
      "name": "initialize",
      "outputs": [],
      "stateMutability": "nonpayable",
      "type": "function"
    },
    {
      "inputs": [],
      "name": "winner",
      "outputs": [
        {
          "internalType": "address payable",
          "name": "",
          "type": "address"
        }
      ],
      "stateMutability": "view",
      "type": "function"
    }
  ],
  "bytecode": "0x608060405234801561001057600080fd5b506129ec806100206000396000f3fe6080604052600436106100c25760003560e01c80639189fec11161007f578063b480c8d811610059578063b480c8d81461025d578063cd6dc68714610288578063dfbf53ae146102b1578063f437bc59146102dc576100c2565b80639189fec1146101c7578063a3a841b8146101e3578063b359f7b014610220576100c2565b8063072ea61c146100c75780630803fac0146100f257806324d70dea1461011d5780632f6fe3961461015a5780636cbc2ded146101855780638924ff3c1461019c575b600080fd5b3480156100d357600080fd5b506100dc610307565b6040516100e99190611c19565b60405180910390f35b3480156100fe57600080fd5b5061010761030d565b6040516101149190611c4f565b60405180910390f35b34801561012957600080fd5b50610144600480360381019061013f9190611ccd565b610320565b6040516101519190611c4f565b60405180910390f35b34801561016657600080fd5b5061016f610340565b60405161017c9190611c4f565b60405180910390f35b34801561019157600080fd5b5061019a610353565b005b3480156101a857600080fd5b506101b1610be7565b6040516101be9190611c19565b60405180910390f35b6101e160048036038101906101dc9190611d26565b610bed565b005b3480156101ef57600080fd5b5061020a60048036038101906102059190611d53565b61107f565b6040516102179190611da2565b60405180910390f35b34801561022c57600080fd5b5061024760048036038101906102429190611d26565b6110cd565b6040516102549190611e7b565b60405180910390f35b34801561026957600080fd5b5061027261116e565b60405161027f9190611c19565b60405180910390f35b34801561029457600080fd5b506102af60048036038101906102aa9190611e9d565b611174565b005b3480156102bd57600080fd5b506102c661140b565b6040516102d39190611efe565b60405180910390f35b3480156102e857600080fd5b506102f1611431565b6040516102fe9190611efe565b60405180910390f35b60025481565b600360019054906101000a900460ff1681565b60056020528060005260406000206000915054906101000a900460ff1681565b600360009054906101000a900460ff1681565b6003600680549050101561039c576040517f08c379a000000000000000000000000000000000000000000000000000000000815260040161039390611f76565b60405180910390fd5b60008054906101000a900473ffffffffffffffffffffffffffffffffffffffff1673ffffffffffffffffffffffffffffffffffffffff163373ffffffffffffffffffffffffffffffffffffffff1614806103f857506008544210155b610437576040517f08c379a000000000000000000000000000000000000000000000000000000000815260040161042e90612008565b60405180910390fd5b60001515600360009054906101000a900460ff1615151461048d576040517f08c379a000000000000000000000000000000000000000000000000000000000815260040161048490612074565b60405180910390fd5b6001600360006101000a81548160ff021916908315150217905550600080600090505b6006805490508110156104fc57600681815481106104d1576104d0612094565b5b9060005260206000200154826104e791906120f2565b915080806104f490612126565b9150506104b0565b506006805490508161050e919061219d565b9050606460428261051f91906121ce565b610529919061219d565b905061056a6040518060400160405280601381526020017f61766572616765206e756d6265722069733a200000000000000000000000000081525082611455565b60068054905067ffffffffffffffff81111561058957610588612210565b5b6040519080825280602002602001820160405280156105b75781602001602082028036833780820191505090505b50600790805190602001906105cd929190611b96565b5060005b600680549050811015610641576000610608600683815481106105f7576105f6612094565b5b9060005260206000200154846114f1565b9050806007838154811061061f5761061e612094565b5b906000526020600020018190555050808061063990612126565b9150506105d1565b506106a361069e600780548060200260200160405190810160405280929190818152602001828054801561069457602002820191906000526020600020905b815481526020019060010190808311610680575b5050505050611520565b611591565b6000816106ff60078054806020026020016040519081016040528092919081815260200182805480156106f557602002820191906000526020600020905b8154815260200190600101908083116106e1575b5050505050611520565b61070991906120f2565b905061074a6040518060400160405280601381526020017f77696e6e696e67206e756d6265722069733a200000000000000000000000000081525082611455565b6000600460008381526020019081526020016000208054806020026020016040519081016040528092919081815260200182805480156107df57602002820191906000526020600020905b8160009054906101000a900473ffffffffffffffffffffffffffffffffffffffff1673ffffffffffffffffffffffffffffffffffffffff1681526020019060010190808311610795575b50505050509050600160046000848152602001908152602001600020805490501115610985576108676040518060400160405280601881526020017f656e6467616d655f206775657373544f416464726573733a0000000000000000815250610847846110cd565b60008151811061085a57610859612094565b5b602002602001015161162a565b6108c96040518060400160405280601881526020017f656e6467616d655f206775657373544f416464726573733a00000000000000008152506108a9846110cd565b6001815181106108bc576108bb612094565b5b602002602001015161162a565b60006004600084815260200190815260200160002080549050426108ed919061223f565b905060046000848152602001908152602001600020818154811061091457610913612094565b5b9060005260206000200160009054906101000a900473ffffffffffffffffffffffffffffffffffffffff16600160006101000a81548173ffffffffffffffffffffffffffffffffffffffff021916908373ffffffffffffffffffffffffffffffffffffffff160217905550506109e2565b8060008151811061099957610998612094565b5b6020026020010151600160006101000a81548173ffffffffffffffffffffffffffffffffffffffff021916908373ffffffffffffffffffffffffffffffffffffffff1602179055505b610a436040518060400160405280600b81526020017f77696e6e65722069733a20000000000000000000000000000000000000000000815250600160009054906101000a900473ffffffffffffffffffffffffffffffffffffffff1661162a565b610a826040518060400160405280601381526020017f436f6e7472616374732062616c616e63653a200000000000000000000000000081525047611455565b610aad600160009054906101000a900473ffffffffffffffffffffffffffffffffffffffff166116c6565b610ab5611908565b610af46040518060400160405280601381526020017f436f6e7472616374732062616c616e63653a200000000000000000000000000081525047611455565b610b6c6040518060400160405280601181526020017f57696e6e6572732062616c616e63653a20000000000000000000000000000000815250600160009054906101000a900473ffffffffffffffffffffffffffffffffffffffff1673ffffffffffffffffffffffffffffffffffffffff1631611455565b610be26040518060400160405280600f81526020017f486f7374732062616c616e63653a20000000000000000000000000000000000081525060008054906101000a900473ffffffffffffffffffffffffffffffffffffffff1673ffffffffffffffffffffffffffffffffffffffff1631611455565b505050565b60085481565b6002543414610c31576040517f08c379a0000000000000000000000000000000000000000000000000000000008152600401610c28906122bc565b60405180910390fd5b60008054906101000a900473ffffffffffffffffffffffffffffffffffffffff1673ffffffffffffffffffffffffffffffffffffffff163373ffffffffffffffffffffffffffffffffffffffff1603610cbf576040517f08c379a0000000000000000000000000000000000000000000000000000000008152600401610cb690612328565b60405180910390fd5b60001515600560003373ffffffffffffffffffffffffffffffffffffffff1673ffffffffffffffffffffffffffffffffffffffff16815260200190815260200160002060009054906101000a900460ff16151514610d52576040517f08c379a0000000000000000000000000000000000000000000000000000000008152600401610d49906123ba565b60405180910390fd5b6103e88111158015610d65575060008110155b610da4576040517f08c379a0000000000000000000000000000000000000000000000000000000008152600401610d9b90612426565b60405180910390fd5b60001515600360009054906101000a900460ff16151514610dfa576040517f08c379a0000000000000000000000000000000000000000000000000000000008152600401610df190612074565b60405180910390fd5b6008544210610e3e576040517f08c379a0000000000000000000000000000000000000000000000000000000008152600401610e3590612492565b60405180910390fd5b60046000828152602001908152602001600020339080600181540180825580915050600190039060005260206000200160009091909190916101000a81548173ffffffffffffffffffffffffffffffffffffffff021916908373ffffffffffffffffffffffffffffffffffffffff1602179055506001600560003373ffffffffffffffffffffffffffffffffffffffff1673ffffffffffffffffffffffffffffffffffffffff16815260200190815260200160002060006101000a81548160ff0219169083151502179055506006819080600181540180825580915050600190039060005260206000200160009091909190915055610f726040518060400160405280600681526020017f67756573733a000000000000000000000000000000000000000000000000000081525082611455565b600160046000838152602001908152602001600020805490501115611019576110146040518060400160405280600f81526020017f6775657373544f416464726573733a0000000000000000000000000000000000815250610fd3836110cd565b60016004600086815260200190815260200160002080549050610ff691906124b2565b8151811061100757611006612094565b5b602002602001015161162a565b61107c565b61107b6040518060400160405280600f81526020017f6775657373544f416464726573733a000000000000000000000000000000000081525061105b836110cd565b60008151811061106e5761106d612094565b5b602002602001015161162a565b5b50565b6004602052816000526040600020818154811061109b57600080fd5b906000526020600020016000915091509054906101000a900473ffffffffffffffffffffffffffffffffffffffff1681565b60606004600083815260200190815260200160002080548060200260200160405190810160405280929190818152602001828054801561116257602002820191906000526020600020905b8160009054906101000a900473ffffffffffffffffffffffffffffffffffffffff1673ffffffffffffffffffffffffffffffffffffffff1681526020019060010190808311611118575b50505050509050919050565b60095481565b600073ffffffffffffffffffffffffffffffffffffffff168273ffffffffffffffffffffffffffffffffffffffff16036111e3576040517f08c379a00000000000000000000000000000000000000000000000000000000081526004016111da90612532565b60405180910390fd5b60008111611226576040517f08c379a000000000000000000000000000000000000000000000000000000000815260040161121d9061259e565b60405180910390fd5b60001515600360019054906101000a900460ff1615151461127c576040517f08c379a000000000000000000000000000000000000000000000000000000000815260040161127390612630565b60405180910390fd5b6001600360016101000a81548160ff021916908315150217905550816000806101000a81548173ffffffffffffffffffffffffffffffffffffffff021916908373ffffffffffffffffffffffffffffffffffffffff160217905550670de0b6b3a7640000816112eb91906121ce565b6002819055506113326040518060400160405280600381526020017f6f6c610000000000000000000000000000000000000000000000000000000000815250600254611455565b6000600360006101000a81548160ff021916908315150217905550620151804261135c91906120f2565b60088190555061138660405180606001604052806027815260200161296e60279139600254611455565b6113c86040518060600160405280602281526020016129956022913960008054906101000a900473ffffffffffffffffffffffffffffffffffffffff1661162a565b6114076040518060400160405280601681526020017f4465706c6f79696e67206f6e20616464726573733a20000000000000000000008152503061162a565b5050565b600160009054906101000a900473ffffffffffffffffffffffffffffffffffffffff1681565b60008054906101000a900473ffffffffffffffffffffffffffffffffffffffff1681565b6114ed828260405160240161146b9291906126cf565b6040516020818303038152906040527fb60e72cc000000000000000000000000000000000000000000000000000000007bffffffffffffffffffffffffffffffffffffffffffffffffffffffff19166020820180517bffffffffffffffffffffffffffffffffffffffffffffffffffffffff8381831617835250505050611ad4565b5050565b600081831161150b57828261150691906124b2565b611518565b818361151791906124b2565b5b905092915050565b6000806103e8905060005b83518110156115875783818151811061154757611546612094565b5b60200260200101518211156115745783818151811061156957611568612094565b5b602002602001015191505b808061157f90612126565b91505061152b565b8192505050919050565b611627816040516024016115a59190611c19565b6040516020818303038152906040527ff82c50f1000000000000000000000000000000000000000000000000000000007bffffffffffffffffffffffffffffffffffffffffffffffffffffffff19166020820180517bffffffffffffffffffffffffffffffffffffffffffffffffffffffff8381831617835250505050611ad4565b50565b6116c282826040516024016116409291906126ff565b6040516020818303038152906040527f319af333000000000000000000000000000000000000000000000000000000007bffffffffffffffffffffffffffffffffffffffffffffffffffffffff19166020820180517bffffffffffffffffffffffffffffffffffffffffffffffffffffffff8381831617835250505050611ad4565b5050565b60008054906101000a900473ffffffffffffffffffffffffffffffffffffffff1673ffffffffffffffffffffffffffffffffffffffff163373ffffffffffffffffffffffffffffffffffffffff16148061176d5750600160009054906101000a900473ffffffffffffffffffffffffffffffffffffffff1673ffffffffffffffffffffffffffffffffffffffff163373ffffffffffffffffffffffffffffffffffffffff16145b6117ac576040517f08c379a00000000000000000000000000000000000000000000000000000000081526004016117a3906127a1565b60405180910390fd5b60011515600360009054906101000a900460ff16151514611802576040517f08c379a00000000000000000000000000000000000000000000000000000000081526004016117f99061280d565b60405180910390fd5b6118406040518060400160405280600481526020017f7465737400000000000000000000000000000000000000000000000000000000815250611afd565b60008173ffffffffffffffffffffffffffffffffffffffff166064605a4761186891906121ce565b611872919061219d565b60405161187e9061285e565b60006040518083038185875af1925050503d80600081146118bb576040519150601f19603f3d011682016040523d82523d6000602084013e6118c0565b606091505b5050905080611904576040517f08c379a00000000000000000000000000000000000000000000000000000000081526004016118fb906128bf565b60405180910390fd5b5050565b60008054906101000a900473ffffffffffffffffffffffffffffffffffffffff1673ffffffffffffffffffffffffffffffffffffffff163373ffffffffffffffffffffffffffffffffffffffff1614611996576040517f08c379a000000000000000000000000000000000000000000000000000000000815260040161198d9061292b565b60405180910390fd5b60011515600360009054906101000a900460ff161515146119ec576040517f08c379a00000000000000000000000000000000000000000000000000000000081526004016119e39061280d565b60405180910390fd5b60008060009054906101000a900473ffffffffffffffffffffffffffffffffffffffff1673ffffffffffffffffffffffffffffffffffffffff166064600a47611a3591906121ce565b611a3f919061219d565b604051611a4b9061285e565b60006040518083038185875af1925050503d8060008114611a88576040519150601f19603f3d011682016040523d82523d6000602084013e611a8d565b606091505b5050905080611ad1576040517f08c379a0000000000000000000000000000000000000000000000000000000008152600401611ac8906128bf565b60405180910390fd5b50565b60008151905060006a636f6e736f6c652e6c6f679050602083016000808483855afa5050505050565b611b9381604051602401611b11919061294b565b6040516020818303038152906040527f41304fac000000000000000000000000000000000000000000000000000000007bffffffffffffffffffffffffffffffffffffffffffffffffffffffff19166020820180517bffffffffffffffffffffffffffffffffffffffffffffffffffffffff8381831617835250505050611ad4565b50565b828054828255906000526020600020908101928215611bd2579160200282015b82811115611bd1578251825591602001919060010190611bb6565b5b509050611bdf9190611be3565b5090565b5b80821115611bfc576000816000905550600101611be4565b5090565b6000819050919050565b611c1381611c00565b82525050565b6000602082019050611c2e6000830184611c0a565b92915050565b60008115159050919050565b611c4981611c34565b82525050565b6000602082019050611c646000830184611c40565b92915050565b600080fd5b600073ffffffffffffffffffffffffffffffffffffffff82169050919050565b6000611c9a82611c6f565b9050919050565b611caa81611c8f565b8114611cb557600080fd5b50565b600081359050611cc781611ca1565b92915050565b600060208284031215611ce357611ce2611c6a565b5b6000611cf184828501611cb8565b91505092915050565b611d0381611c00565b8114611d0e57600080fd5b50565b600081359050611d2081611cfa565b92915050565b600060208284031215611d3c57611d3b611c6a565b5b6000611d4a84828501611d11565b91505092915050565b60008060408385031215611d6a57611d69611c6a565b5b6000611d7885828601611d11565b9250506020611d8985828601611d11565b9150509250929050565b611d9c81611c8f565b82525050565b6000602082019050611db76000830184611d93565b92915050565b600081519050919050565b600082825260208201905092915050565b6000819050602082019050919050565b611df281611c8f565b82525050565b6000611e048383611de9565b60208301905092915050565b6000602082019050919050565b6000611e2882611dbd565b611e328185611dc8565b9350611e3d83611dd9565b8060005b83811015611e6e578151611e558882611df8565b9750611e6083611e10565b925050600181019050611e41565b5085935050505092915050565b60006020820190508181036000830152611e958184611e1d565b905092915050565b60008060408385031215611eb457611eb3611c6a565b5b6000611ec285828601611cb8565b9250506020611ed385828601611d11565b9150509250929050565b6000611ee882611c6f565b9050919050565b611ef881611edd565b82525050565b6000602082019050611f136000830184611eef565b92915050565b600082825260208201905092915050565b7f4e656564206174206c6561737420332067756573736573000000000000000000600082015250565b6000611f60601783611f19565b9150611f6b82611f2a565b602082019050919050565b60006020820190508181036000830152611f8f81611f53565b9050919050565b7f323420686f7572732068617665206e6f742070617373656420796574206f722060008201527f796f7520617265206e6f742074686520686f7374000000000000000000000000602082015250565b6000611ff2603483611f19565b9150611ffd82611f96565b604082019050919050565b6000602082019050818103600083015261202181611fe5565b9050919050565b7f47616d652068617320616c726561647920656e64656400000000000000000000600082015250565b600061205e601683611f19565b915061206982612028565b602082019050919050565b6000602082019050818103600083015261208d81612051565b9050919050565b7f4e487b7100000000000000000000000000000000000000000000000000000000600052603260045260246000fd5b7f4e487b7100000000000000000000000000000000000000000000000000000000600052601160045260246000fd5b60006120fd82611c00565b915061210883611c00565b92508282019050808211156121205761211f6120c3565b5b92915050565b600061213182611c00565b91507fffffffffffffffffffffffffffffffffffffffffffffffffffffffffffffffff8203612163576121626120c3565b5b600182019050919050565b7f4e487b7100000000000000000000000000000000000000000000000000000000600052601260045260246000fd5b60006121a882611c00565b91506121b383611c00565b9250826121c3576121c261216e565b5b828204905092915050565b60006121d982611c00565b91506121e483611c00565b92508282026121f281611c00565b91508282048414831517612209576122086120c3565b5b5092915050565b7f4e487b7100000000000000000000000000000000000000000000000000000000600052604160045260246000fd5b600061224a82611c00565b915061225583611c00565b9250826122655761226461216e565b5b828206905092915050565b7f496e636f72726563742066656520616d6f756e74000000000000000000000000600082015250565b60006122a6601483611f19565b91506122b182612270565b602082019050919050565b600060208201905081810360008301526122d581612299565b9050919050565b7f486f73742063616e6e6f7420656e746572206120677565737300000000000000600082015250565b6000612312601983611f19565b915061231d826122dc565b602082019050919050565b6000602082019050818103600083015261234181612305565b9050919050565b7f506c617965722068617320616c726561647920656e746572656420612067756560008201527f7373000000000000000000000000000000000000000000000000000000000000602082015250565b60006123a4602283611f19565b91506123af82612348565b604082019050919050565b600060208201905081810360008301526123d381612397565b9050919050565b7f4775657373206d757374206265206265747765656e203020616e642031303030600082015250565b6000612410602083611f19565b915061241b826123da565b602082019050919050565b6000602082019050818103600083015261243f81612403565b9050919050565b7f47616d6520646561646c696e6520686173207061737365640000000000000000600082015250565b600061247c601883611f19565b915061248782612446565b602082019050919050565b600060208201905081810360008301526124ab8161246f565b9050919050565b60006124bd82611c00565b91506124c883611c00565b92508282039050818111156124e0576124df6120c3565b5b92915050565b7f496e76616c6964206f776e657220616464726573730000000000000000000000600082015250565b600061251c601583611f19565b9150612527826124e6565b602082019050919050565b6000602082019050818103600083015261254b8161250f565b9050919050565b7f496e76616c69642066656520616d6f756e740000000000000000000000000000600082015250565b6000612588601283611f19565b915061259382612552565b602082019050919050565b600060208201905081810360008301526125b78161257b565b9050919050565b7f47616d652068617320616c7265616479206265656e20696e697469616c697a6560008201527f6400000000000000000000000000000000000000000000000000000000000000602082015250565b600061261a602183611f19565b9150612625826125be565b604082019050919050565b600060208201905081810360008301526126498161260d565b9050919050565b600081519050919050565b60005b8381101561267957808201518184015260208101905061265e565b60008484015250505050565b6000601f19601f8301169050919050565b60006126a182612650565b6126ab8185611f19565b93506126bb81856020860161265b565b6126c481612685565b840191505092915050565b600060408201905081810360008301526126e98185612696565b90506126f86020830184611c0a565b9392505050565b600060408201905081810360008301526127198185612696565b90506127286020830184611d93565b9392505050565b7f4f6e6c792074686520686f7374206f722077696e6e65722063616e207472616e60008201527f7366657220457468657200000000000000000000000000000000000000000000602082015250565b600061278b602a83611f19565b91506127968261272f565b604082019050919050565b600060208201905081810360008301526127ba8161277e565b9050919050565b7f47616d6520686173206e6f7420656e6465642079657400000000000000000000600082015250565b60006127f7601683611f19565b9150612802826127c1565b602082019050919050565b60006020820190508181036000830152612826816127ea565b9050919050565b600081905092915050565b50565b600061284860008361282d565b915061285382612838565b600082019050919050565b60006128698261283b565b9150819050919050565b7f4661696c656420746f2073656e64204574686572000000000000000000000000600082015250565b60006128a9601483611f19565b91506128b482612873565b602082019050919050565b600060208201905081810360008301526128d88161289c565b9050919050565b7f4f6e6c792074686520686f73742063616e207769746864726177204574686572600082015250565b6000612915602083611f19565b9150612920826128df565b602082019050919050565b6000602082019050818103600083015261294481612908565b9050919050565b600060208201905081810360008301526129658184612696565b90509291505056fe4465706c6f79696e67204775657373696e6747616d65207769746820656e747279206665653a204465706c6f79696e67204775657373696e6747616d65207769746820686f73743a20a26469706673582212208ff57deef90d7d080be1a7bc2f287c34ce78ad8459c778c74e0153fdd4ec5fca64736f6c63430008120033",
  "linkReferences": {},
  "deployedLinkReferences": {}
}