{
  "_format": "hh-sol-artifact-1",
  "contractName": "GuessingGame",
  "sourceName": "contracts/GuessingGame.sol",
  "abi": [
    {
      "inputs": [
        {
          "internalType": "address",
          "name": "",
          "type": "address"
        }
      ],
      "name": "addressToCommit",
      "outputs": [
        {
          "internalType": "bytes32",
          "name": "",
          "type": "bytes32"
        }
      ],
      "stateMutability": "view",
      "type": "function"
    },
    {
      "inputs": [],
      "name": "claimPrize",
      "outputs": [],
      "stateMutability": "nonpayable",
      "type": "function"
    },
    {
      "inputs": [
        {
          "internalType": "bytes32",
          "name": "commitment",
          "type": "bytes32"
        }
      ],
      "name": "commit",
      "outputs": [],
      "stateMutability": "payable",
      "type": "function"
    },
    {
      "inputs": [],
      "name": "commitDeadline",
      "outputs": [
        {
          "internalType": "uint256",
          "name": "",
          "type": "uint256"
        }
      ],
      "stateMutability": "view",
      "type": "function"
    },
    {
      "inputs": [
        {
          "internalType": "bytes32",
          "name": "",
          "type": "bytes32"
        }
      ],
      "name": "commitToAddress",
      "outputs": [
        {
          "internalType": "address",
          "name": "",
          "type": "address"
        }
      ],
      "stateMutability": "view",
      "type": "function"
    },
    {
      "inputs": [
        {
          "internalType": "uint256",
          "name": "",
          "type": "uint256"
        }
      ],
      "name": "commits",
      "outputs": [
        {
          "internalType": "bytes32",
          "name": "",
          "type": "bytes32"
        }
      ],
      "stateMutability": "view",
      "type": "function"
    },
    {
      "inputs": [],
      "name": "endGame",
      "outputs": [],
      "stateMutability": "nonpayable",
      "type": "function"
    },
    {
      "inputs": [],
      "name": "entryFee",
      "outputs": [
        {
          "internalType": "uint256",
          "name": "",
          "type": "uint256"
        }
      ],
      "stateMutability": "view",
      "type": "function"
    },
    {
      "inputs": [],
      "name": "gameEnded",
      "outputs": [
        {
          "internalType": "bool",
          "name": "",
          "type": "bool"
        }
      ],
      "stateMutability": "view",
      "type": "function"
    },
    {
      "inputs": [],
      "name": "gameEndedFactor",
      "outputs": [
        {
          "internalType": "uint256",
          "name": "",
          "type": "uint256"
        }
      ],
      "stateMutability": "view",
      "type": "function"
    },
    {
      "inputs": [
        {
          "internalType": "uint256",
          "name": "number",
          "type": "uint256"
        }
      ],
      "name": "getAddressByGuess",
      "outputs": [
        {
          "internalType": "address[]",
          "name": "",
          "type": "address[]"
        }
      ],
      "stateMutability": "view",
      "type": "function"
    },
    {
      "inputs": [],
      "name": "getCommits",
      "outputs": [
        {
          "internalType": "uint256",
          "name": "",
          "type": "uint256"
        }
      ],
      "stateMutability": "view",
      "type": "function"
    },
    {
      "inputs": [],
      "name": "getGuesses",
      "outputs": [
        {
          "internalType": "uint256",
          "name": "",
          "type": "uint256"
        }
      ],
      "stateMutability": "view",
      "type": "function"
    },
    {
      "inputs": [
        {
          "internalType": "uint256",
          "name": "",
          "type": "uint256"
        },
        {
          "internalType": "uint256",
          "name": "",
          "type": "uint256"
        }
      ],
      "name": "guessToAddress",
      "outputs": [
        {
          "internalType": "address",
          "name": "",
          "type": "address"
        }
      ],
      "stateMutability": "view",
      "type": "function"
    },
    {
      "inputs": [
        {
          "internalType": "uint256",
          "name": "",
          "type": "uint256"
        }
      ],
      "name": "guesses",
      "outputs": [
        {
          "internalType": "uint256",
          "name": "",
          "type": "uint256"
        }
      ],
      "stateMutability": "view",
      "type": "function"
    },
    {
      "inputs": [
        {
          "internalType": "address",
          "name": "",
          "type": "address"
        }
      ],
      "name": "hasCommited",
      "outputs": [
        {
          "internalType": "bool",
          "name": "",
          "type": "bool"
        }
      ],
      "stateMutability": "view",
      "type": "function"
    },
    {
      "inputs": [],
      "name": "hasInitialized",
      "outputs": [
        {
          "internalType": "bool",
          "name": "",
          "type": "bool"
        }
      ],
      "stateMutability": "view",
      "type": "function"
    },
    {
      "inputs": [
        {
          "internalType": "address",
          "name": "",
          "type": "address"
        }
      ],
      "name": "hasRevealed",
      "outputs": [
        {
          "internalType": "bool",
          "name": "",
          "type": "bool"
        }
      ],
      "stateMutability": "view",
      "type": "function"
    },
    {
      "inputs": [],
      "name": "hasTransferred",
      "outputs": [
        {
          "internalType": "bool",
          "name": "",
          "type": "bool"
        }
      ],
      "stateMutability": "view",
      "type": "function"
    },
    {
      "inputs": [],
      "name": "hasWithdrawn",
      "outputs": [
        {
          "internalType": "bool",
          "name": "",
          "type": "bool"
        }
      ],
      "stateMutability": "view",
      "type": "function"
    },
    {
      "inputs": [
        {
          "internalType": "address",
          "name": "",
          "type": "address"
        }
      ],
      "name": "hasretrieved",
      "outputs": [
        {
          "internalType": "bool",
          "name": "",
          "type": "bool"
        }
      ],
      "stateMutability": "view",
      "type": "function"
    },
    {
      "inputs": [],
      "name": "host",
      "outputs": [
        {
          "internalType": "address payable",
          "name": "",
          "type": "address"
        }
      ],
      "stateMutability": "view",
      "type": "function"
    },
    {
      "inputs": [
        {
          "internalType": "address",
          "name": "_owner",
          "type": "address"
        },
        {
          "internalType": "uint256",
          "name": "_feeAmount",
          "type": "uint256"
        }
      ],
      "name": "initialize",
      "outputs": [],
      "stateMutability": "nonpayable",
      "type": "function"
    },
    {
      "inputs": [],
      "name": "isRevealPhase",
      "outputs": [
        {
          "internalType": "bool",
          "name": "",
          "type": "bool"
        }
      ],
      "stateMutability": "view",
      "type": "function"
    },
    {
      "inputs": [],
      "name": "prizePool",
      "outputs": [
        {
          "internalType": "uint256",
          "name": "",
          "type": "uint256"
        }
      ],
      "stateMutability": "view",
      "type": "function"
    },
    {
      "inputs": [],
      "name": "retrieveDeposit",
      "outputs": [],
      "stateMutability": "nonpayable",
      "type": "function"
    },
    {
      "inputs": [
        {
          "internalType": "uint256",
          "name": "guess",
          "type": "uint256"
        },
        {
          "internalType": "uint256",
          "name": "salt",
          "type": "uint256"
        }
      ],
      "name": "reveal",
      "outputs": [],
      "stateMutability": "nonpayable",
      "type": "function"
    },
    {
      "inputs": [],
      "name": "revealDeadline",
      "outputs": [
        {
          "internalType": "uint256",
          "name": "",
          "type": "uint256"
        }
      ],
      "stateMutability": "view",
      "type": "function"
    },
    {
      "inputs": [],
      "name": "startRevealPhase",
      "outputs": [],
      "stateMutability": "nonpayable",
      "type": "function"
    },
    {
      "inputs": [],
      "name": "winner",
      "outputs": [
        {
          "internalType": "address payable",
          "name": "",
          "type": "address"
        }
      ],
      "stateMutability": "view",
      "type": "function"
    },
    {
      "inputs": [],
      "name": "withdrawServiceFee",
      "outputs": [],
      "stateMutability": "nonpayable",
      "type": "function"
    }
  ],
  "bytecode": "0x608060405234801561001057600080fd5b506140f5806100206000396000f3fe6080604052600436106101d85760003560e01c80639348cef711610102578063c6fd5d4e11610095578063dfbf53ae11610064578063dfbf53ae146106b4578063e6139021146106df578063f14fcbc8146106f6578063f437bc5914610712576101d8565b8063c6fd5d4e146105fa578063c7c4a61514610611578063cd6dc6871461064e578063dad3652114610677576101d8565b8063b14b28a3116100d1578063b14b28a31461052a578063b359f7b014610555578063b9a5301314610592578063c358ced0146105cf576101d8565b80639348cef71461046e578063984911be14610497578063a2ff0209146104c2578063a3a841b8146104ed576101d8565b80636cb4e6111161017a57806370740ac91161014957806370740ac9146103ea578063719ce73e14610401578063797642db1461042c578063849bb2db14610457576101d8565b80636cb4e611146103405780636cbc2ded1461036b5780636de1fea1146103825780636f2f6b39146103bf576101d8565b806320f6a775116101b657806320f6a775146102705780632dae1d21146102ad5780632f1f7520146102ea5780632f6fe39614610315576101d8565b8063072ea61c146101dd5780630803fac0146102085780631f49138914610233575b600080fd5b3480156101e957600080fd5b506101f261073d565b6040516101ff9190612c3b565b60405180910390f35b34801561021457600080fd5b5061021d610743565b60405161022a9190612c71565b60405180910390f35b34801561023f57600080fd5b5061025a60048036038101906102559190612cbd565b610756565b6040516102679190612c3b565b60405180910390f35b34801561027c57600080fd5b5061029760048036038101906102929190612d48565b61077a565b6040516102a49190612d8e565b60405180910390f35b3480156102b957600080fd5b506102d460048036038101906102cf9190612dd5565b610792565b6040516102e19190612e11565b60405180910390f35b3480156102f657600080fd5b506102ff6107c5565b60405161030c9190612c3b565b60405180910390f35b34801561032157600080fd5b5061032a6107d2565b6040516103379190612c71565b60405180910390f35b34801561034c57600080fd5b506103556107e5565b6040516103629190612c71565b60405180910390f35b34801561037757600080fd5b506103806107f8565b005b34801561038e57600080fd5b506103a960048036038101906103a49190612d48565b610ea5565b6040516103b69190612c71565b60405180910390f35b3480156103cb57600080fd5b506103d4610ec5565b6040516103e19190612c71565b60405180910390f35b3480156103f657600080fd5b506103ff610ed8565b005b34801561040d57600080fd5b5061041661111a565b6040516104239190612c3b565b60405180910390f35b34801561043857600080fd5b50610441611120565b60405161044e9190612c3b565b60405180910390f35b34801561046357600080fd5b5061046c61112d565b005b34801561047a57600080fd5b5061049560048036038101906104909190612e2c565b61136c565b005b3480156104a357600080fd5b506104ac611765565b6040516104b99190612c3b565b60405180910390f35b3480156104ce57600080fd5b506104d761176b565b6040516104e49190612c3b565b60405180910390f35b3480156104f957600080fd5b50610514600480360381019061050f9190612e2c565b611771565b6040516105219190612e11565b60405180910390f35b34801561053657600080fd5b5061053f6117bf565b60405161054c9190612c3b565b60405180910390f35b34801561056157600080fd5b5061057c60048036038101906105779190612cbd565b6117c5565b6040516105899190612f2a565b60405180910390f35b34801561059e57600080fd5b506105b960048036038101906105b49190612d48565b611866565b6040516105c69190612c71565b60405180910390f35b3480156105db57600080fd5b506105e4611886565b6040516105f19190612c71565b60405180910390f35b34801561060657600080fd5b5061060f611899565b005b34801561061d57600080fd5b5061063860048036038101906106339190612cbd565b611a6e565b6040516106459190612d8e565b60405180910390f35b34801561065a57600080fd5b5061067560048036038101906106709190612f4c565b611a92565b005b34801561068357600080fd5b5061069e60048036038101906106999190612d48565b611d6f565b6040516106ab9190612c71565b60405180910390f35b3480156106c057600080fd5b506106c9611d8f565b6040516106d69190612fad565b60405180910390f35b3480156106eb57600080fd5b506106f4611db5565b005b610710600480360381019061070b9190612dd5565b612040565b005b34801561071e57600080fd5b506107276123f9565b6040516107349190612fad565b60405180910390f35b60035481565b601060019054906101000a900460ff1681565b600d818154811061076657600080fd5b906000526020600020016000915090505481565b60066020528060005260406000206000915090505481565b60076020528060005260406000206000915054906101000a900473ffffffffffffffffffffffffffffffffffffffff1681565b6000600b80549050905090565b600560009054906101000a900460ff1681565b601060029054906101000a900460ff1681565b600b80549050600d8054905014806108125750600f544210155b610851576040517f08c379a00000000000000000000000000000000000000000000000000000000081526004016108489061304b565b60405180910390fd5b60001515600560009054906101000a900460ff161515146108a7576040517f08c379a000000000000000000000000000000000000000000000000000000000815260040161089e906130b7565b60405180910390fd5b600f54421080156108bd57506003600d80549050105b156108fd576040517f08c379a00000000000000000000000000000000000000000000000000000000081526004016108f490613149565b60405180910390fd5b6001600560006101000a81548160ff0219169083151502179055506003600d805490501015610933576002601281905550610ea3565b600080600090505b600d8054905081101561098757600d818154811061095c5761095b613169565b5b90600052602060002001548261097291906131c7565b9150808061097f906131fb565b91505061093b565b50600d80549050816109999190613272565b905060646042826109aa91906132a3565b6109b49190613272565b90506109f56040518060400160405280601381526020017f61766572616765206e756d6265722069733a20000000000000000000000000008152508261241d565b600d8054905067ffffffffffffffff811115610a1457610a136132e5565b5b604051908082528060200260200182016040528015610a425781602001602082028036833780820191505090505b50600c9080519060200190610a58929190612bb8565b5060005b600d80549050811015610b29576000610a93600d8381548110610a8257610a81613169565b5b9060005260206000200154846124b9565b905080600c8381548110610aaa57610aa9613169565b5b9060005260206000200181905550610b156040518060400160405280600781526020017f64696666733a2000000000000000000000000000000000000000000000000000815250600c8481548110610b0557610b04613169565b5b906000526020600020015461241d565b508080610b21906131fb565b915050610a5c565b50610bc16040518060400160405280600e81526020017f736d616c6c657374206469663a20000000000000000000000000000000000000815250610bbc600c805480602002602001604051908101604052809291908181526020018280548015610bb257602002820191906000526020600020905b815481526020019060010190808311610b9e575b50505050506124e8565b61241d565b610c1b600c805480602002602001604051908101604052809291908181526020018280548015610c1057602002820191906000526020600020905b815481526020019060010190808311610bfc575b505050505082612559565b60016002805490501115610dbf57610ca76040518060400160405280601881526020017f656e6467616d655f206775657373544f416464726573733a00000000000000008152506002600081548110610c7757610c76613169565b5b9060005260206000200160009054906101000a900473ffffffffffffffffffffffffffffffffffffffff16612839565b610d256040518060400160405280601881526020017f656e6467616d655f206775657373544f416464726573733a00000000000000008152506002600181548110610cf557610cf4613169565b5b9060005260206000200160009054906101000a900473ffffffffffffffffffffffffffffffffffffffff16612839565b600060028054905042610d389190613314565b905060028181548110610d4e57610d4d613169565b5b9060005260206000200160009054906101000a900473ffffffffffffffffffffffffffffffffffffffff16600160006101000a81548173ffffffffffffffffffffffffffffffffffffffff021916908373ffffffffffffffffffffffffffffffffffffffff16021790555050610e40565b6002600081548110610dd457610dd3613169565b5b9060005260206000200160009054906101000a900473ffffffffffffffffffffffffffffffffffffffff16600160006101000a81548173ffffffffffffffffffffffffffffffffffffffff021916908373ffffffffffffffffffffffffffffffffffffffff1602179055505b610ea16040518060400160405280600b81526020017f77696e6e65722069733a20000000000000000000000000000000000000000000815250600160009054906101000a900473ffffffffffffffffffffffffffffffffffffffff16612839565b505b565b60116020528060005260406000206000915054906101000a900460ff1681565b601060039054906101000a900460ff1681565b600160009054906101000a900473ffffffffffffffffffffffffffffffffffffffff1673ffffffffffffffffffffffffffffffffffffffff163373ffffffffffffffffffffffffffffffffffffffff1614610f68576040517f08c379a0000000000000000000000000000000000000000000000000000000008152600401610f5f906133b7565b60405180910390fd5b60011515600560009054906101000a900460ff16151514610fbe576040517f08c379a0000000000000000000000000000000000000000000000000000000008152600401610fb590613423565b60405180910390fd5b60001515601060039054906101000a900460ff16151514611014576040517f08c379a000000000000000000000000000000000000000000000000000000000815260040161100b9061348f565b60405180910390fd5b6001601060036101000a81548160ff0219169083151502179055506000600160009054906101000a900473ffffffffffffffffffffffffffffffffffffffff1673ffffffffffffffffffffffffffffffffffffffff166064605a60045461107b91906132a3565b6110859190613272565b604051611091906134e0565b60006040518083038185875af1925050503d80600081146110ce576040519150601f19603f3d011682016040523d82523d6000602084013e6110d3565b606091505b5050905080611117576040517f08c379a000000000000000000000000000000000000000000000000000000000815260040161110e90613541565b60405180910390fd5b50565b60045481565b6000600d80549050905090565b60008054906101000a900473ffffffffffffffffffffffffffffffffffffffff1673ffffffffffffffffffffffffffffffffffffffff163373ffffffffffffffffffffffffffffffffffffffff16146111bb576040517f08c379a00000000000000000000000000000000000000000000000000000000081526004016111b2906135d3565b60405180910390fd5b60011515600560009054906101000a900460ff16151514611211576040517f08c379a000000000000000000000000000000000000000000000000000000000815260040161120890613423565b60405180910390fd5b60001515601060029054906101000a900460ff16151514611267576040517f08c379a000000000000000000000000000000000000000000000000000000000815260040161125e90613665565b60405180910390fd5b6001601060026101000a81548160ff02191690831515021790555060008060009054906101000a900473ffffffffffffffffffffffffffffffffffffffff1673ffffffffffffffffffffffffffffffffffffffff166064600a6004546112cd91906132a3565b6112d79190613272565b6040516112e3906134e0565b60006040518083038185875af1925050503d8060008114611320576040519150601f19603f3d011682016040523d82523d6000602084013e611325565b606091505b5050905080611369576040517f08c379a000000000000000000000000000000000000000000000000000000000815260040161136090613541565b60405180910390fd5b50565b60001515600560009054906101000a900460ff161515146113c2576040517f08c379a00000000000000000000000000000000000000000000000000000000081526004016113b9906130b7565b60405180910390fd5b60011515600960003373ffffffffffffffffffffffffffffffffffffffff1673ffffffffffffffffffffffffffffffffffffffff16815260200190815260200160002060009054906101000a900460ff16151514611455576040517f08c379a000000000000000000000000000000000000000000000000000000000815260040161144c906136f7565b60405180910390fd5b60001515600a60003373ffffffffffffffffffffffffffffffffffffffff1673ffffffffffffffffffffffffffffffffffffffff16815260200190815260200160002060009054906101000a900460ff161515146114e8576040517f08c379a00000000000000000000000000000000000000000000000000000000081526004016114df90613763565b60405180910390fd5b60011515601060009054906101000a900460ff1615151461153e576040517f08c379a0000000000000000000000000000000000000000000000000000000008152600401611535906137cf565b60405180910390fd5b600660003373ffffffffffffffffffffffffffffffffffffffff1673ffffffffffffffffffffffffffffffffffffffff16815260200190815260200160002054611587836128d5565b611590836128d5565b6040516020016115a1929190613860565b604051602081830303815290604052805190602001200361172657600082101580156115cf57506103e88211155b156116ce5760086000838152602001908152602001600020339080600181540180825580915050600190039060005260206000200160009091909190916101000a81548173ffffffffffffffffffffffffffffffffffffffff021916908373ffffffffffffffffffffffffffffffffffffffff1602179055506001600a60003373ffffffffffffffffffffffffffffffffffffffff1673ffffffffffffffffffffffffffffffffffffffff16815260200190815260200160002060006101000a81548160ff021916908315150217905550600d829080600181540180825580915050600190039060005260206000200160009091909190915055611721565b600082101580156116e157506103e88211155b611720576040517f08c379a0000000000000000000000000000000000000000000000000000000008152600401611717906138d0565b60405180910390fd5b5b611761565b6040517f08c379a00000000000000000000000000000000000000000000000000000000081526004016117589061393c565b60405180910390fd5b5050565b60125481565b600e5481565b6008602052816000526040600020818154811061178d57600080fd5b906000526020600020016000915091509054906101000a900473ffffffffffffffffffffffffffffffffffffffff1681565b600f5481565b60606008600083815260200190815260200160002080548060200260200160405190810160405280929190818152602001828054801561185a57602002820191906000526020600020905b8160009054906101000a900473ffffffffffffffffffffffffffffffffffffffff1673ffffffffffffffffffffffffffffffffffffffff1681526020019060010190808311611810575b50505050509050919050565b600a6020528060005260406000206000915054906101000a900460ff1681565b601060009054906101000a900460ff1681565b60008054906101000a900473ffffffffffffffffffffffffffffffffffffffff1673ffffffffffffffffffffffffffffffffffffffff163373ffffffffffffffffffffffffffffffffffffffff1614806118f55750600e544210155b611934576040517f08c379a000000000000000000000000000000000000000000000000000000000815260040161192b906139ce565b60405180910390fd5b60001515600560009054906101000a900460ff1615151461198a576040517f08c379a0000000000000000000000000000000000000000000000000000000008152600401611981906130b7565b60405180910390fd5b6003600b8054905010156119d3576040517f08c379a00000000000000000000000000000000000000000000000000000000081526004016119ca90613a60565b60405180910390fd5b60001515601060009054906101000a900460ff16151514611a29576040517f08c379a0000000000000000000000000000000000000000000000000000000008152600401611a2090613acc565b60405180910390fd5b600247611a369190613272565b6004819055506001601060006101000a81548160ff0219169083151502179055506201518042611a6691906131c7565b600f81905550565b600b8181548110611a7e57600080fd5b906000526020600020016000915090505481565b600073ffffffffffffffffffffffffffffffffffffffff168273ffffffffffffffffffffffffffffffffffffffff1603611b01576040517f08c379a0000000000000000000000000000000000000000000000000000000008152600401611af890613b38565b60405180910390fd5b60008111611b44576040517f08c379a0000000000000000000000000000000000000000000000000000000008152600401611b3b90613ba4565b60405180910390fd5b60001515601060019054906101000a900460ff16151514611b9a576040517f08c379a0000000000000000000000000000000000000000000000000000000008152600401611b9190613c36565b60405180910390fd5b6001601060016101000a81548160ff021916908315150217905550816000806101000a81548173ffffffffffffffffffffffffffffffffffffffff021916908373ffffffffffffffffffffffffffffffffffffffff16021790555080600381905550611c3d6040518060400160405280600381526020017f6f6c61000000000000000000000000000000000000000000000000000000000081525060035461241d565b6000601060006101000a81548160ff0219169083151502179055506000600560006101000a81548160ff0219169083151502179055506000601060026101000a81548160ff0219169083151502179055506000601060036101000a81548160ff02191690831515021790555060016012819055506201518042611cc091906131c7565b600e81905550611cea6040518060600160405280602781526020016140776027913960035461241d565b611d2c60405180606001604052806022815260200161409e6022913960008054906101000a900473ffffffffffffffffffffffffffffffffffffffff16612839565b611d6b6040518060400160405280601681526020017f4465706c6f79696e67206f6e20616464726573733a200000000000000000000081525030612839565b5050565b60096020528060005260406000206000915054906101000a900460ff1681565b600160009054906101000a900473ffffffffffffffffffffffffffffffffffffffff1681565b600a60003373ffffffffffffffffffffffffffffffffffffffff1673ffffffffffffffffffffffffffffffffffffffff16815260200190815260200160002060009054906101000a900460ff16611e41576040517f08c379a0000000000000000000000000000000000000000000000000000000008152600401611e3890613cc8565b60405180910390fd5b60011515600560009054906101000a900460ff16151514611e97576040517f08c379a0000000000000000000000000000000000000000000000000000000008152600401611e8e90613423565b60405180910390fd5b60001515601160003373ffffffffffffffffffffffffffffffffffffffff1673ffffffffffffffffffffffffffffffffffffffff16815260200190815260200160002060009054906101000a900460ff16151514611f2a576040517f08c379a0000000000000000000000000000000000000000000000000000000008152600401611f2190613d5a565b60405180910390fd5b6001601160003373ffffffffffffffffffffffffffffffffffffffff1673ffffffffffffffffffffffffffffffffffffffff16815260200190815260200160002060006101000a81548160ff02191690831515021790555060003373ffffffffffffffffffffffffffffffffffffffff16601254600354611fab91906132a3565b604051611fb7906134e0565b60006040518083038185875af1925050503d8060008114611ff4576040519150601f19603f3d011682016040523d82523d6000602084013e611ff9565b606091505b505090508061203d576040517f08c379a000000000000000000000000000000000000000000000000000000000815260040161203490613541565b60405180910390fd5b50565b600260035461204f91906132a3565b3414612090576040517f08c379a000000000000000000000000000000000000000000000000000000000815260040161208790613dec565b60405180910390fd5b60008054906101000a900473ffffffffffffffffffffffffffffffffffffffff1673ffffffffffffffffffffffffffffffffffffffff163373ffffffffffffffffffffffffffffffffffffffff160361211e576040517f08c379a000000000000000000000000000000000000000000000000000000000815260040161211590613e58565b60405180910390fd5b60001515600960003373ffffffffffffffffffffffffffffffffffffffff1673ffffffffffffffffffffffffffffffffffffffff16815260200190815260200160002060009054906101000a900460ff161515146121b1576040517f08c379a00000000000000000000000000000000000000000000000000000000081526004016121a890613eea565b60405180910390fd5b60001515600560009054906101000a900460ff16151514612207576040517f08c379a00000000000000000000000000000000000000000000000000000000081526004016121fe906130b7565b60405180910390fd5b600e54421061224b576040517f08c379a000000000000000000000000000000000000000000000000000000000815260040161224290613f56565b60405180910390fd5b60001515601060009054906101000a900460ff161515146122a1576040517f08c379a000000000000000000000000000000000000000000000000000000000815260040161229890613acc565b60405180910390fd5b6122df6040518060400160405280600381526020017f4f6c6100000000000000000000000000000000000000000000000000000000008152506129a3565b80600660003373ffffffffffffffffffffffffffffffffffffffff1673ffffffffffffffffffffffffffffffffffffffff16815260200190815260200160002081905550336007600083815260200190815260200160002060006101000a81548173ffffffffffffffffffffffffffffffffffffffff021916908373ffffffffffffffffffffffffffffffffffffffff1602179055506001600960003373ffffffffffffffffffffffffffffffffffffffff1673ffffffffffffffffffffffffffffffffffffffff16815260200190815260200160002060006101000a81548160ff021916908315150217905550600b81908060018154018082558091505060019003906000526020600020016000909190919091505550565b60008054906101000a900473ffffffffffffffffffffffffffffffffffffffff1681565b6124b58282604051602401612433929190613fc0565b6040516020818303038152906040527fb60e72cc000000000000000000000000000000000000000000000000000000007bffffffffffffffffffffffffffffffffffffffffffffffffffffffff19166020820180517bffffffffffffffffffffffffffffffffffffffffffffffffffffffff8381831617835250505050612a3c565b5050565b60008183116124d35782826124ce9190613ff0565b6124e0565b81836124df9190613ff0565b5b905092915050565b6000806103e8905060005b835181101561254f5783818151811061250f5761250e613169565b5b602002602001015182111561253c5783818151811061253157612530613169565b5b602002602001015191505b8080612547906131fb565b9150506124f3565b8192505050919050565b60005b600d8054905081101561283457600d818154811061257d5761257c613169565b5b9060005260206000200154612591846124e8565b8361259c91906131c7565b036126c55760005b60086000600d84815481106125bc576125bb613169565b5b90600052602060002001548152602001908152602001600020805490508110156126c357600260086000600d85815481106125fa576125f9613169565b5b90600052602060002001548152602001908152602001600020828154811061262557612624613169565b5b9060005260206000200160009054906101000a900473ffffffffffffffffffffffffffffffffffffffff169080600181540180825580915050600190039060005260206000200160009091909190916101000a81548173ffffffffffffffffffffffffffffffffffffffff021916908373ffffffffffffffffffffffffffffffffffffffff16021790555080806126bb906131fb565b9150506125a4565b505b600d81815481106126d9576126d8613169565b5b90600052602060002001546126ed846124e8565b836126f89190613ff0565b036128215760005b60086000600d848154811061271857612717613169565b5b906000526020600020015481526020019081526020016000208054905081101561281f57600260086000600d858154811061275657612755613169565b5b90600052602060002001548152602001908152602001600020828154811061278157612780613169565b5b9060005260206000200160009054906101000a900473ffffffffffffffffffffffffffffffffffffffff169080600181540180825580915050600190039060005260206000200160009091909190916101000a81548173ffffffffffffffffffffffffffffffffffffffff021916908373ffffffffffffffffffffffffffffffffffffffff1602179055508080612817906131fb565b915050612700565b505b808061282c906131fb565b91505061255c565b505050565b6128d1828260405160240161284f929190614024565b6040516020818303038152906040527f319af333000000000000000000000000000000000000000000000000000000007bffffffffffffffffffffffffffffffffffffffffffffffffffffffff19166020820180517bffffffffffffffffffffffffffffffffffffffffffffffffffffffff8381831617835250505050612a3c565b5050565b6060600060016128e484612a65565b01905060008167ffffffffffffffff811115612903576129026132e5565b5b6040519080825280601f01601f1916602001820160405280156129355781602001600182028036833780820191505090505b509050600082602001820190505b600115612998578080600190039150507f3031323334353637383961626364656600000000000000000000000000000000600a86061a8153600a858161298c5761298b613243565b5b04945060008503612943575b819350505050919050565b612a39816040516024016129b79190614054565b6040516020818303038152906040527f41304fac000000000000000000000000000000000000000000000000000000007bffffffffffffffffffffffffffffffffffffffffffffffffffffffff19166020820180517bffffffffffffffffffffffffffffffffffffffffffffffffffffffff8381831617835250505050612a3c565b50565b60008151905060006a636f6e736f6c652e6c6f679050602083016000808483855afa5050505050565b600080600090507a184f03e93ff9f4daa797ed6e38ed64bf6a1f0100000000000000008310612ac3577a184f03e93ff9f4daa797ed6e38ed64bf6a1f0100000000000000008381612ab957612ab8613243565b5b0492506040810190505b6d04ee2d6d415b85acef81000000008310612b00576d04ee2d6d415b85acef81000000008381612af657612af5613243565b5b0492506020810190505b662386f26fc100008310612b2f57662386f26fc100008381612b2557612b24613243565b5b0492506010810190505b6305f5e1008310612b58576305f5e1008381612b4e57612b4d613243565b5b0492506008810190505b6127108310612b7d576127108381612b7357612b72613243565b5b0492506004810190505b60648310612ba05760648381612b9657612b95613243565b5b0492506002810190505b600a8310612baf576001810190505b80915050919050565b828054828255906000526020600020908101928215612bf4579160200282015b82811115612bf3578251825591602001919060010190612bd8565b5b509050612c019190612c05565b5090565b5b80821115612c1e576000816000905550600101612c06565b5090565b6000819050919050565b612c3581612c22565b82525050565b6000602082019050612c506000830184612c2c565b92915050565b60008115159050919050565b612c6b81612c56565b82525050565b6000602082019050612c866000830184612c62565b92915050565b600080fd5b612c9a81612c22565b8114612ca557600080fd5b50565b600081359050612cb781612c91565b92915050565b600060208284031215612cd357612cd2612c8c565b5b6000612ce184828501612ca8565b91505092915050565b600073ffffffffffffffffffffffffffffffffffffffff82169050919050565b6000612d1582612cea565b9050919050565b612d2581612d0a565b8114612d3057600080fd5b50565b600081359050612d4281612d1c565b92915050565b600060208284031215612d5e57612d5d612c8c565b5b6000612d6c84828501612d33565b91505092915050565b6000819050919050565b612d8881612d75565b82525050565b6000602082019050612da36000830184612d7f565b92915050565b612db281612d75565b8114612dbd57600080fd5b50565b600081359050612dcf81612da9565b92915050565b600060208284031215612deb57612dea612c8c565b5b6000612df984828501612dc0565b91505092915050565b612e0b81612d0a565b82525050565b6000602082019050612e266000830184612e02565b92915050565b60008060408385031215612e4357612e42612c8c565b5b6000612e5185828601612ca8565b9250506020612e6285828601612ca8565b9150509250929050565b600081519050919050565b600082825260208201905092915050565b6000819050602082019050919050565b612ea181612d0a565b82525050565b6000612eb38383612e98565b60208301905092915050565b6000602082019050919050565b6000612ed782612e6c565b612ee18185612e77565b9350612eec83612e88565b8060005b83811015612f1d578151612f048882612ea7565b9750612f0f83612ebf565b925050600181019050612ef0565b5085935050505092915050565b60006020820190508181036000830152612f448184612ecc565b905092915050565b60008060408385031215612f6357612f62612c8c565b5b6000612f7185828601612d33565b9250506020612f8285828601612ca8565b9150509250929050565b6000612f9782612cea565b9050919050565b612fa781612f8c565b82525050565b6000602082019050612fc26000830184612f9e565b92915050565b600082825260208201905092915050565b7f323420686f7572732068617665206e6f742070617373656420796574206f722060008201527f6e6f742065766572796f6e65206861732072657665616c656420796574000000602082015250565b6000613035603d83612fc8565b915061304082612fd9565b604082019050919050565b6000602082019050818103600083015261306481613028565b9050919050565b7f47616d652068617320616c726561647920656e64656400000000000000000000600082015250565b60006130a1601683612fc8565b91506130ac8261306b565b602082019050919050565b600060208201905081810360008301526130d081613094565b9050919050565b7f5761697420756e74696c206174206c6561737420332070656f706c652068617660008201527f6520656e74657265642067756573736573000000000000000000000000000000602082015250565b6000613133603183612fc8565b915061313e826130d7565b604082019050919050565b6000602082019050818103600083015261316281613126565b9050919050565b7f4e487b7100000000000000000000000000000000000000000000000000000000600052603260045260246000fd5b7f4e487b7100000000000000000000000000000000000000000000000000000000600052601160045260246000fd5b60006131d282612c22565b91506131dd83612c22565b92508282019050808211156131f5576131f4613198565b5b92915050565b600061320682612c22565b91507fffffffffffffffffffffffffffffffffffffffffffffffffffffffffffffffff820361323857613237613198565b5b600182019050919050565b7f4e487b7100000000000000000000000000000000000000000000000000000000600052601260045260246000fd5b600061327d82612c22565b915061328883612c22565b92508261329857613297613243565b5b828204905092915050565b60006132ae82612c22565b91506132b983612c22565b92508282026132c781612c22565b915082820484148315176132de576132dd613198565b5b5092915050565b7f4e487b7100000000000000000000000000000000000000000000000000000000600052604160045260246000fd5b600061331f82612c22565b915061332a83612c22565b92508261333a57613339613243565b5b828206905092915050565b7f4f6e6c79207468652077696e6e65722063616e20636c61696d2074686520707260008201527f697a650000000000000000000000000000000000000000000000000000000000602082015250565b60006133a1602383612fc8565b91506133ac82613345565b604082019050919050565b600060208201905081810360008301526133d081613394565b9050919050565b7f47616d6520686173206e6f7420656e6465642079657400000000000000000000600082015250565b600061340d601683612fc8565b9150613418826133d7565b602082019050919050565b6000602082019050818103600083015261343c81613400565b9050919050565b7f5072697a652068617320616c7265616479206265656e20636c61696d65640000600082015250565b6000613479601e83612fc8565b915061348482613443565b602082019050919050565b600060208201905081810360008301526134a88161346c565b9050919050565b600081905092915050565b50565b60006134ca6000836134af565b91506134d5826134ba565b600082019050919050565b60006134eb826134bd565b9150819050919050565b7f4661696c656420746f2073656e64204574686572000000000000000000000000600082015250565b600061352b601483612fc8565b9150613536826134f5565b602082019050919050565b6000602082019050818103600083015261355a8161351e565b9050919050565b7f4f6e6c792074686520686f73742063616e20776974686472617720457468657260008201527f2066726f6d205365727669636520466565000000000000000000000000000000602082015250565b60006135bd603183612fc8565b91506135c882613561565b604082019050919050565b600060208201905081810360008301526135ec816135b0565b9050919050565b7f53657276696365206665652068617320616c7265616479206265656e2077697460008201527f68647261776e0000000000000000000000000000000000000000000000000000602082015250565b600061364f602683612fc8565b915061365a826135f3565b604082019050919050565b6000602082019050818103600083015261367e81613642565b9050919050565b7f506c6179657220686173206e6f7420636f6d6d6974656420736f6d657468696e60008201527f6700000000000000000000000000000000000000000000000000000000000000602082015250565b60006136e1602183612fc8565b91506136ec82613685565b604082019050919050565b60006020820190508181036000830152613710816136d4565b9050919050565b7f506c617965722068617320616c72656164792072657665616c65640000000000600082015250565b600061374d601b83612fc8565b915061375882613717565b602082019050919050565b6000602082019050818103600083015261377c81613740565b9050919050565b7f52657665616c20706861736520686173206e6f74207374617274656420796574600082015250565b60006137b9602083612fc8565b91506137c482613783565b602082019050919050565b600060208201905081810360008301526137e8816137ac565b9050919050565b600081519050919050565b600081905092915050565b60005b83811015613823578082015181840152602081019050613808565b60008484015250505050565b600061383a826137ef565b61384481856137fa565b9350613854818560208601613805565b80840191505092915050565b600061386c828561382f565b9150613878828461382f565b91508190509392505050565b7f4775657373206d757374206265206265747765656e203020616e642031303030600082015250565b60006138ba602083612fc8565b91506138c582613884565b602082019050919050565b600060208201905081810360008301526138e9816138ad565b9050919050565b7f477565737320646f6573206e6f74206d6174636820636f6d6d69740000000000600082015250565b6000613926601b83612fc8565b9150613931826138f0565b602082019050919050565b6000602082019050818103600083015261395581613919565b9050919050565b7f323420686f7572732068617665206e6f742070617373656420796574206f722060008201527f796f7520617265206e6f742074686520686f7374000000000000000000000000602082015250565b60006139b8603483612fc8565b91506139c38261395c565b604082019050919050565b600060208201905081810360008301526139e7816139ab565b9050919050565b7f5761697420756e74696c206174206c6561737420332070656f706c652068617660008201527f6520656e746572656420636f6d6d697473000000000000000000000000000000602082015250565b6000613a4a603183612fc8565b9150613a55826139ee565b604082019050919050565b60006020820190508181036000830152613a7981613a3d565b9050919050565b7f52657665616c2070686173652068617320616c72656164792073746172746564600082015250565b6000613ab6602083612fc8565b9150613ac182613a80565b602082019050919050565b60006020820190508181036000830152613ae581613aa9565b9050919050565b7f496e76616c6964206f776e657220616464726573730000000000000000000000600082015250565b6000613b22601583612fc8565b9150613b2d82613aec565b602082019050919050565b60006020820190508181036000830152613b5181613b15565b9050919050565b7f496e76616c69642066656520616d6f756e740000000000000000000000000000600082015250565b6000613b8e601283612fc8565b9150613b9982613b58565b602082019050919050565b60006020820190508181036000830152613bbd81613b81565b9050919050565b7f47616d652068617320616c7265616479206265656e20696e697469616c697a6560008201527f6400000000000000000000000000000000000000000000000000000000000000602082015250565b6000613c20602183612fc8565b9150613c2b82613bc4565b604082019050919050565b60006020820190508181036000830152613c4f81613c13565b9050919050565b7f4f6e6c7920706c61796572732077686f20686176652072657665616c6564206360008201527f616e207265747269657665207468656972206465706f73697400000000000000602082015250565b6000613cb2603983612fc8565b9150613cbd82613c56565b604082019050919050565b60006020820190508181036000830152613ce181613ca5565b9050919050565b7f4465706f7369742068617320616c7265616479206265656e207265747269657660008201527f6564000000000000000000000000000000000000000000000000000000000000602082015250565b6000613d44602283612fc8565b9150613d4f82613ce8565b604082019050919050565b60006020820190508181036000830152613d7381613d37565b9050919050565b7f496e636f72726563742066656520616d6f756e742c206e65656420746f20736560008201527f6e642032782074686520656e7472792066656500000000000000000000000000602082015250565b6000613dd6603383612fc8565b9150613de182613d7a565b604082019050919050565b60006020820190508181036000830152613e0581613dc9565b9050919050565b7f486f73742063616e6e6f7420656e746572206120677565737300000000000000600082015250565b6000613e42601983612fc8565b9150613e4d82613e0c565b602082019050919050565b60006020820190508181036000830152613e7181613e35565b9050919050565b7f506c617965722068617320616c726561647920656e746572656420612067756560008201527f7373000000000000000000000000000000000000000000000000000000000000602082015250565b6000613ed4602283612fc8565b9150613edf82613e78565b604082019050919050565b60006020820190508181036000830152613f0381613ec7565b9050919050565b7f47616d6520646561646c696e6520686173207061737365640000000000000000600082015250565b6000613f40601883612fc8565b9150613f4b82613f0a565b602082019050919050565b60006020820190508181036000830152613f6f81613f33565b9050919050565b6000601f19601f8301169050919050565b6000613f92826137ef565b613f9c8185612fc8565b9350613fac818560208601613805565b613fb581613f76565b840191505092915050565b60006040820190508181036000830152613fda8185613f87565b9050613fe96020830184612c2c565b9392505050565b6000613ffb82612c22565b915061400683612c22565b925082820390508181111561401e5761401d613198565b5b92915050565b6000604082019050818103600083015261403e8185613f87565b905061404d6020830184612e02565b9392505050565b6000602082019050818103600083015261406e8184613f87565b90509291505056fe4465706c6f79696e67204775657373696e6747616d65207769746820656e747279206665653a204465706c6f79696e67204775657373696e6747616d65207769746820686f73743a20a264697066735822122092676c24a19f031bfb1511bd62514b1e5d49f5cc1d7702868f57a97de87915a964736f6c63430008120033",
  "linkReferences": {},
  "deployedLinkReferences": {}
}