{
  "_format": "hh-sol-artifact-1",
  "contractName": "GuessingGame",
  "sourceName": "contracts/GuessingGame.sol",
  "abi": [
    {
      "inputs": [
        {
          "internalType": "address",
          "name": "",
          "type": "address"
        }
      ],
      "name": "addressToCommit",
      "outputs": [
        {
          "internalType": "bytes32",
          "name": "",
          "type": "bytes32"
        }
      ],
      "stateMutability": "view",
      "type": "function"
    },
    {
      "inputs": [],
      "name": "claimPrize",
      "outputs": [],
      "stateMutability": "nonpayable",
      "type": "function"
    },
    {
      "inputs": [
        {
          "internalType": "bytes32",
          "name": "commitment",
          "type": "bytes32"
        }
      ],
      "name": "commit",
      "outputs": [],
      "stateMutability": "payable",
      "type": "function"
    },
    {
      "inputs": [],
      "name": "commitDeadline",
      "outputs": [
        {
          "internalType": "uint256",
          "name": "",
          "type": "uint256"
        }
      ],
      "stateMutability": "view",
      "type": "function"
    },
    {
      "inputs": [
        {
          "internalType": "bytes32",
          "name": "",
          "type": "bytes32"
        }
      ],
      "name": "commitToAddress",
      "outputs": [
        {
          "internalType": "address",
          "name": "",
          "type": "address"
        }
      ],
      "stateMutability": "view",
      "type": "function"
    },
    {
      "inputs": [
        {
          "internalType": "uint256",
          "name": "",
          "type": "uint256"
        }
      ],
      "name": "commits",
      "outputs": [
        {
          "internalType": "bytes32",
          "name": "",
          "type": "bytes32"
        }
      ],
      "stateMutability": "view",
      "type": "function"
    },
    {
      "inputs": [],
      "name": "endGame",
      "outputs": [],
      "stateMutability": "nonpayable",
      "type": "function"
    },
    {
      "inputs": [],
      "name": "entryFee",
      "outputs": [
        {
          "internalType": "uint256",
          "name": "",
          "type": "uint256"
        }
      ],
      "stateMutability": "view",
      "type": "function"
    },
    {
      "inputs": [],
      "name": "gameEnded",
      "outputs": [
        {
          "internalType": "bool",
          "name": "",
          "type": "bool"
        }
      ],
      "stateMutability": "view",
      "type": "function"
    },
    {
      "inputs": [],
      "name": "gameEndedFactor",
      "outputs": [
        {
          "internalType": "uint256",
          "name": "",
          "type": "uint256"
        }
      ],
      "stateMutability": "view",
      "type": "function"
    },
    {
      "inputs": [
        {
          "internalType": "uint256",
          "name": "number",
          "type": "uint256"
        }
      ],
      "name": "getAddressByGuess",
      "outputs": [
        {
          "internalType": "address[]",
          "name": "",
          "type": "address[]"
        }
      ],
      "stateMutability": "view",
      "type": "function"
    },
    {
      "inputs": [
        {
          "internalType": "uint256",
          "name": "",
          "type": "uint256"
        },
        {
          "internalType": "uint256",
          "name": "",
          "type": "uint256"
        }
      ],
      "name": "guessToAddress",
      "outputs": [
        {
          "internalType": "address",
          "name": "",
          "type": "address"
        }
      ],
      "stateMutability": "view",
      "type": "function"
    },
    {
      "inputs": [
        {
          "internalType": "uint256",
          "name": "",
          "type": "uint256"
        }
      ],
      "name": "guesses",
      "outputs": [
        {
          "internalType": "uint256",
          "name": "",
          "type": "uint256"
        }
      ],
      "stateMutability": "view",
      "type": "function"
    },
    {
      "inputs": [
        {
          "internalType": "address",
          "name": "",
          "type": "address"
        }
      ],
      "name": "hasCommited",
      "outputs": [
        {
          "internalType": "bool",
          "name": "",
          "type": "bool"
        }
      ],
      "stateMutability": "view",
      "type": "function"
    },
    {
      "inputs": [],
      "name": "hasInitialized",
      "outputs": [
        {
          "internalType": "bool",
          "name": "",
          "type": "bool"
        }
      ],
      "stateMutability": "view",
      "type": "function"
    },
    {
      "inputs": [
        {
          "internalType": "address",
          "name": "",
          "type": "address"
        }
      ],
      "name": "hasRevealed",
      "outputs": [
        {
          "internalType": "bool",
          "name": "",
          "type": "bool"
        }
      ],
      "stateMutability": "view",
      "type": "function"
    },
    {
      "inputs": [],
      "name": "hasTransferred",
      "outputs": [
        {
          "internalType": "bool",
          "name": "",
          "type": "bool"
        }
      ],
      "stateMutability": "view",
      "type": "function"
    },
    {
      "inputs": [],
      "name": "hasWithdrawn",
      "outputs": [
        {
          "internalType": "bool",
          "name": "",
          "type": "bool"
        }
      ],
      "stateMutability": "view",
      "type": "function"
    },
    {
      "inputs": [
        {
          "internalType": "address",
          "name": "",
          "type": "address"
        }
      ],
      "name": "hasretrieved",
      "outputs": [
        {
          "internalType": "bool",
          "name": "",
          "type": "bool"
        }
      ],
      "stateMutability": "view",
      "type": "function"
    },
    {
      "inputs": [],
      "name": "host",
      "outputs": [
        {
          "internalType": "address payable",
          "name": "",
          "type": "address"
        }
      ],
      "stateMutability": "view",
      "type": "function"
    },
    {
      "inputs": [
        {
          "internalType": "address",
          "name": "_owner",
          "type": "address"
        },
        {
          "internalType": "uint256",
          "name": "_feeAmount",
          "type": "uint256"
        }
      ],
      "name": "initialize",
      "outputs": [],
      "stateMutability": "nonpayable",
      "type": "function"
    },
    {
      "inputs": [],
      "name": "isRevealPhase",
      "outputs": [
        {
          "internalType": "bool",
          "name": "",
          "type": "bool"
        }
      ],
      "stateMutability": "view",
      "type": "function"
    },
    {
      "inputs": [],
      "name": "prizePool",
      "outputs": [
        {
          "internalType": "uint256",
          "name": "",
          "type": "uint256"
        }
      ],
      "stateMutability": "view",
      "type": "function"
    },
    {
      "inputs": [],
      "name": "retrieveDeposit",
      "outputs": [],
      "stateMutability": "nonpayable",
      "type": "function"
    },
    {
      "inputs": [
        {
          "internalType": "uint256",
          "name": "guess",
          "type": "uint256"
        },
        {
          "internalType": "uint256",
          "name": "salt",
          "type": "uint256"
        }
      ],
      "name": "reveal",
      "outputs": [],
      "stateMutability": "nonpayable",
      "type": "function"
    },
    {
      "inputs": [],
      "name": "revealDeadline",
      "outputs": [
        {
          "internalType": "uint256",
          "name": "",
          "type": "uint256"
        }
      ],
      "stateMutability": "view",
      "type": "function"
    },
    {
      "inputs": [],
      "name": "startRevealPhase",
      "outputs": [],
      "stateMutability": "nonpayable",
      "type": "function"
    },
    {
      "inputs": [],
      "name": "winner",
      "outputs": [
        {
          "internalType": "address payable",
          "name": "",
          "type": "address"
        }
      ],
      "stateMutability": "view",
      "type": "function"
    },
    {
      "inputs": [],
      "name": "withdrawServiceFee",
      "outputs": [],
      "stateMutability": "nonpayable",
      "type": "function"
    }
  ],
  "bytecode": "0x608060405234801561001057600080fd5b50613d2a806100206000396000f3fe6080604052600436106101c25760003560e01c8063984911be116100f7578063c6fd5d4e11610095578063dfbf53ae11610064578063dfbf53ae14610648578063e613902114610673578063f14fcbc81461068a578063f437bc59146106a6576101c2565b8063c6fd5d4e1461058e578063c7c4a615146105a5578063cd6dc687146105e2578063dad365211461060b576101c2565b8063b14b28a3116100d1578063b14b28a3146104be578063b359f7b0146104e9578063b9a5301314610526578063c358ced014610563576101c2565b8063984911be1461042b578063a2ff020914610456578063a3a841b814610481576101c2565b80636cbc2ded1161016457806370740ac91161013e57806370740ac9146103a9578063719ce73e146103c0578063849bb2db146103eb5780639348cef714610402576101c2565b80636cbc2ded1461032a5780636de1fea1146103415780636f2f6b391461037e576101c2565b806320f6a775116101a057806320f6a7751461025a5780632dae1d21146102975780632f6fe396146102d45780636cb4e611146102ff576101c2565b8063072ea61c146101c75780630803fac0146101f25780631f4913891461021d575b600080fd5b3480156101d357600080fd5b506101dc6106d1565b6040516101e99190612a92565b60405180910390f35b3480156101fe57600080fd5b506102076106d7565b6040516102149190612ac8565b60405180910390f35b34801561022957600080fd5b50610244600480360381019061023f9190612b14565b6106ea565b6040516102519190612a92565b60405180910390f35b34801561026657600080fd5b50610281600480360381019061027c9190612b9f565b61070e565b60405161028e9190612be5565b60405180910390f35b3480156102a357600080fd5b506102be60048036038101906102b99190612c2c565b610726565b6040516102cb9190612c68565b60405180910390f35b3480156102e057600080fd5b506102e9610759565b6040516102f69190612ac8565b60405180910390f35b34801561030b57600080fd5b5061031461076c565b6040516103219190612ac8565b60405180910390f35b34801561033657600080fd5b5061033f61077f565b005b34801561034d57600080fd5b5061036860048036038101906103639190612b9f565b610e6e565b6040516103759190612ac8565b60405180910390f35b34801561038a57600080fd5b50610393610e8e565b6040516103a09190612ac8565b60405180910390f35b3480156103b557600080fd5b506103be610ea1565b005b3480156103cc57600080fd5b506103d56110e3565b6040516103e29190612a92565b60405180910390f35b3480156103f757600080fd5b506104006110e9565b005b34801561040e57600080fd5b5061042960048036038101906104249190612c83565b611328565b005b34801561043757600080fd5b506104406116b1565b60405161044d9190612a92565b60405180910390f35b34801561046257600080fd5b5061046b6116b7565b6040516104789190612a92565b60405180910390f35b34801561048d57600080fd5b506104a860048036038101906104a39190612c83565b6116bd565b6040516104b59190612c68565b60405180910390f35b3480156104ca57600080fd5b506104d361170b565b6040516104e09190612a92565b60405180910390f35b3480156104f557600080fd5b50610510600480360381019061050b9190612b14565b611711565b60405161051d9190612d81565b60405180910390f35b34801561053257600080fd5b5061054d60048036038101906105489190612b9f565b6117b2565b60405161055a9190612ac8565b60405180910390f35b34801561056f57600080fd5b506105786117d2565b6040516105859190612ac8565b60405180910390f35b34801561059a57600080fd5b506105a36117e5565b005b3480156105b157600080fd5b506105cc60048036038101906105c79190612b14565b61191b565b6040516105d99190612be5565b60405180910390f35b3480156105ee57600080fd5b5061060960048036038101906106049190612da3565b61193f565b005b34801561061757600080fd5b50610632600480360381019061062d9190612b9f565b611c1c565b60405161063f9190612ac8565b60405180910390f35b34801561065457600080fd5b5061065d611c3c565b60405161066a9190612e04565b60405180910390f35b34801561067f57600080fd5b50610688611c62565b005b6106a4600480360381019061069f9190612c2c565b611eed565b005b3480156106b257600080fd5b506106bb612250565b6040516106c89190612e04565b60405180910390f35b60035481565b601060019054906101000a900460ff1681565b600d81815481106106fa57600080fd5b906000526020600020016000915090505481565b60066020528060005260406000206000915090505481565b60076020528060005260406000206000915054906101000a900473ffffffffffffffffffffffffffffffffffffffff1681565b600560009054906101000a900460ff1681565b601060029054906101000a900460ff1681565b60008054906101000a900473ffffffffffffffffffffffffffffffffffffffff1673ffffffffffffffffffffffffffffffffffffffff163373ffffffffffffffffffffffffffffffffffffffff1614806107db5750600f544210155b61081a576040517f08c379a000000000000000000000000000000000000000000000000000000000815260040161081190612ea2565b60405180910390fd5b60001515600560009054906101000a900460ff16151514610870576040517f08c379a000000000000000000000000000000000000000000000000000000000815260040161086790612f0e565b60405180910390fd5b600f544210801561088657506003600d80549050105b156108c6576040517f08c379a00000000000000000000000000000000000000000000000000000000081526004016108bd90612fa0565b60405180910390fd5b6001600560006101000a81548160ff0219169083151502179055506003600d8054905010156108fc576002601281905550610e6c565b600080600090505b600d8054905081101561095057600d818154811061092557610924612fc0565b5b90600052602060002001548261093b919061301e565b9150808061094890613052565b915050610904565b50600d805490508161096291906130c9565b9050606460428261097391906130fa565b61097d91906130c9565b90506109be6040518060400160405280601381526020017f61766572616765206e756d6265722069733a200000000000000000000000000081525082612274565b600d8054905067ffffffffffffffff8111156109dd576109dc61313c565b5b604051908082528060200260200182016040528015610a0b5781602001602082028036833780820191505090505b50600c9080519060200190610a21929190612a0f565b5060005b600d80549050811015610af2576000610a5c600d8381548110610a4b57610a4a612fc0565b5b906000526020600020015484612310565b905080600c8381548110610a7357610a72612fc0565b5b9060005260206000200181905550610ade6040518060400160405280600781526020017f64696666733a2000000000000000000000000000000000000000000000000000815250600c8481548110610ace57610acd612fc0565b5b9060005260206000200154612274565b508080610aea90613052565b915050610a25565b50610b8a6040518060400160405280600e81526020017f736d616c6c657374206469663a20000000000000000000000000000000000000815250610b85600c805480602002602001604051908101604052809291908181526020018280548015610b7b57602002820191906000526020600020905b815481526020019060010190808311610b67575b505050505061233f565b612274565b610be4600c805480602002602001604051908101604052809291908181526020018280548015610bd957602002820191906000526020600020905b815481526020019060010190808311610bc5575b5050505050826123b0565b60016002805490501115610d8857610c706040518060400160405280601881526020017f656e6467616d655f206775657373544f416464726573733a00000000000000008152506002600081548110610c4057610c3f612fc0565b5b9060005260206000200160009054906101000a900473ffffffffffffffffffffffffffffffffffffffff16612690565b610cee6040518060400160405280601881526020017f656e6467616d655f206775657373544f416464726573733a00000000000000008152506002600181548110610cbe57610cbd612fc0565b5b9060005260206000200160009054906101000a900473ffffffffffffffffffffffffffffffffffffffff16612690565b600060028054905042610d01919061316b565b905060028181548110610d1757610d16612fc0565b5b9060005260206000200160009054906101000a900473ffffffffffffffffffffffffffffffffffffffff16600160006101000a81548173ffffffffffffffffffffffffffffffffffffffff021916908373ffffffffffffffffffffffffffffffffffffffff16021790555050610e09565b6002600081548110610d9d57610d9c612fc0565b5b9060005260206000200160009054906101000a900473ffffffffffffffffffffffffffffffffffffffff16600160006101000a81548173ffffffffffffffffffffffffffffffffffffffff021916908373ffffffffffffffffffffffffffffffffffffffff1602179055505b610e6a6040518060400160405280600b81526020017f77696e6e65722069733a20000000000000000000000000000000000000000000815250600160009054906101000a900473ffffffffffffffffffffffffffffffffffffffff16612690565b505b565b60116020528060005260406000206000915054906101000a900460ff1681565b601060039054906101000a900460ff1681565b600160009054906101000a900473ffffffffffffffffffffffffffffffffffffffff1673ffffffffffffffffffffffffffffffffffffffff163373ffffffffffffffffffffffffffffffffffffffff1614610f31576040517f08c379a0000000000000000000000000000000000000000000000000000000008152600401610f289061320e565b60405180910390fd5b60011515600560009054906101000a900460ff16151514610f87576040517f08c379a0000000000000000000000000000000000000000000000000000000008152600401610f7e9061327a565b60405180910390fd5b60001515601060039054906101000a900460ff16151514610fdd576040517f08c379a0000000000000000000000000000000000000000000000000000000008152600401610fd4906132e6565b60405180910390fd5b6001601060036101000a81548160ff0219169083151502179055506000600160009054906101000a900473ffffffffffffffffffffffffffffffffffffffff1673ffffffffffffffffffffffffffffffffffffffff166064605a60045461104491906130fa565b61104e91906130c9565b60405161105a90613337565b60006040518083038185875af1925050503d8060008114611097576040519150601f19603f3d011682016040523d82523d6000602084013e61109c565b606091505b50509050806110e0576040517f08c379a00000000000000000000000000000000000000000000000000000000081526004016110d790613398565b60405180910390fd5b50565b60045481565b60008054906101000a900473ffffffffffffffffffffffffffffffffffffffff1673ffffffffffffffffffffffffffffffffffffffff163373ffffffffffffffffffffffffffffffffffffffff1614611177576040517f08c379a000000000000000000000000000000000000000000000000000000000815260040161116e9061342a565b60405180910390fd5b60011515600560009054906101000a900460ff161515146111cd576040517f08c379a00000000000000000000000000000000000000000000000000000000081526004016111c49061327a565b60405180910390fd5b60001515601060029054906101000a900460ff16151514611223576040517f08c379a000000000000000000000000000000000000000000000000000000000815260040161121a906134bc565b60405180910390fd5b6001601060026101000a81548160ff02191690831515021790555060008060009054906101000a900473ffffffffffffffffffffffffffffffffffffffff1673ffffffffffffffffffffffffffffffffffffffff166064600a60045461128991906130fa565b61129391906130c9565b60405161129f90613337565b60006040518083038185875af1925050503d80600081146112dc576040519150601f19603f3d011682016040523d82523d6000602084013e6112e1565b606091505b5050905080611325576040517f08c379a000000000000000000000000000000000000000000000000000000000815260040161131c90613398565b60405180910390fd5b50565b60001515600560009054906101000a900460ff1615151461137e576040517f08c379a000000000000000000000000000000000000000000000000000000000815260040161137590612f0e565b60405180910390fd5b60011515600960003373ffffffffffffffffffffffffffffffffffffffff1673ffffffffffffffffffffffffffffffffffffffff16815260200190815260200160002060009054906101000a900460ff16151514611411576040517f08c379a000000000000000000000000000000000000000000000000000000000815260040161140890613528565b60405180910390fd5b60001515600a60003373ffffffffffffffffffffffffffffffffffffffff1673ffffffffffffffffffffffffffffffffffffffff16815260200190815260200160002060009054906101000a900460ff161515146114a4576040517f08c379a000000000000000000000000000000000000000000000000000000000815260040161149b90613594565b60405180910390fd5b60011515601060009054906101000a900460ff161515146114fa576040517f08c379a00000000000000000000000000000000000000000000000000000000081526004016114f190613600565b60405180910390fd5b600660003373ffffffffffffffffffffffffffffffffffffffff1673ffffffffffffffffffffffffffffffffffffffff168152602001908152602001600020546115438361272c565b61154c8361272c565b60405160200161155d929190613691565b60405160208183030381529060405280519060200120036116725760086000838152602001908152602001600020339080600181540180825580915050600190039060005260206000200160009091909190916101000a81548173ffffffffffffffffffffffffffffffffffffffff021916908373ffffffffffffffffffffffffffffffffffffffff1602179055506001600a60003373ffffffffffffffffffffffffffffffffffffffff1673ffffffffffffffffffffffffffffffffffffffff16815260200190815260200160002060006101000a81548160ff021916908315150217905550600d8290806001815401808255809150506001900390600052602060002001600090919091909150556116ad565b6040517f08c379a00000000000000000000000000000000000000000000000000000000081526004016116a490613701565b60405180910390fd5b5050565b60125481565b600e5481565b600860205281600052604060002081815481106116d957600080fd5b906000526020600020016000915091509054906101000a900473ffffffffffffffffffffffffffffffffffffffff1681565b600f5481565b6060600860008381526020019081526020016000208054806020026020016040519081016040528092919081815260200182805480156117a657602002820191906000526020600020905b8160009054906101000a900473ffffffffffffffffffffffffffffffffffffffff1673ffffffffffffffffffffffffffffffffffffffff168152602001906001019080831161175c575b50505050509050919050565b600a6020528060005260406000206000915054906101000a900460ff1681565b601060009054906101000a900460ff1681565b60008054906101000a900473ffffffffffffffffffffffffffffffffffffffff1673ffffffffffffffffffffffffffffffffffffffff163373ffffffffffffffffffffffffffffffffffffffff1614806118415750600e544210155b611880576040517f08c379a000000000000000000000000000000000000000000000000000000000815260040161187790612ea2565b60405180910390fd5b60001515600560009054906101000a900460ff161515146118d6576040517f08c379a00000000000000000000000000000000000000000000000000000000081526004016118cd90612f0e565b60405180910390fd5b6002476118e391906130c9565b6004819055506001601060006101000a81548160ff0219169083151502179055506201518042611913919061301e565b600f81905550565b600b818154811061192b57600080fd5b906000526020600020016000915090505481565b600073ffffffffffffffffffffffffffffffffffffffff168273ffffffffffffffffffffffffffffffffffffffff16036119ae576040517f08c379a00000000000000000000000000000000000000000000000000000000081526004016119a59061376d565b60405180910390fd5b600081116119f1576040517f08c379a00000000000000000000000000000000000000000000000000000000081526004016119e8906137d9565b60405180910390fd5b60001515601060019054906101000a900460ff16151514611a47576040517f08c379a0000000000000000000000000000000000000000000000000000000008152600401611a3e9061386b565b60405180910390fd5b6001601060016101000a81548160ff021916908315150217905550816000806101000a81548173ffffffffffffffffffffffffffffffffffffffff021916908373ffffffffffffffffffffffffffffffffffffffff16021790555080600381905550611aea6040518060400160405280600381526020017f6f6c610000000000000000000000000000000000000000000000000000000000815250600354612274565b6000601060006101000a81548160ff0219169083151502179055506000600560006101000a81548160ff0219169083151502179055506000601060026101000a81548160ff0219169083151502179055506000601060036101000a81548160ff02191690831515021790555060016012819055506201518042611b6d919061301e565b600e81905550611b97604051806060016040528060278152602001613cac60279139600354612274565b611bd9604051806060016040528060228152602001613cd36022913960008054906101000a900473ffffffffffffffffffffffffffffffffffffffff16612690565b611c186040518060400160405280601681526020017f4465706c6f79696e67206f6e20616464726573733a200000000000000000000081525030612690565b5050565b60096020528060005260406000206000915054906101000a900460ff1681565b600160009054906101000a900473ffffffffffffffffffffffffffffffffffffffff1681565b600a60003373ffffffffffffffffffffffffffffffffffffffff1673ffffffffffffffffffffffffffffffffffffffff16815260200190815260200160002060009054906101000a900460ff16611cee576040517f08c379a0000000000000000000000000000000000000000000000000000000008152600401611ce5906138fd565b60405180910390fd5b60011515600560009054906101000a900460ff16151514611d44576040517f08c379a0000000000000000000000000000000000000000000000000000000008152600401611d3b9061327a565b60405180910390fd5b60001515601160003373ffffffffffffffffffffffffffffffffffffffff1673ffffffffffffffffffffffffffffffffffffffff16815260200190815260200160002060009054906101000a900460ff16151514611dd7576040517f08c379a0000000000000000000000000000000000000000000000000000000008152600401611dce9061398f565b60405180910390fd5b6001601160003373ffffffffffffffffffffffffffffffffffffffff1673ffffffffffffffffffffffffffffffffffffffff16815260200190815260200160002060006101000a81548160ff02191690831515021790555060003373ffffffffffffffffffffffffffffffffffffffff16601254600354611e5891906130fa565b604051611e6490613337565b60006040518083038185875af1925050503d8060008114611ea1576040519150601f19603f3d011682016040523d82523d6000602084013e611ea6565b606091505b5050905080611eea576040517f08c379a0000000000000000000000000000000000000000000000000000000008152600401611ee190613398565b60405180910390fd5b50565b6002600354611efc91906130fa565b3414611f3d576040517f08c379a0000000000000000000000000000000000000000000000000000000008152600401611f3490613a21565b60405180910390fd5b60008054906101000a900473ffffffffffffffffffffffffffffffffffffffff1673ffffffffffffffffffffffffffffffffffffffff163373ffffffffffffffffffffffffffffffffffffffff1603611fcb576040517f08c379a0000000000000000000000000000000000000000000000000000000008152600401611fc290613a8d565b60405180910390fd5b60001515600960003373ffffffffffffffffffffffffffffffffffffffff1673ffffffffffffffffffffffffffffffffffffffff16815260200190815260200160002060009054906101000a900460ff1615151461205e576040517f08c379a000000000000000000000000000000000000000000000000000000000815260040161205590613b1f565b60405180910390fd5b60001515600560009054906101000a900460ff161515146120b4576040517f08c379a00000000000000000000000000000000000000000000000000000000081526004016120ab90612f0e565b60405180910390fd5b600e5442106120f8576040517f08c379a00000000000000000000000000000000000000000000000000000000081526004016120ef90613b8b565b60405180910390fd5b6121366040518060400160405280600381526020017f4f6c6100000000000000000000000000000000000000000000000000000000008152506127fa565b80600660003373ffffffffffffffffffffffffffffffffffffffff1673ffffffffffffffffffffffffffffffffffffffff16815260200190815260200160002081905550336007600083815260200190815260200160002060006101000a81548173ffffffffffffffffffffffffffffffffffffffff021916908373ffffffffffffffffffffffffffffffffffffffff1602179055506001600960003373ffffffffffffffffffffffffffffffffffffffff1673ffffffffffffffffffffffffffffffffffffffff16815260200190815260200160002060006101000a81548160ff021916908315150217905550600b81908060018154018082558091505060019003906000526020600020016000909190919091505550565b60008054906101000a900473ffffffffffffffffffffffffffffffffffffffff1681565b61230c828260405160240161228a929190613bf5565b6040516020818303038152906040527fb60e72cc000000000000000000000000000000000000000000000000000000007bffffffffffffffffffffffffffffffffffffffffffffffffffffffff19166020820180517bffffffffffffffffffffffffffffffffffffffffffffffffffffffff8381831617835250505050612893565b5050565b600081831161232a5782826123259190613c25565b612337565b81836123369190613c25565b5b905092915050565b6000806103e8905060005b83518110156123a65783818151811061236657612365612fc0565b5b60200260200101518211156123935783818151811061238857612387612fc0565b5b602002602001015191505b808061239e90613052565b91505061234a565b8192505050919050565b60005b600d8054905081101561268b57600d81815481106123d4576123d3612fc0565b5b90600052602060002001546123e88461233f565b836123f3919061301e565b0361251c5760005b60086000600d848154811061241357612412612fc0565b5b906000526020600020015481526020019081526020016000208054905081101561251a57600260086000600d858154811061245157612450612fc0565b5b90600052602060002001548152602001908152602001600020828154811061247c5761247b612fc0565b5b9060005260206000200160009054906101000a900473ffffffffffffffffffffffffffffffffffffffff169080600181540180825580915050600190039060005260206000200160009091909190916101000a81548173ffffffffffffffffffffffffffffffffffffffff021916908373ffffffffffffffffffffffffffffffffffffffff160217905550808061251290613052565b9150506123fb565b505b600d81815481106125305761252f612fc0565b5b90600052602060002001546125448461233f565b8361254f9190613c25565b036126785760005b60086000600d848154811061256f5761256e612fc0565b5b906000526020600020015481526020019081526020016000208054905081101561267657600260086000600d85815481106125ad576125ac612fc0565b5b9060005260206000200154815260200190815260200160002082815481106125d8576125d7612fc0565b5b9060005260206000200160009054906101000a900473ffffffffffffffffffffffffffffffffffffffff169080600181540180825580915050600190039060005260206000200160009091909190916101000a81548173ffffffffffffffffffffffffffffffffffffffff021916908373ffffffffffffffffffffffffffffffffffffffff160217905550808061266e90613052565b915050612557565b505b808061268390613052565b9150506123b3565b505050565b61272882826040516024016126a6929190613c59565b6040516020818303038152906040527f319af333000000000000000000000000000000000000000000000000000000007bffffffffffffffffffffffffffffffffffffffffffffffffffffffff19166020820180517bffffffffffffffffffffffffffffffffffffffffffffffffffffffff8381831617835250505050612893565b5050565b60606000600161273b846128bc565b01905060008167ffffffffffffffff81111561275a5761275961313c565b5b6040519080825280601f01601f19166020018201604052801561278c5781602001600182028036833780820191505090505b509050600082602001820190505b6001156127ef578080600190039150507f3031323334353637383961626364656600000000000000000000000000000000600a86061a8153600a85816127e3576127e261309a565b5b0494506000850361279a575b819350505050919050565b6128908160405160240161280e9190613c89565b6040516020818303038152906040527f41304fac000000000000000000000000000000000000000000000000000000007bffffffffffffffffffffffffffffffffffffffffffffffffffffffff19166020820180517bffffffffffffffffffffffffffffffffffffffffffffffffffffffff8381831617835250505050612893565b50565b60008151905060006a636f6e736f6c652e6c6f679050602083016000808483855afa5050505050565b600080600090507a184f03e93ff9f4daa797ed6e38ed64bf6a1f010000000000000000831061291a577a184f03e93ff9f4daa797ed6e38ed64bf6a1f01000000000000000083816129105761290f61309a565b5b0492506040810190505b6d04ee2d6d415b85acef81000000008310612957576d04ee2d6d415b85acef8100000000838161294d5761294c61309a565b5b0492506020810190505b662386f26fc10000831061298657662386f26fc10000838161297c5761297b61309a565b5b0492506010810190505b6305f5e10083106129af576305f5e10083816129a5576129a461309a565b5b0492506008810190505b61271083106129d45761271083816129ca576129c961309a565b5b0492506004810190505b606483106129f757606483816129ed576129ec61309a565b5b0492506002810190505b600a8310612a06576001810190505b80915050919050565b828054828255906000526020600020908101928215612a4b579160200282015b82811115612a4a578251825591602001919060010190612a2f565b5b509050612a589190612a5c565b5090565b5b80821115612a75576000816000905550600101612a5d565b5090565b6000819050919050565b612a8c81612a79565b82525050565b6000602082019050612aa76000830184612a83565b92915050565b60008115159050919050565b612ac281612aad565b82525050565b6000602082019050612add6000830184612ab9565b92915050565b600080fd5b612af181612a79565b8114612afc57600080fd5b50565b600081359050612b0e81612ae8565b92915050565b600060208284031215612b2a57612b29612ae3565b5b6000612b3884828501612aff565b91505092915050565b600073ffffffffffffffffffffffffffffffffffffffff82169050919050565b6000612b6c82612b41565b9050919050565b612b7c81612b61565b8114612b8757600080fd5b50565b600081359050612b9981612b73565b92915050565b600060208284031215612bb557612bb4612ae3565b5b6000612bc384828501612b8a565b91505092915050565b6000819050919050565b612bdf81612bcc565b82525050565b6000602082019050612bfa6000830184612bd6565b92915050565b612c0981612bcc565b8114612c1457600080fd5b50565b600081359050612c2681612c00565b92915050565b600060208284031215612c4257612c41612ae3565b5b6000612c5084828501612c17565b91505092915050565b612c6281612b61565b82525050565b6000602082019050612c7d6000830184612c59565b92915050565b60008060408385031215612c9a57612c99612ae3565b5b6000612ca885828601612aff565b9250506020612cb985828601612aff565b9150509250929050565b600081519050919050565b600082825260208201905092915050565b6000819050602082019050919050565b612cf881612b61565b82525050565b6000612d0a8383612cef565b60208301905092915050565b6000602082019050919050565b6000612d2e82612cc3565b612d388185612cce565b9350612d4383612cdf565b8060005b83811015612d74578151612d5b8882612cfe565b9750612d6683612d16565b925050600181019050612d47565b5085935050505092915050565b60006020820190508181036000830152612d9b8184612d23565b905092915050565b60008060408385031215612dba57612db9612ae3565b5b6000612dc885828601612b8a565b9250506020612dd985828601612aff565b9150509250929050565b6000612dee82612b41565b9050919050565b612dfe81612de3565b82525050565b6000602082019050612e196000830184612df5565b92915050565b600082825260208201905092915050565b7f323420686f7572732068617665206e6f742070617373656420796574206f722060008201527f796f7520617265206e6f742074686520686f7374000000000000000000000000602082015250565b6000612e8c603483612e1f565b9150612e9782612e30565b604082019050919050565b60006020820190508181036000830152612ebb81612e7f565b9050919050565b7f47616d652068617320616c726561647920656e64656400000000000000000000600082015250565b6000612ef8601683612e1f565b9150612f0382612ec2565b602082019050919050565b60006020820190508181036000830152612f2781612eeb565b9050919050565b7f5761697420756e74696c206174206c6561737420332070656f706c652068617660008201527f6520656e74657265642067756573736573000000000000000000000000000000602082015250565b6000612f8a603183612e1f565b9150612f9582612f2e565b604082019050919050565b60006020820190508181036000830152612fb981612f7d565b9050919050565b7f4e487b7100000000000000000000000000000000000000000000000000000000600052603260045260246000fd5b7f4e487b7100000000000000000000000000000000000000000000000000000000600052601160045260246000fd5b600061302982612a79565b915061303483612a79565b925082820190508082111561304c5761304b612fef565b5b92915050565b600061305d82612a79565b91507fffffffffffffffffffffffffffffffffffffffffffffffffffffffffffffffff820361308f5761308e612fef565b5b600182019050919050565b7f4e487b7100000000000000000000000000000000000000000000000000000000600052601260045260246000fd5b60006130d482612a79565b91506130df83612a79565b9250826130ef576130ee61309a565b5b828204905092915050565b600061310582612a79565b915061311083612a79565b925082820261311e81612a79565b9150828204841483151761313557613134612fef565b5b5092915050565b7f4e487b7100000000000000000000000000000000000000000000000000000000600052604160045260246000fd5b600061317682612a79565b915061318183612a79565b9250826131915761319061309a565b5b828206905092915050565b7f4f6e6c79207468652077696e6e65722063616e20636c61696d2074686520707260008201527f697a650000000000000000000000000000000000000000000000000000000000602082015250565b60006131f8602383612e1f565b91506132038261319c565b604082019050919050565b60006020820190508181036000830152613227816131eb565b9050919050565b7f47616d6520686173206e6f7420656e6465642079657400000000000000000000600082015250565b6000613264601683612e1f565b915061326f8261322e565b602082019050919050565b6000602082019050818103600083015261329381613257565b9050919050565b7f5072697a652068617320616c7265616479206265656e20636c61696d65640000600082015250565b60006132d0601e83612e1f565b91506132db8261329a565b602082019050919050565b600060208201905081810360008301526132ff816132c3565b9050919050565b600081905092915050565b50565b6000613321600083613306565b915061332c82613311565b600082019050919050565b600061334282613314565b9150819050919050565b7f4661696c656420746f2073656e64204574686572000000000000000000000000600082015250565b6000613382601483612e1f565b915061338d8261334c565b602082019050919050565b600060208201905081810360008301526133b181613375565b9050919050565b7f4f6e6c792074686520686f73742063616e20776974686472617720457468657260008201527f2066726f6d205365727669636520466565000000000000000000000000000000602082015250565b6000613414603183612e1f565b915061341f826133b8565b604082019050919050565b6000602082019050818103600083015261344381613407565b9050919050565b7f53657276696365206665652068617320616c7265616479206265656e2077697460008201527f68647261776e0000000000000000000000000000000000000000000000000000602082015250565b60006134a6602683612e1f565b91506134b18261344a565b604082019050919050565b600060208201905081810360008301526134d581613499565b9050919050565b7f506c617965722068617320636f6d6d6974656420736f6d657468696e67000000600082015250565b6000613512601d83612e1f565b915061351d826134dc565b602082019050919050565b6000602082019050818103600083015261354181613505565b9050919050565b7f506c617965722068617320616c72656164792072657665616c65640000000000600082015250565b600061357e601b83612e1f565b915061358982613548565b602082019050919050565b600060208201905081810360008301526135ad81613571565b9050919050565b7f52657665616c20706861736520686173206e6f74207374617274656420796574600082015250565b60006135ea602083612e1f565b91506135f5826135b4565b602082019050919050565b60006020820190508181036000830152613619816135dd565b9050919050565b600081519050919050565b600081905092915050565b60005b83811015613654578082015181840152602081019050613639565b60008484015250505050565b600061366b82613620565b613675818561362b565b9350613685818560208601613636565b80840191505092915050565b600061369d8285613660565b91506136a98284613660565b91508190509392505050565b7f477565737320646f6573206e6f74206d6174636820636f6d6d69740000000000600082015250565b60006136eb601b83612e1f565b91506136f6826136b5565b602082019050919050565b6000602082019050818103600083015261371a816136de565b9050919050565b7f496e76616c6964206f776e657220616464726573730000000000000000000000600082015250565b6000613757601583612e1f565b915061376282613721565b602082019050919050565b600060208201905081810360008301526137868161374a565b9050919050565b7f496e76616c69642066656520616d6f756e740000000000000000000000000000600082015250565b60006137c3601283612e1f565b91506137ce8261378d565b602082019050919050565b600060208201905081810360008301526137f2816137b6565b9050919050565b7f47616d652068617320616c7265616479206265656e20696e697469616c697a6560008201527f6400000000000000000000000000000000000000000000000000000000000000602082015250565b6000613855602183612e1f565b9150613860826137f9565b604082019050919050565b6000602082019050818103600083015261388481613848565b9050919050565b7f4f6e6c7920706c61796572732077686f20686176652072657665616c6564206360008201527f616e207265747269657665207468656972206465706f73697400000000000000602082015250565b60006138e7603983612e1f565b91506138f28261388b565b604082019050919050565b60006020820190508181036000830152613916816138da565b9050919050565b7f4465706f7369742068617320616c7265616479206265656e207265747269657660008201527f6564000000000000000000000000000000000000000000000000000000000000602082015250565b6000613979602283612e1f565b91506139848261391d565b604082019050919050565b600060208201905081810360008301526139a88161396c565b9050919050565b7f496e636f72726563742066656520616d6f756e742c206e65656420746f20736560008201527f6e642032782074686520656e7472792066656500000000000000000000000000602082015250565b6000613a0b603383612e1f565b9150613a16826139af565b604082019050919050565b60006020820190508181036000830152613a3a816139fe565b9050919050565b7f486f73742063616e6e6f7420656e746572206120677565737300000000000000600082015250565b6000613a77601983612e1f565b9150613a8282613a41565b602082019050919050565b60006020820190508181036000830152613aa681613a6a565b9050919050565b7f506c617965722068617320616c726561647920656e746572656420612067756560008201527f7373000000000000000000000000000000000000000000000000000000000000602082015250565b6000613b09602283612e1f565b9150613b1482613aad565b604082019050919050565b60006020820190508181036000830152613b3881613afc565b9050919050565b7f47616d6520646561646c696e6520686173207061737365640000000000000000600082015250565b6000613b75601883612e1f565b9150613b8082613b3f565b602082019050919050565b60006020820190508181036000830152613ba481613b68565b9050919050565b6000601f19601f8301169050919050565b6000613bc782613620565b613bd18185612e1f565b9350613be1818560208601613636565b613bea81613bab565b840191505092915050565b60006040820190508181036000830152613c0f8185613bbc565b9050613c1e6020830184612a83565b9392505050565b6000613c3082612a79565b9150613c3b83612a79565b9250828203905081811115613c5357613c52612fef565b5b92915050565b60006040820190508181036000830152613c738185613bbc565b9050613c826020830184612c59565b9392505050565b60006020820190508181036000830152613ca38184613bbc565b90509291505056fe4465706c6f79696e67204775657373696e6747616d65207769746820656e747279206665653a204465706c6f79696e67204775657373696e6747616d65207769746820686f73743a20a2646970667358221220d2c263f1cf703ef5c74fb52c28b9c0f1d920816c92a6cd9b604b8d784059bf1a64736f6c63430008120033",
  "linkReferences": {},
  "deployedLinkReferences": {}
}