{
  "_format": "hh-sol-artifact-1",
  "contractName": "GuessingFactory",
  "sourceName": "contracts/GuessingGame.sol",
  "abi": [
    {
      "inputs": [
        {
          "internalType": "address",
          "name": "_masterContract",
          "type": "address"
        }
      ],
      "stateMutability": "nonpayable",
      "type": "constructor"
    },
    {
      "anonymous": false,
      "inputs": [
        {
          "indexed": true,
          "internalType": "address",
          "name": "player",
          "type": "address"
        },
        {
          "indexed": false,
          "internalType": "address",
          "name": "game",
          "type": "address"
        }
      ],
      "name": "NewGame",
      "type": "event"
    },
    {
      "inputs": [
        {
          "internalType": "uint256",
          "name": "_feeAmount",
          "type": "uint256"
        }
      ],
      "name": "createGame",
      "outputs": [
        {
          "internalType": "address",
          "name": "",
          "type": "address"
        }
      ],
      "stateMutability": "nonpayable",
      "type": "function"
    },
    {
      "inputs": [
        {
          "internalType": "address",
          "name": "player",
          "type": "address"
        }
      ],
      "name": "getGamesByPlayer",
      "outputs": [
        {
          "internalType": "address[]",
          "name": "",
          "type": "address[]"
        }
      ],
      "stateMutability": "view",
      "type": "function"
    },
    {
      "inputs": [],
      "name": "logicContractAddress",
      "outputs": [
        {
          "internalType": "address",
          "name": "",
          "type": "address"
        }
      ],
      "stateMutability": "view",
      "type": "function"
    },
    {
      "inputs": [
        {
          "internalType": "address",
          "name": "",
          "type": "address"
        },
        {
          "internalType": "uint256",
          "name": "",
          "type": "uint256"
        }
      ],
      "name": "playerToGames",
      "outputs": [
        {
          "internalType": "address",
          "name": "",
          "type": "address"
        }
      ],
      "stateMutability": "view",
      "type": "function"
    }
  ],
  "bytecode": "0x608060405234801561001057600080fd5b50604051610b6b380380610b6b8339818101604052810190610032919061014b565b600073ffffffffffffffffffffffffffffffffffffffff168173ffffffffffffffffffffffffffffffffffffffff16036100a1576040517f08c379a0000000000000000000000000000000000000000000000000000000008152600401610098906101d5565b60405180910390fd5b80600160006101000a81548173ffffffffffffffffffffffffffffffffffffffff021916908373ffffffffffffffffffffffffffffffffffffffff160217905550506101f5565b600080fd5b600073ffffffffffffffffffffffffffffffffffffffff82169050919050565b6000610118826100ed565b9050919050565b6101288161010d565b811461013357600080fd5b50565b6000815190506101458161011f565b92915050565b600060208284031215610161576101606100e8565b5b600061016f84828501610136565b91505092915050565b600082825260208201905092915050565b7f496e76616c696420636f6e747261637420616464726573730000000000000000600082015250565b60006101bf601883610178565b91506101ca82610189565b602082019050919050565b600060208201905081810360008301526101ee816101b2565b9050919050565b610967806102046000396000f3fe608060405234801561001057600080fd5b506004361061004c5760003560e01c80630483c9811461005157806348e837b914610081578063bc7617cc146100b1578063bccda810146100e1575b600080fd5b61006b600480360381019061006691906105f3565b6100ff565b60405161007891906106de565b60405180910390f35b61009b60048036038101906100969190610736565b6101cb565b6040516100a89190610772565b60405180910390f35b6100cb60048036038101906100c6919061078d565b61039d565b6040516100d89190610772565b60405180910390f35b6100e96103eb565b6040516100f69190610772565b60405180910390f35b60606000808373ffffffffffffffffffffffffffffffffffffffff1673ffffffffffffffffffffffffffffffffffffffff1681526020019081526020016000208054806020026020016040519081016040528092919081815260200182805480156101bf57602002820191906000526020600020905b8160009054906101000a900473ffffffffffffffffffffffffffffffffffffffff1673ffffffffffffffffffffffffffffffffffffffff1681526020019060010190808311610175575b50505050509050919050565b6000806101f9600160009054906101000a900473ffffffffffffffffffffffffffffffffffffffff16610411565b90508073ffffffffffffffffffffffffffffffffffffffff1663cd6dc68733856040518363ffffffff1660e01b81526004016102369291906107dc565b600060405180830381600087803b15801561025057600080fd5b505af1158015610264573d6000803e3d6000fd5b505050506000803373ffffffffffffffffffffffffffffffffffffffff1673ffffffffffffffffffffffffffffffffffffffff168152602001908152602001600020819080600181540180825580915050600190039060005260206000200160009091909190916101000a81548173ffffffffffffffffffffffffffffffffffffffff021916908373ffffffffffffffffffffffffffffffffffffffff1602179055503373ffffffffffffffffffffffffffffffffffffffff167fd1af9b1127c37da1f8a3d2e4e7d92bcbfa7bfa2ccf9ce1d29530052e366cc9018260405161034d9190610772565b60405180910390a26103946040518060400160405280601681526020017f6e65772067616d65206465706c6f796564206f6e3a2000000000000000000000815250826104cb565b80915050919050565b600060205281600052604060002081815481106103b957600080fd5b906000526020600020016000915091509054906101000a900473ffffffffffffffffffffffffffffffffffffffff1681565b600160009054906101000a900473ffffffffffffffffffffffffffffffffffffffff1681565b6000763d602d80600a3d3981f3363d3d373d3d3d363d730000008260601b60e81c176000526e5af43d82803e903d91602b57fd5bf38260781b17602052603760096000f09050600073ffffffffffffffffffffffffffffffffffffffff168173ffffffffffffffffffffffffffffffffffffffff16036104c6576040517f08c379a00000000000000000000000000000000000000000000000000000000081526004016104bd90610862565b60405180910390fd5b919050565b61056382826040516024016104e1929190610901565b6040516020818303038152906040527f319af333000000000000000000000000000000000000000000000000000000007bffffffffffffffffffffffffffffffffffffffffffffffffffffffff19166020820180517bffffffffffffffffffffffffffffffffffffffffffffffffffffffff8381831617835250505050610567565b5050565b60008151905060006a636f6e736f6c652e6c6f679050602083016000808483855afa5050505050565b600080fd5b600073ffffffffffffffffffffffffffffffffffffffff82169050919050565b60006105c082610595565b9050919050565b6105d0816105b5565b81146105db57600080fd5b50565b6000813590506105ed816105c7565b92915050565b60006020828403121561060957610608610590565b5b6000610617848285016105de565b91505092915050565b600081519050919050565b600082825260208201905092915050565b6000819050602082019050919050565b610655816105b5565b82525050565b6000610667838361064c565b60208301905092915050565b6000602082019050919050565b600061068b82610620565b610695818561062b565b93506106a08361063c565b8060005b838110156106d15781516106b8888261065b565b97506106c383610673565b9250506001810190506106a4565b5085935050505092915050565b600060208201905081810360008301526106f88184610680565b905092915050565b6000819050919050565b61071381610700565b811461071e57600080fd5b50565b6000813590506107308161070a565b92915050565b60006020828403121561074c5761074b610590565b5b600061075a84828501610721565b91505092915050565b61076c816105b5565b82525050565b60006020820190506107876000830184610763565b92915050565b600080604083850312156107a4576107a3610590565b5b60006107b2858286016105de565b92505060206107c385828601610721565b9150509250929050565b6107d681610700565b82525050565b60006040820190506107f16000830185610763565b6107fe60208301846107cd565b9392505050565b600082825260208201905092915050565b7f455243313136373a20637265617465206661696c656400000000000000000000600082015250565b600061084c601683610805565b915061085782610816565b602082019050919050565b6000602082019050818103600083015261087b8161083f565b9050919050565b600081519050919050565b60005b838110156108ab578082015181840152602081019050610890565b60008484015250505050565b6000601f19601f8301169050919050565b60006108d382610882565b6108dd8185610805565b93506108ed81856020860161088d565b6108f6816108b7565b840191505092915050565b6000604082019050818103600083015261091b81856108c8565b905061092a6020830184610763565b939250505056fea264697066735822122096eed42b3bdeea438638dab6acfb47a3f7d23034881967a8f0e461f8243eef0764736f6c63430008120033",
  "linkReferences": {},
  "deployedLinkReferences": {}
}