{
  "_format": "hh-sol-artifact-1",
  "contractName": "GuessingFactory",
  "sourceName": "contracts/GuessingGame.sol",
  "abi": [
    {
      "inputs": [
        {
          "internalType": "address",
          "name": "_masterContract",
          "type": "address"
        }
      ],
      "stateMutability": "nonpayable",
      "type": "constructor"
    },
    {
      "anonymous": false,
      "inputs": [
        {
          "indexed": true,
          "internalType": "address",
          "name": "player",
          "type": "address"
        },
        {
          "indexed": false,
          "internalType": "address",
          "name": "game",
          "type": "address"
        }
      ],
      "name": "NewGame",
      "type": "event"
    },
    {
      "inputs": [
        {
          "internalType": "uint256",
          "name": "_feeAmount",
          "type": "uint256"
        }
      ],
      "name": "createGame",
      "outputs": [
        {
          "internalType": "address",
          "name": "",
          "type": "address"
        }
      ],
      "stateMutability": "nonpayable",
      "type": "function"
    },
    {
      "inputs": [
        {
          "internalType": "uint256",
          "name": "",
          "type": "uint256"
        }
      ],
      "name": "games",
      "outputs": [
        {
          "internalType": "address",
          "name": "",
          "type": "address"
        }
      ],
      "stateMutability": "view",
      "type": "function"
    },
    {
      "inputs": [],
      "name": "getGames",
      "outputs": [
        {
          "internalType": "address[]",
          "name": "",
          "type": "address[]"
        }
      ],
      "stateMutability": "view",
      "type": "function"
    },
    {
      "inputs": [
        {
          "internalType": "address",
          "name": "player",
          "type": "address"
        }
      ],
      "name": "getGamesByPlayer",
      "outputs": [
        {
          "internalType": "address[]",
          "name": "",
          "type": "address[]"
        }
      ],
      "stateMutability": "view",
      "type": "function"
    },
    {
      "inputs": [],
      "name": "logicContractAddress",
      "outputs": [
        {
          "internalType": "address",
          "name": "",
          "type": "address"
        }
      ],
      "stateMutability": "view",
      "type": "function"
    },
    {
      "inputs": [
        {
          "internalType": "address",
          "name": "",
          "type": "address"
        },
        {
          "internalType": "uint256",
          "name": "",
          "type": "uint256"
        }
      ],
      "name": "playerToGames",
      "outputs": [
        {
          "internalType": "address",
          "name": "",
          "type": "address"
        }
      ],
      "stateMutability": "view",
      "type": "function"
    }
  ],
  "bytecode": "0x60806040523480156200001157600080fd5b5060405162000d1b38038062000d1b83398181016040528101906200003791906200015b565b600073ffffffffffffffffffffffffffffffffffffffff168173ffffffffffffffffffffffffffffffffffffffff1603620000a9576040517f08c379a0000000000000000000000000000000000000000000000000000000008152600401620000a090620001ee565b60405180910390fd5b80600260006101000a81548173ffffffffffffffffffffffffffffffffffffffff021916908373ffffffffffffffffffffffffffffffffffffffff1602179055505062000210565b600080fd5b600073ffffffffffffffffffffffffffffffffffffffff82169050919050565b60006200012382620000f6565b9050919050565b620001358162000116565b81146200014157600080fd5b50565b60008151905062000155816200012a565b92915050565b600060208284031215620001745762000173620000f1565b5b6000620001848482850162000144565b91505092915050565b600082825260208201905092915050565b7f496e76616c696420636f6e747261637420616464726573730000000000000000600082015250565b6000620001d66018836200018d565b9150620001e3826200019e565b602082019050919050565b600060208201905081810360008301526200020981620001c7565b9050919050565b610afb80620002206000396000f3fe608060405234801561001057600080fd5b50600436106100625760003560e01c80630483c98114610067578063117a5b901461009757806348e837b9146100c7578063bc7617cc146100f7578063bccda81014610127578063c04c594714610145575b600080fd5b610081600480360381019061007c9190610787565b610163565b60405161008e9190610872565b60405180910390f35b6100b160048036038101906100ac91906108ca565b61022f565b6040516100be9190610906565b60405180910390f35b6100e160048036038101906100dc91906108ca565b61026e565b6040516100ee9190610906565b60405180910390f35b610111600480360381019061010c9190610921565b6104a3565b60405161011e9190610906565b60405180910390f35b61012f6104f1565b60405161013c9190610906565b60405180910390f35b61014d610517565b60405161015a9190610872565b60405180910390f35b60606000808373ffffffffffffffffffffffffffffffffffffffff1673ffffffffffffffffffffffffffffffffffffffff16815260200190815260200160002080548060200260200160405190810160405280929190818152602001828054801561022357602002820191906000526020600020905b8160009054906101000a900473ffffffffffffffffffffffffffffffffffffffff1673ffffffffffffffffffffffffffffffffffffffff16815260200190600101908083116101d9575b50505050509050919050565b6001818154811061023f57600080fd5b906000526020600020016000915054906101000a900473ffffffffffffffffffffffffffffffffffffffff1681565b60008061029c600260009054906101000a900473ffffffffffffffffffffffffffffffffffffffff166105a5565b90508073ffffffffffffffffffffffffffffffffffffffff1663cd6dc68733856040518363ffffffff1660e01b81526004016102d9929190610970565b600060405180830381600087803b1580156102f357600080fd5b505af1158015610307573d6000803e3d6000fd5b505050506000803373ffffffffffffffffffffffffffffffffffffffff1673ffffffffffffffffffffffffffffffffffffffff168152602001908152602001600020819080600181540180825580915050600190039060005260206000200160009091909190916101000a81548173ffffffffffffffffffffffffffffffffffffffff021916908373ffffffffffffffffffffffffffffffffffffffff1602179055506001819080600181540180825580915050600190039060005260206000200160009091909190916101000a81548173ffffffffffffffffffffffffffffffffffffffff021916908373ffffffffffffffffffffffffffffffffffffffff1602179055503373ffffffffffffffffffffffffffffffffffffffff167fd1af9b1127c37da1f8a3d2e4e7d92bcbfa7bfa2ccf9ce1d29530052e366cc901826040516104539190610906565b60405180910390a261049a6040518060400160405280601681526020017f6e65772067616d65206465706c6f796564206f6e3a20000000000000000000008152508261065f565b80915050919050565b600060205281600052604060002081815481106104bf57600080fd5b906000526020600020016000915091509054906101000a900473ffffffffffffffffffffffffffffffffffffffff1681565b600260009054906101000a900473ffffffffffffffffffffffffffffffffffffffff1681565b6060600180548060200260200160405190810160405280929190818152602001828054801561059b57602002820191906000526020600020905b8160009054906101000a900473ffffffffffffffffffffffffffffffffffffffff1673ffffffffffffffffffffffffffffffffffffffff1681526020019060010190808311610551575b5050505050905090565b6000763d602d80600a3d3981f3363d3d373d3d3d363d730000008260601b60e81c176000526e5af43d82803e903d91602b57fd5bf38260781b17602052603760096000f09050600073ffffffffffffffffffffffffffffffffffffffff168173ffffffffffffffffffffffffffffffffffffffff160361065a576040517f08c379a0000000000000000000000000000000000000000000000000000000008152600401610651906109f6565b60405180910390fd5b919050565b6106f78282604051602401610675929190610a95565b6040516020818303038152906040527f319af333000000000000000000000000000000000000000000000000000000007bffffffffffffffffffffffffffffffffffffffffffffffffffffffff19166020820180517bffffffffffffffffffffffffffffffffffffffffffffffffffffffff83818316178352505050506106fb565b5050565b60008151905060006a636f6e736f6c652e6c6f679050602083016000808483855afa5050505050565b600080fd5b600073ffffffffffffffffffffffffffffffffffffffff82169050919050565b600061075482610729565b9050919050565b61076481610749565b811461076f57600080fd5b50565b6000813590506107818161075b565b92915050565b60006020828403121561079d5761079c610724565b5b60006107ab84828501610772565b91505092915050565b600081519050919050565b600082825260208201905092915050565b6000819050602082019050919050565b6107e981610749565b82525050565b60006107fb83836107e0565b60208301905092915050565b6000602082019050919050565b600061081f826107b4565b61082981856107bf565b9350610834836107d0565b8060005b8381101561086557815161084c88826107ef565b975061085783610807565b925050600181019050610838565b5085935050505092915050565b6000602082019050818103600083015261088c8184610814565b905092915050565b6000819050919050565b6108a781610894565b81146108b257600080fd5b50565b6000813590506108c48161089e565b92915050565b6000602082840312156108e0576108df610724565b5b60006108ee848285016108b5565b91505092915050565b61090081610749565b82525050565b600060208201905061091b60008301846108f7565b92915050565b6000806040838503121561093857610937610724565b5b600061094685828601610772565b9250506020610957858286016108b5565b9150509250929050565b61096a81610894565b82525050565b600060408201905061098560008301856108f7565b6109926020830184610961565b9392505050565b600082825260208201905092915050565b7f455243313136373a20637265617465206661696c656400000000000000000000600082015250565b60006109e0601683610999565b91506109eb826109aa565b602082019050919050565b60006020820190508181036000830152610a0f816109d3565b9050919050565b600081519050919050565b60005b83811015610a3f578082015181840152602081019050610a24565b60008484015250505050565b6000601f19601f8301169050919050565b6000610a6782610a16565b610a718185610999565b9350610a81818560208601610a21565b610a8a81610a4b565b840191505092915050565b60006040820190508181036000830152610aaf8185610a5c565b9050610abe60208301846108f7565b939250505056fea2646970667358221220105ff2f94b482d0686fc274f9f67e18f640b16bc46e76c0f9d7aeb8d4ab01adb64736f6c63430008120033",
  "linkReferences": {},
  "deployedLinkReferences": {}
}